:040000000C949E07B7
:14005400FF0101010101010101010101010101010101010186
:14006800010101010101010101010101010101010101010170
:14007C0001010101010101010101010101010101010101015C
:14009000010101010101010101010101010101010101010148
:1400A400010101FFFF00000000000000000000000000000047
:1400B800000000000000000000000000000000000000000034
:1400CC00000000000000000000000000000000000000000020
:1400E00000000000000000000000000000000000000000000C
:1400F40000000000000000FFFF0000000000000000000000FA
:140108000000000000000000000000000000000000000000E3
:14011C000000000000000000000000000000000000000000CF
:140130000000000000000000000000000000000000000000BB
:140144000000000000000000000000FFFF00000000000000A9
:14015800000000000000000000000000000000000000000093
:14016C0000000000000000000000000000000000000000007F
:1401800000000000000000000000000000000000000000006B
:14019400000000000000000000000000000000FFFF00000059
:1401A800000000000000000000000000000000000000000043
:1401BC0000000000000000000000000000000000000000002F
:1401D00000000000000000000000000000000000000000001B
:1401E40000000000000000000000000000000000000000FF08
:1401F800FF8080808080808080808080808080808080808074
:14020C008080808080808080808080808080808080808080DE
:140220008080808080808080808080808080808080808080CA
:140234008080808080808080808080808080808080808080B6
:14024800808080FFFFFFFFFFFFFFFFFFFFFFFFFFFFFFFFFF33
:14025C00FFFFFFFFFFFFFFFFFFFFFFFFFFFFFFFFFFFFFFFFA2
:14027000FFFFFFFFFFFFFFFFFFFFFFFFFFFFFFFFFFFFFFFF8E
:14028400FFFFFFFFFFFFFFFFFFFFFFFFFFFFFFFF7F7F3F3FFA
:140298001F0F0F07070303FFFFFFFFFFFFFFFFFFFFFFFFFF0E
:1402AC00FFFFFFFFFFFFFFFFFFFFFFFFFFFFFFFFFFFFFFFF52
:1402C000FFFFFFFFFFFFFFFFFFFFFFFFFFFFFFFFFFFFFFFF3E
:1402D400FFFFFFFFFFFF7F7F3F1F1F0F0F0707030101000070
:1402E8000000000000000000000000FFFFFFFFFFFFFFFFFF0B
:1402FC00FFFFFFFFFFFFFFFFFFFFFFFFFFFFFFFFFFFFFFFF02
:14031000FFFFFFFFFFFFFFFFFFFFFFFFFFFFFFFF7F7F3F1F8D
:140324001F0F0F070703010100000000000000000000000075
:14033800000000000000000000000000000000FFFFFFFFFFB6
:14034C00FFFFFFFFFFFFFFFFFFFFFFFFFFFFFFFFFFFFFFFFB1
:14036000FFFFFFFFFFFF7F3F3F1F1F0F0F0703030101000027
:14037400000000000000000000000000000000000000000075
:1403880000000000000000000000000000000000000000FF62
:14039C00FFFFFFFFFFFFFFFFFFFFFFFFFFFFFFFF7F3F3F1F41
:1403B0001F0F0F0703030101000000000000000000000000ED
:1403C400000000000000000000000000000000000000000025
:1403D800000000000000000000000000000000000000000011
:1403EC00000000FFFFFFFFBFBF9F9F8F8787838381818080A0
:140400008080808080808080808080808080808080808080E8
:140414008080808080808080808080808080808080808080D4
:140428008080808080808080808080808080808080808080C0
:14043C0080808080808080FF0000000000000000404040501D
:140450005050505054D4D4D6F6F6F6FEFEFEFEFEFEFE7E7EB6
:140464007E7E7CFCFCF8F8F8F0F0E0C080000000000000002C
:14047800000000000000000000000000000050545555555578
:14048C0055555555F5FDFFFFF7F7F3F3E1C1C1C1C08181C09E
:1404A000C0C0C0C0C0C08000800000010101010101018181BF
:1404B40041C1C2C6C6FC76FC8C8484040000000015555555CA
:1404C8005555555555575F7FFFFFFFFFFFFFFFFFFFFFFFFF4E
:1404DC00FFFFFFFFFFFFFFFFFF7D0780C0F0FEFEF6FF7F1FD2
:1404F0000101030100000101000000000000000000000000F0
:14050400010105050515151515155557575F5F5F5F7F7F7F6D
:140518007F7F7F7F7F7F1F034160303E3F1F1F0F0F070301FE
:14052C0000000000000000000000000000000000FFDDABFF35
:14054000ABDDABFFABDDAB7F6B3D2B1F1B0D0B0F0B05070771
:140554000705030303030301010101010101010101C1C101EB
:14056800010101010101010101010303030303070705070745
:14057C000B0D0B0F1B1D2B3F6B5DABFFABDDABFFABDDABFFC1
:14059000FFDD2A1F0A05020301000000008080405070E090AD
:1405A40010080808080404040404020202020202020211518D
:1405B800F103F311F101020202020202020204040404040819
:1405CC00080808507038284040808000000000000103060752
:1405E0000A1D6AFFFF000000004020100804020201000000F7
:1405F4000000000000000000000000000000000000000000F3
:140608000000010101000101010000000000000000000000D8
:14061C000000000000000000000000000080808102828488B9
:1406300010200000000000FFFF000000000000021F001F1137
:140644001F0000000000000000000000000000000000000083
:14065800008080808080C040C040C040C080808080800000CE
:14066C0000000000000000000000000000000000000F0A0E53
:14068000000F080F00000000000000FFFF0000000000000042
:1406940000000000000000000000000000000080C020B0083A
:1406A800AC04AA01AB00AA80AAC0EAC0EAC0EAC0EAC0AA80D2
:1406BC00AA00AB01AA04AC08B020C080000000000000000062
:1406D000000000000000000000000000000000FFFF80808098
:1406E4008080808080808080808080808080808080E0BE8163
:1406F800AA80AA80EAF8FEFEFFFFFFFFFFFFFFFFFFFFFFFFC8
:14070C00FFFFFFFFFFFFFFFEFEF8EA80AA80AA81BEE080808F
:1407200080808080808080808080808080808080808080FF46
:14073400000000000000002F00000007000700147F147F143A
:14074800242A7F2A12C4C8102646364955225000050300003E
:14075C00001C2241000041221C0014083E081408083E0808B7
:140770000000503000101010101000606000002010080402A7
:140784003E5149453E00427F400042615149462141454B315F
:140798001814127F1027454545393C4A494930017109050386
:1407AC003649494936064949291E003636000000563600001B
:1407C000081422410014141414140041221408020151090660
:1407D400324959513E7E1111117E7F494949363E41414122CC
:1407E8007F4141221C7F494949417F090909013E4149497AFD
:1407FC007F0808087F00417F41002040413F017F08142241F3
:140810007F404040407F020C027F7F0408107F3E4141413EEE
:140824007F090909063E4151215E7F0919294646494949316F
:1408380001017F01013F4040403F1F2040201F3F4038403FF7
:14084C00631408146307087008076151494543007F41410090
:14086000552A552A550041417F0004020102044040404040E3
:14087400000102040020545454787F4844443838444444202A
:14088800384444487F3854545418087E0901020C5252523EB7
:14089C007F0804047800447D40002040443D007F1028440064
:1408B00000417F40007C041804787C080404783844444438E0
:1408C4007C14141408081414187C7C080404084854545420A4
:1408D800043F4440203C4040207C1C2040201C3C4030403CED
:1408EC0044281028440C5050503C4464544C4400000000004C
:140900000000000000000000000000000000003E00FF0DFF9A
:140914000D3E0000000000000004000700030000000400076B
:140928000003001001FE0FFE0F10011001FE0FFE0F10011C24
:14093C00033E072204FF0FFF0F4204CE078C03000000040669
:1409500007C603F0003C060E0602001E063F0FE109C1094114
:140964000B210C3F1E1E1600000000040007000300000000A8
:1409780000000000000000F801FE07070E010800000000004F
:14098C000000000108070EFE07F801000000002000A800F87B
:1409A0000070007000F800A8002000200020002000FC01FC4A
:1409B40001200020002000000000000020003C001C00000056
:1409C80000000020002000200020002000200020002000001B
:1409DC000000000000000C000C0000000000000000000C00E3
:1409F0000FC003F0003C000F000300FE07FF0F0108010801BD
:140A0400080108FF0FFE07000004080608FF0FFF0F0008007C
:140A1800080000020E030F8109C108610831081F080E0C0268
:140A2C0004030C0108210821082108FF0FDE07E000F00098C4
:140A4000008C008608FF0FFF0F00083F043F0C210821082163
:140A5400082108E10FC107FC07FE0F2308210821082108E00F
:140A68000FC007030003000100810FE10F79001F000700DEA0
:140A7C0007FF0F2108210821082108FF0FDE071E003F082134
:140A90000821082108210CFF07FE030000000000001806188E
:140AA40006000000000000000000000010181E180E000000CC
:140AB8000000004000E000B00118030C06060C020800000010
:140ACC0000A000A000A000A000A000A0000000000002080646
:140AE0000C0C061803B001E0004000020003000100C10DE143
:140AF4000D31001F000E00020003000100C10DE10D31001F71
:140B0800000E00F80FFC0F8600830083008600FC0FF80FFF96
:140B1C000FFF0F2108210821082108FF0FDE07FC03FE07030A
:140B30000C010801080108030C06060108FF0FFF0F01080140
:140B440008030CFE07FC030108FF0FFF0F210821087108038F
:140B58000C030C0108FF0FFF0F21082100710003000300FC8C
:140B6C0003FE07030C010841084108C307C60FFF0FFF0F20E8
:140B800000200020002000FF0FFF0F000001080108FF0FFFC6
:140B94000F0108010800000006000E000800080108FF0FFFF2
:140BA8000701000108FF0FFF0F7000D8008C01070F030E010F
:140BBC0008FF0FFF0F010800080008000C000CFF0FFF0F0CA8
:140BD00000780078000C00FF0FFF0FFF0FFF0F1C0038007019
:140BE40000E000FF0FFF0FFE07FF0F0108010801080108FFCB
:140BF8000FFE070108FF0FFF0F2108210021003F001E00FEEA
:140C0C0007FF0F0108010E011C0138FF2FFE070108FF0FFF08
:140C20000F210821006100FF0F9E0F0E061F0E310821082187
:140C3400086108C70F8607030003000108FF0FFF0F010803A1
:140C4800000300FF07FF0F0008000800080008FF0FFF07FF4E
:140C5C0001FF030006000C000C0006FF03FF01FF01FF0F004D
:140C70000EE003E003000EFF0FFF01070E0F0F9801F000F0D4
:140C84000098010F0F070E0F001F003008E00FE00F30081FF5
:140C9800000F00030F830FC1086108310819080F0C070C00DB
:140CAC00000000FF0FFF0F01080108000000005555AAAA55B3
:140CC00055AAAA5555AAAA5555AAAA0000000001080108FF6A
:140CD4000FFF0F0000000008000C0006000300030006000CBD
:140CE8000008000040004000400040004000400040004000F0
:140CFC0000000008000F0007000000000000000007900F9090
:140D10000890089008F007E00F00080108FF0FFF0710081064
:140D2400083008E00FC007E007F00F1008100810081008304F
:140D38000C2004C007E00F300810081108FF07FF0F0008E05C
:140D4C0007F00F9008900890089008F00CE00400001008FE37
:140D60000FFF0F1108110003000200E027F06F10481048100D
:140D740048E07FF03F10000108FF0FFF0F200010001000F030
:140D88000FE00F000010081008F60FF60F000800080000000F
:140D9C0030006010401040F67FF63F000000000108FF0FFF53
:140DB0000FC000C0016003300E100C000001080108FF0FFFC3
:140DC4000F000800080000F00FF00F3000E007E0073000F0E0
:140DD8000FE00F1000F00FE00F100010001000F00FE00FE00D
:140DEC0007F00F1008100810081008F00FE0071040F07FE008
:140E00007F104810081008F00FE007E007F00F1008100810CB
:140E140048E07FF07F10401000F00FE00F1000100010003006
:140E28000020006004F00C9008900890091009300F200610DF
:140E3C00001000FE07FF0F1008100C00040000F007F00F0051
:140E50000800080008F007F00F0008F001F0030006000C0082
:140E64000C0006F003F001F007F00F000C80078007000CF078
:140E78000FF0071008300C6006C003C0036006300C1008F076
:140E8C0047F04F0048004800480068F03FF01F300C300E10C4
:140EA0000B9009D0087008300C100C4241434B47524F554E56
:140EB40044004F56455200584F5220445241570076657274A2
:140EC8006963616C0061646472657373696E6700686F7269A7
:140EDC007A6F6E74616C00696E766572736500646973706C52
:140EF0006179006E6F726D616C00536D616C6C20466F6E74DB
:140F04000042696720466F6E74006578616D706C6500696E4D
:140F1800746572666163696E670050536F4320616E64204CFE
:140F2C00434400437970726573734D6963726F00CFE5D4E0DF
:140F4000CDBFDEBFC053D0400AEA08830024E0E6F0E011E027
:140F5400E936F10711F00192FBCF0083ECE3FFE0A0E6B0E0CD
:140F68001FE0EC33F10721F0C89531960D92F9CF0E946B16A0
:140F7C00FFCF202E332401502220D9F708950E94C718A801C4
:140F900025E030E08A010E94DE18A8011A01415050402220EE
:140FA400D9F73320C9F70E94CA1808950E94C718A80103C048
:140FB80000E21EE4E6DF1A01415050402220C1F73320B1F74B
:140FCC000E94CA1808950895089508950895089508950895A5
:140FE0000895089508950895089508950895089508950895DB
:140FF40008950895089508950895089508950895089587B32A
:14100800806B87BB88B38F7488BB83E58DB901FD6B9A02FD76
:14101C006A9A07FD6D9A089508950895089508950895089566
:1410300008950895089508950895089508950895089508958A
:14104400089508950895089508950895089508950895089576
:14105800089508952224209268002092670020926500209208
:14106C00660008950FB908950895089508950895089508955A
:141080000895089589E690E0E0916700FF27E80FF91F0083B3
:14109400809167008F5F8F7F809367002090660082198F7F9B
:1410A80080936800089500916600802F8F5F8F7F8093660001
:1410BC00282E8091670082198F7F8093680089E690E0E02F40
:1410D000FF27E80FF91F0081089500916500802F8F5F8F7F18
:1410E4008093650089E690E0E02FFF27E80FF91F008108953F
:1410F800209066008091670082198F7F80936800082F08955E
:14110C00209065000091670002190F7F08950E94C718A80152
:1411200004E110E045DFDC9A00276DDF0AE010E03FDF0CE0F5
:141134000E945F1600E20E945F1622242092600000E40E94B9
:141148005F1600E80E945F16509364004093630044275527BB
:14115C002090630030906400FA01E20DF31D04910E945316AE
:141170004F5F5F4F483FE1E05E0784F322243324309262002A
:14118400209261000E94CA1808951093640000936300089589
:141198000E94C718402F01E20E945F1600E80E945F1600E278
:1411AC000E945F160E94CA1808950E94C71800E40E945F167B
:1411C00000E80E945F16442755272090630030906400FA0103
:1411D400E20DF31D04910E9453164F5F5F4F483FE1E05E075F
:1411E80084F300E40E945F1600E80E945F160E94CA18089561
:1411FC000E94C518622F402F062F00640E945F16042F006815
:141210000E945F1684E5869F1001442E5524240C351C3092E6
:141224006200209261000E94B31808950E94C318A22E602F5B
:14123800AA2059F54427552785E0869F100184E996E0280EEF
:14124C00391EFA01E20DF31D04912090630030906400E09100
:141260006100F0916200E20DF31DE4910E2B0E9453164F5FD0
:141274005F4F80916100909162000196909362008093610033
:141288004530E0E05E07C4F243C08A2D813059F54427552762
:14129C0085E0869F100184E996E0280E391EFA01E20DF31D39
:1412B00004912090630030906400E0916100F0916200E20DBA
:1412C400F31DE4910E270E9453164F5F5F4F80916100909162
:1412D8006200019690936200809361004530E0E05E07C4F2C0
:1412EC0015C0442755272090630030906400E0916100F091A8
:141300006200E20DF31D04910E9453164F5F5F4F4530E0E047
:141314005E076CF32090630030906400E0916100F091620015
:14132800E20DF31D04910E9453160E94B61808950E94BF188C
:14133C00E22EC02E6A85AC840E2D00640E945F160C2D006829
:141350000E945F1684E58E9D10014C2C5524240C351C309299
:14136400620020926100AA2081F54427552780E1869F100142
:141378008BEF96E0280E391E02E010E09A010E94A318F80121
:14138C00E20DF31D04912090630030906400E0916100F0912F
:1413A0006200E20DF31DE4910E2B0E9453164F5F5F4F8091B2
:1413B400610090916200019690936200809361004A30E0E077
:1413C8005E079CF251C08A2D813081F54427552780E1869FC2
:1413DC0010018BEF96E0280E391E02E010E09A010E94A318A5
:1413F000F801E20DF31D04912090630030906400E091610053
:14140400F0916200E20DF31DE4910E270E9453164F5F5F4FE1
:141418008091610090916200019690936200809361004A30C1
:14142C00E0E05E079CF21EC0442755272090630030906400FD
:14144000E0916100F0916200E20DF31D04910E9453164F5F96
:141454005F4F80916100909162000196909362008093610051
:141468004A30E0E05E0724F30E2D0F5F00640E945F160C2D5D
:14147C0000680E945F1684E58E9DC0018C5A9F4F2C2C332405
:14149000820D931D9093620080936100AA2089F544275527E1
:1414A40080E1869F10018BEF96E0280E391E02E010E09A01B3
:1414B8000E94A318F801E20DF31D319604912090630030909C
:1414CC006400E0916100F0916200E20DF31DE4910E2B0E94A4
:1414E00053164F5F5F4F809161009091620001969093620022
:1414F400809361004A30E0E05E0794F252C08A2D813089F553
:141508004427552780E1869F10018BEF96E0280E391E02E0F2
:14151C0010E09A010E94A318F801E20DF31D319604912090CF
:14153000630030906400E0916100F0916200E20DF31DE491F7
:141544000E270E9453164F5F5F4F809161009091620001966B
:1415580090936200809361004A30E0E05E0794F21EC0442718
:14156C0055272090630030906400E0916100F0916200E20D14
:14158000F31D04910E9453164F5F5F4F809161009091620056
:14159400019690936200809361004A30E0E05E0724F30E945B
:1415A800BC1808950E94C118622FA80195C0FA01C190AF01B8
:1415BC00662369F5AA24BB2485E08C9D100184E996E0280ECF
:1415D000391EF501E20DF31D04912090630030906400E0917E
:1415E4006100F0916200E20DF31DE4910E2B0E945316C50131
:1415F80001965C0180916100909162000196909362008093C7
:14160C006100C5018530E0E09E07B4F24FC0613069F5AA2417
:14162000BB2485E08C9D100184E996E0280E391EF501E20DE3
:14163400F31D04912090630030906400E0916100F091620011
:14164800E20DF31DE4910E270E945316C50101965C0180910F
:14165C0061009091620001969093620080936100C50185308B
:14167000E0E09E07B4F220C0AA24BB24209063003090640097
:14168400E0916100F0916200E20DF31D04910E945316C50138
:1416980001965C018091610090916200019690936200809326
:1416AC006100C5018530E0E09E0714F32090610030906200AF
:1416C000C1010196909362008093610040906300509064004D
:1416D400F101E40DF51D04910E945316FA012080222009F097
:1416E80066CF0E94B91808950E94C118622FA80197C01A0182
:1416FC004F5F5F4FF101C490662369F5AA24BB2485E08C9D16
:14171000100184E996E0280E391EF501E20DF31D049120900A
:14172400630030906400E0916100F0916200E20DF31DE49101
:141738000E2B0E945316C50101965C018091610090916200AA
:14174C0001969093620080936100C5018530E0E09E07B4F273
:141760004FC0613069F5AA24BB2485E08C9D100184E996E048
:14177400280E391EF501E20DF31D0491209063003090640013
:14178800E0916100F0916200E20DF31DE4910E270E945316E4
:14179C00C50101965C0180916100909162000196909362006E
:1417B00080936100C5018530E0E09E07B4F220C0AA24BB249E
:1417C4002090630030906400E0916100F0916200E20DF31D26
:1417D80004910E945316C50101965C018091610090916200AE
:1417EC0001969093620080936100C5018530E0E09E0714F372
:141800002090610030906200C101019690936200809361004F
:141814004090630050906400F101E40DF51D04910E945316B4
:14182800FA01E491EE2309F064CF0E94B91808950E949E1897
:14183C000E94BF18CE84DF84A888A6010C8500640E945F1687
:141850000A8500680E945F1684E50C84809D10014A84552408
:14186400240C351C309262002092610093C0FA01E190AF0149
:14187800AA2081F56627772780E18E9D10018BEF96E0280E2E
:14188C00391E02E010E09B010E94A318F801E20DF31D049199
:1418A0002090630030906400E0916100F0916200E20DF31D49
:1418B400E4910E2B0E9453166F5F7F4F8091610090916200D6
:1418C800019690936200809361006830E0E07E079CF251C000
:1418DC008A2D813081F56627772780E18E9D10018BEF96E062
:1418F000280E391E02E010E09B010E94A318F801E20DF31D94
:1419040004912090630030906400E0916100F0916200E20D5F
:14191800F31DE4910E270E9453166F5F7F4F809161009091C7
:14192C006200019690936200809361006830E0E07E079CF24A
:141940001EC0662777272090630030906400E0916100F09100
:141954006200E20DF31D04910E9453166F5F7F4F8091610070
:1419680090916200019690936200809361006830E0E07E077B
:14197C0024F32090630030906400E0916100F0916200E20D65
:14199000F31D04910E945316FA012080222009F068CFA601DF
:1419A4000C850F5F00640E945F160A8500680E945F1684E53E
:1419B8000C84809DC0018C5A9F4F2A843324820D931D909372
:1419CC0062008093610095C0FA01E190AF01AA2089F56627EB
:1419E000772780E18E9D10018BEF96E0280E391E02E010E069
:1419F4009B010E94A318F801E20DF31D31960491209063007F
:141A080030906400E0916100F0916200E20DF31DE4910E2B44
:141A1C000E9453166F5F7F4F80916100909162000196909360
:141A30006200809361006830E0E07E0794F252C08A2D8130EF
:141A440089F56627772780E18E9D10018BEF96E0280E391ECB
:141A580002E010E09B010E94A318F801E20DF31D319604915B
:141A6C002090630030906400E0916100F0916200E20DF31D7B
:141A8000E4910E270E9453166F5F7F4F80916100909162000C
:141A9400019690936200809361006830E0E07E0794F21EC06D
:141AA800662777272090630030906400E0916100F091620013
:141ABC00E20DF31D04910E9453166F5F7F4F80916100909148
:141AD0006200019690936200809361006830E0E07E0724F31C
:141AE4002090630030906400E0916100F0916200E20DF31D03
:141AF80004910E945316FA012080222009F066CF0E94BC18B9
:141B0C00249608950E949E180E94BF18CE84DF84A888A60111
:141B20000C8500640E945F160A8500680E945F1684E50C849E
:141B3400809D10014A845524240C351C309262002092610070
:141B48009CC01A014F5F5F4FF101E490AA2081F566277727E5
:141B5C0080E18E9D10018BEF96E0280E391E02E010E09B01ED
:141B70000E94A318F801E20DF31D0491209063003090640040
:141B8400E0916100F0916200E20DF31DE4910E2B0E945316E0
:141B98006F5F7F4F8091610090916200019690936200809379
:141BAC0061006830E0E07E079CF251C08A2D813081F56627DD
:141BC000772780E18E9D10018BEF96E0280E391E02E010E087
:141BD4009B010E94A318F801E20DF31D0491209063003090A4
:141BE8006400E0916100F0916200E20DF31DE4910E270E9485
:141BFC0053166F5F7F4F8091610090916200019690936200BF
:141C1000809361006830E0E07E079CF21EC066277727209028
:141C2400630030906400E0916100F0916200E20DF31D0491DC
:141C38000E9453166F5F7F4F80916100909162000196909342
:141C4C006200809361006830E0E07E0724F3209061003090E9
:141C60006200C10101969093620080936100409063005090A9
:141C74006400F101E40DF51D04910E945316FA01E491EE23E2
:141C880009F05FCFA6010C850F5F00640E945F160A85006809
:141C9C000E945F1684E50C84809DC0018C5A9F4F2A8433246D
:141CB000820D931D90936200809361009AC01A014F5F5F4F17
:141CC400F101E490AA2081F56627772780E18E9D10018BEF24
:141CD80096E0280E391E02E010E09B010E94A318F801E20D42
:141CEC00F31D319604912090630030906400E0916100F091EE
:141D00006200E20DF31DE4910E2BCDD76F5F7F4F809161000E
:141D140090916200019690936200809361006830E0E07E07CB
:141D28009CF250C08A2D813081F56627772780E18E9D100163
:141D3C008BEF96E0280E391E02E010E09B010E94A318F80152
:141D5000E20DF31D319604912090630030906400E09161001B
:141D6400F0916200E20DF31DE4910E279AD76F5F7F4F8091C1
:141D7800610090916200019690936200809361006830E0E08B
:141D8C007E079CF21DC0662777272090630030906400E09180
:141DA0006100F0916200E20DF31D04917CD76F5F7F4F809157
:141DB400610090916200019690936200809361006830E0E04F
:141DC8007E072CF32090610030906200C10101969093620052
:141DDC00809361004090630050906400F101E40DF51D04917E
:141DF0005AD7FA01E491EE2309F061CF0E94BC182496089537
:141E04000E949E180E94BF184E85A888EA88FB8820906000F1
:141E1800222059F56627772722C00C851127060F171F0064A1
:141E2C0048D70A85006845D7CC24DD240FC0242F33278B0177
:141E40000E94A318F801EC0DFD1DEE0DFF1D04912AD7C601B1
:141E540001966C01242E3324C214D30464F36F5F7F4F2A2CD7
:141E6800332462157305CCF22AC0CC24DD2422C00A851127DE
:141E7C000C0D1D1D00681DD70C8500641AD7662777270EC0C4
:141E9000242F33278B010E94A318F801EC0DFD1DEE0DFF1D85
:141EA4000491FFD66F5F7F4F2A2C3324621573056CF3C60162
:141EB80001966C01242E3324C214D304CCF22C842A0C84E5AF
:141ECC00829D10014A845524240C351C442E5524240C351C9E
:141EE00030926200209261000E94BC18249608950E949E1892
:141EF4000E94BF182297AC8808890064DED60C850068DBD621
:141F080084E50888809D10014C845524240C351C30926200B0
:141F1C0020926100AA2019F40FEFBFD62FC08A2D8130C9F420
:141F30002090610030906200C1010196909362008093610018
:141F44004090630050906400F101E40DF51D049111278FEFD2
:141F580090E008271927A3D613C02090610030906200C10155
:141F6C00019690936200809361004090630050906400F10168
:141F8000E40DF51D04918FD6662775C04A8955274030450783
:141F9400E9F04130E0E05E07E1F04230E0E05E07D9F0433026
:141FA800E0E05E07D1F04430E0E05E07C9F04530E0E05E0753
:141FBC00C1F04630E0E05E07B9F04730E0E05E07B1F018C007
:141FD00080E8C82E17C080E8C82E14C080ECC82E11C080EEF5
:141FE400C82E0EC080EFC82E0BC088EFC82E08C08CEFC82E4F
:141FF80005C08EEFC82E02C08FEFC82EAA2079F4209063001D
:14200C0030906400E0916100F0916200E20DF31DE4910C2D3A
:142020000E2B41D61EC08A2D813079F4209063003090640072
:14203400E0916100F0916200E20DF31DE4910C2D0E272FD6FC
:142048000CC02090630030906400E0916100F0916200E20DDD
:14205C00F31D049122D663958091610090916200019690932C
:14207000620080936100663008F488CFAA2019F40FEF11D6E1
:142084002FC08A2D8130C9F42090610030906200C1010196A8
:1420980090936200809361004090630050906400F101E40DE1
:1420AC00F51D049111278FEF90E008271927F5D513C0209097
:1420C000610030906200C10101969093620080936100409067
:1420D400630050906400F101E40DF51D0491E1D5888981502F
:1420E800E82EFDC088E00A88801520F4802D88508A8B02C012
:1420FC0000240A8A0E2D0064DCD50C850068D9D584E58E9D8D
:1421100010014C845524240C351C3092620020926100AA20DF
:1421240019F40FEFBED52FC08A2D8130C9F420906100309024
:142138006200C10101969093620080936100409063005090CC
:14214C006400F101E40DF51D049111278FEF90E008271927FC
:14216000A2D513C02090610030906200C10101969093620010
:14217400809361004090630050906400F101E40DF51D0491E2
:142188008ED5662774C04A89552740304507E9F04130E0E00A
:14219C005E07D9F04230E0E05E07D1F04330E0E05E07C9F058
:1421B0004430E0E05E07C1F04530E0E05E07B9F04630E0E058
:1421C4005E07B1F04730E0E05E07A9F017C0CC2417C080E8C6
:1421D800C82E14C080ECC82E11C080EEC82E0EC080EFC82E5F
:1421EC000BC088EFC82E08C08CEFC82E05C08EEFC82E02C074
:142200008FEFC82EAA2079F42090630030906400E091610016
:14221400F0916200E20DF31DE4910C2D0E2B41D51EC08A2D42
:14222800813079F42090630030906400E0916100F091620098
:14223C00E20DF31DE4910C2D0E272FD50CC020906300309009
:142250006400E0916100F0916200E20DF31D049122D56395DE
:1422640080916100909162000196909362008093610066304B
:1422780008F489CFAA2019F40FEF11D52FC08A2D8130C9F42F
:14228C002090610030906200C10101969093620080936100B9
:1422A0004090630050906400F101E40DF51D049111278FEF73
:1422B40090E008271927F5D413C02090610030906200C101A6
:1422C800019690936200809361004090630050906400F10109
:1422DC00E40DF51D0491E1D4EA940E840E1408F4FFCE88E03E
:1422F0000A88801520F4802D88508A8B02C000240A8A0E85F8
:142304000064DBD40C850068D8D484E50E84809D10014C8414
:142318005524240C351C3092620020926100AA2019F40FEFAB
:14232C00BCD42FC08A2D8130C9F42090610030906200C10104
:14234000019690936200809361004090630050906400F10190
:14235400E40DF51D049111278FEF90E008271927A0D413C001
:142368002090610030906200C10101969093620080936100DC
:14237C004090630050906400F101E40DF51D04918CD466275F
:142390007AC02A88332439822882222011F43320F9F0888105
:1423A40099818130E0E09E07E1F08230E0E09E07D9F0833091
:1423B800E0E09E07D1F08430E0E09E07C9F08530E0E09E07FF
:1423CC00C1F08630E0E09E07B9F08730E0E09E07B1F018C0F3
:1423E000CC24C39417C081E8C82E14C081ECC82E11C081EEF5
:1423F400C82E0EC081EFC82E0BC089EFC82E08C08DEFC82E38
:1424080005C08FEFC82E02C08FEFC82EAA2079F42090630007
:14241C0030906400E0916100F0916200E20DF31DE4910C2D26
:142430000E2B39D41EC08A2D813079F4209063003090640068
:14244400E0916100F0916200E20DF31DE4910C2D0E2727D4F2
:142458000CC02090630030906400E0916100F0916200E20DC9
:14246C00F31D04911AD4639580916100909162000196909322
:14248000620080936100663008F483CFAA2019F40FEF09D4DC
:142494002FC08A2D8130C9F42090610030906200C101019694
:1424A80090936200809361004090630050906400F101E40DCD
:1424BC00F51D049111278FEF90E008271927EDD313C020908D
:1424D000610030906200C10101969093620080936100409053
:1424E400630050906400F101E40DF51D0491D9D322960E94AD
:1424F800BC18249608950E94BF18E22E402FCA84AC846E853C
:14250C00042F0064D6D30E2D0068D3D384E5849F10014E2C1B
:142520005524240C351C3092620020926100662389F4C101AE
:14253400019690936200809361004090630050906400F1019A
:14254800E40DF51D04910E67AAD32BC06130B1F420906100C3
:14255C0030906200C1010196909362008093610040906300C4
:1425700050906400F101E40DF51D04918EE7082792D313C0AD
:142584002090610030906200C10101969093620080936100BE
:142598004090630050906400F101E40DF51D04917ED341E0BC
:1425AC0050E038C0662371F42090630030906400E0916100FC
:1425C000F0916200E20DF31D04910E676CD31DC0613079F401
:1425D4002090630030906400E0916100F0916200E20DF31D08
:1425E80004918EE708275BD30CC02090630030906400E09104
:1425FC006100F0916200E20DF31D04914ED34F5F5F4F809165
:14261000610090916200019690936200809361002A2C332495
:14262400421553050CF4C2CF422D55274F5F5F4F38C066239A
:1426380071F42090630030906400E0916100F0916200E20D4E
:14264C00F31D0491026429D31DC0613079F4209063003090C5
:142660006400E0916100F0916200E20DF31D049182E4082724
:1426740018D30CC02090630030906400E0916100F0916200AF
:14268800E20DF31D04910BD34F5F5F4F80916100909162007B
:14269C00019690936200809361002E2C33244C2C552442189E
:1426B0005308441555050CF4BECF6623A9F420906100309084
:1426C4006200C101019690936200809361004090630050903B
:1426D8006400F101E40DF51D04910E67E0D22BC06130B1F4B8
:1426EC002090610030906200C1010196909362008093610055
:142700004090630050906400F101E40DF51D04918EE7082720
:14271400C8D213C02090610030906200C10101969093620033
:14272800809361004090630050906400F101E40DF51D049128
:14273C00B4D20E94BC1808950E949E180E94BF182A972E88A8
:1427500033244A8C552442185308598648862C883324E88CEE
:14276400FF24E218F308C2018030E0E09E075CF480959095E7
:142778008F5F9F4F998788878FEF9FEF9B838A8304C081E0E6
:14278C0090E09B838A83C7018030E0E09E0754F4809590953F
:1427A0008F5F9F4F7C018FEF9FEF9983888304C081E090E004
:1427B40099838883EE0CFF1C08841984000C111C1986088646
:1427C800AC88CE88C694C694C6948E899927877090709D8377
:1427DC008C8380308907D9F08C819D818130E0E09E07B9F0E7
:1427F0008230E0E09E07A9F08330E0E09E0799F08430E0E010
:142804009E0789F08530E0E09E0779F08630E0E09E0769F0AB
:142818000EC041E00DC042E00BC044E009C048E007C040E106
:14282C0005C040E203C040E401C040E8088419840E141F0473
:142840000CF0EDC0170135942794B00162197309E0C0603067
:14285400E0E07E074CF02A803B804E885524420C531C4E8AA6
:142868006E197F09288039804C885524420C531C4C8A088480
:14287C001984600D711D042CA41439F42E88269426942694B7
:14289000C21409F48BC00C2D006411D20A2D00680ED284E5AE
:1428A4008C9D10014A2C5524240C351C30926200209261003F
:1428B8000C8C002091F4C101019690936200809361004090AD
:1428CC00630050906400F101E40DF51DE491042F0E2BE3D1C7
:1428E0002CC08C8D8130B1F42090610030906200C1010196FD
:1428F40090936200809361004090630050906400F101E40D7D
:14290800F51DE491042F0E27CAD113C020906100309062002B
:14291C00C101019690936200809361004090630050906400DE
:14293000F101E40DF51D0491B6D1AC88CE88C694C694C694EA
:142944008E899927877090709F838E8380308907D9F08E8166
:142958009F818130E0E09E07B9F08230E0E09E07A9F0833029
:14296C00E0E09E0799F08430E0E09E0789F08530E0E09E07BD
:1429800079F08630E0E09E0769F00EC041E041C042E03FC055
:1429940044E03DC048E03BC040E139C040E237C040E435C09F
:1429A80040E833C08E899927877090709F838E8380308907BF
:1429BC00D9F08E819F818130E0E09E07B9F08230E0E09E0739
:1429D000A9F08330E0E09E0799F08430E0E09E0789F0853072
:1429E400E0E09E0779F08630E0E09E0769F00EC041600DC061
:1429F80042600BC0446009C0486007C0406105C0406203C0B7
:142A0C00406401C040680C88088D001609F01BCFEDC028842E
:142A2000398435942794B70162197309E0C06030E0E07E073D
:142A34005CF0288039804C885524420C531C4C8A08841984D8
:142A4800601971092A803B804E885524420C531C4E8A6E0DC3
:142A5C007F1D0C88A01439F4242C269426942694C21409F404
:142A70008BC00C2D006423D10A2D006820D184E58C9D100143
:142A84004A2C5524240C351C30926200209261000C8C0020DF
:142A980091F4C1010196909362008093610040906300509040
:142AAC006400F101E40DF51DE491042F0E2BF5D02CC08C8D12
:142AC0008130B1F42090610030906200C1010196909362009B
:142AD400809361004090630050906400F101E40DF51DE49199
:142AE800042F0E27DCD013C02090610030906200C101019667
:142AFC0090936200809361004090630050906400F101E40D73
:142B1000F51D0491C8D0AC88CE88C694C694C6948E89992703
:142B2400877090709F838E8380308907D9F08E819F8181308A
:142B3800E0E09E07B9F08230E0E09E07A9F08330E0E09E07B3
:142B4C0099F08430E0E09E0789F08530E0E09E0779F0863021
:142B6000E0E09E0769F00EC041E041C042E03FC044E03DC071
:142B740048E03BC040E139C040E237C040E435C040E833C0C3
:142B88008E899927877090709F838E8380308907D9F08E8120
:142B9C009F818130E0E09E07B9F08230E0E09E07A9F08330E3
:142BB000E0E09E0799F08430E0E09E0789F08530E0E09E0777
:142BC40079F08630E0E09E0769F00EC041600DC042600BC077
:142BD800446009C0486007C0406105C0406203C0406401C0DD
:142BEC0040680E880A8D001609F01BCF0C2D006460D00A2D03
:142C000000685DD084E58C9D10014A2C5524240C351C309256
:142C14006200209261000C8C002091F4C1010196909362001C
:142C2800809361004090630050906400F101E40DF51DE49143
:142C3C00042F0E2B32D02CC08C8D8130B1F4209061003090EA
:142C50006200C10101969093620080936100409063005090A9
:142C64006400F101E40DF51DE491042F0E2719D013C02090BA
:142C7800610030906200C101019690936200809361004090A3
:142C8C00630050906400F101E40DF51D049105D02A960E94CC
:142CA000BC18249608950E94C718402FDF9A042F0E94380877
:142CB400779BFECF0E94CA1808950E94C718402FDF98042F72
:142CC8000E943808779BFECF0E94CA1808952697F894222487
:142CDC002BBA2ABA28BA27BA25BA24BA22BA21BA25BE2BBE18
:142CF000D79AD49ADF98DC98789404E510E00E948D0804EFF7
:142D040011E00E94D80721E005E00E94FE0822270FE21FE082
:142D18000E94780B22E005E00E94FE08222702E21FE00E9425
:142D2C00780B23E008E00E94FE08222706E11FE00E94780B29
:142D400024E004E10E94FE0822270EE01FE00E94780B08EE9D
:142D540013E00E94D8070E94DB0822242A8285E09FE0998380
:142D6800888321E005E00E94880D24E005E00E94FE08222755
:142D7C000AEF1EE00E94780B08EE13E00E94D8070E94DB0838
:142D900084E494E09D838C8384E08A838EE3888321E00BE04B
:142DA4002FD824E005E00E94FE08222703EF1EE00E94780B25
:142DB80025E005E00E94FE0822270BEE1EE00E94780B08EE1A
:142DCC0013E00E94D8070DE074DF0E94DB0884E494E09D83BE
:142DE0008C8384E08A838EE3888321E00BE00AD824E005E02C
:142DF4000E94FE08222703EE1EE00E94780B25E005E00E943A
:142E0800FE0822270BEE1EE00E94780B08EE13E00E94D807E1
:142E1C000CE04FDF0E94DB0884E494E09D838C8384E08A8387
:142E30008EE3888321E00BE00E94020F24E005E00E94FE08E2
:142E4400222708ED1EE00E94780B25E005E00E94FE0822273E
:142E58000DEC1EE00E94780B08EE13E00E94D8070E94DB085B
:142E6C0002E227DF81E08093600084E494E09D838C8384E025
:142E80008A838EE3888321E00BE00E94020F00E216DF2224F9
:142E94002092600024E005E00E94FE08222704EC1EE00E94AE
:142EA800780B25E005E00E94FE0822270DEC1EE00E94780B9C
:142EBC0008EE13E00E94D8070CE412E00E94C7080E94DB08C0
:142ED00081E08A838BEB9EE09983888321E005E00E94880D48
:142EE40023E00EE10E94FE0821E006EB1EE00E94780B24E027
:142EF8000CE00E94FE0821E00BEA1EE00E94780B08EE13E030
:142F0C000E94D80704E510E00E94C7080E94DB0821E004E07C
:142F20000E94FE08222706E50E94180923E004E00E94FE086F
:142F3400222709E40E9418094427552722242C824A838FE475
:142F480088832FE001E0D7DA6627772722242C826A838FE44A
:142F5C0088832FE003E0CDDAAA24BB24C50101965C018A3498
:142F7000E0E09E07CCF36F5F7F4F6033E0E07E074CF34F5FC8
:142F84005F4F4830E0E05E07CCF20E94DB0821E00AE00E941E
:142F9800FE08222706E50E94180921E00EE10E94FE08222747
:142FAC0009E40E9418094427552722242C824A8384E088834A
:142FC00022E00AE00E94780F6627772722242C826A8384E078
:142FD400888322E00EE10E94780FAA24BB24C50101965C015D
:142FE800843EE2E09E07CCF36F5F7F4F6431E0E07E0744F340
:142FFC004F5F5F4F4430E0E05E07BCF20AEF10E00E94D807B4
:143010000CE315E00E94C7080E94DB084427552722242C82F7
:143024008DE28A838AE288832FE006E089DB09E110E00E94D0
:14303800D80782E08C838DE28A838AE288832FE006E07CDBF5
:14304C0022242C828DE28A838AE288832EE007E073DB09E15C
:1430600010E00E94D80782E08C838DE28A838AE288832EE079
:1430740007E066DB22242C828DE28A838AE288832EE009E042
:143088005DDB09E110E00E94D80782E08C838DE28A838AE248
:14309C0088832EE009E050DB22242C828DE28A838AE288830C
:1430B0002CE00AE047DB09E110E00E94D80782E08C838DE2B9
:1430C4008A838AE288832CE00AE03ADB22242C828DE28A83F9
:1430D8008AE2888326E00AE131DB09E110E00E94D80782E0B3
:1430EC008C838DE28A838AE2888326E00AE124DB22242C82EA
:143100008DE28A838AE2888324E00BE21BDB09E110E00E9465
:14311400D80782E08C838DE28A838AE2888324E00BE20EDB8A
:143128004F5F5F4F4031E0E05E070CF475CFFFCF2696089536
:14313C003A932A931A930A9308950A921A928A939A93029FDB
:14315000C001129F900D039F900D8C0199918991199009900A
:143164000895E2E00C94CB18E4E00C94CB18E8E00C94CB18E3
:14317800EE270C94CB18FA92EA92DA92CA92BA92AA927A9346
:14318C006A935A934A930895E1E049915991E0FD08956991D2
:1431A0007991E1FD0895A990B990E2FD0895C990D990E3FDF6
:1431B4000895E990F9900895222321F0169507952A95FACFA6
:0231C800089568
:00000001FF
