MPLINK 4.14, Linker
Linker Map File - Created Wed Jul 23 16:13:18 2008

                                 Section Info
                  Section       Type    Address   Location Size(Bytes)
                ---------  ---------  ---------  ---------  ---------
               _entry_scn       code   0x000000    program   0x000006
              high_vector       code   0x000008    program   0x000006
                   .cinit    romdata   0x00002a    program   0x000032
             .code_main.o       code   0x00005c    program   0x0017a8
             .code_test.o       code   0x001804    program   0x00109e
         .code_vfprintf.o       code   0x0028a2    program   0x000c22
              .code_mmc.o       code   0x0034c4    program   0x000790
              .code_lcd.o       code   0x003c54    program   0x000502
       .code_usbctrltrf.o       code   0x004156    program   0x000364
             .code_usb9.o       code   0x0044ba    program   0x00030a
             .code_user.o       code   0x0047c4    program   0x00023a
           .code_usbdrv.o       code   0x0049fe    program   0x0001d8
           .romdata_lcd.o    romdata   0x004bd6    program   0x0001d6
             .stringtable    romdata   0x004dac    program   0x0001bc
           .code_usbgen.o       code   0x004f68    program   0x000120
                   STRING       code   0x005088    program   0x0000f0
        .romdata_usbdsc.o    romdata   0x005178    program   0x0000b8
          .code_sprintf.o       code   0x005230    program   0x0000ac
               _cinit_scn       code   0x0052dc    program   0x00009e
                     PROG       code   0x00537a    program   0x000096
             .code_putc.o       code   0x005410    program   0x000084
          .code_fxm3232.o       code   0x005494    program   0x000070
         .code_fxd3232u.o       code   0x005504    program   0x000048
         .code_fxd1616u.o       code   0x00554c    program   0x00002c
                    CTYPE       code   0x005578    program   0x000024
             _startup_scn       code   0x00559c    program   0x00001c
                    STDIO       code   0x0055b8    program   0x00001c
      .romdata_vfprintf.o    romdata   0x0055d4    program   0x000011
      .romdata_fxd1616u.o    romdata   0x0055e5    program   0x000000
        .idata___init.o_i    romdata   0x0055e5    program   0x000000
      .idata_fxd1616u.o_i    romdata   0x0055e5    program   0x000000
        .romdata___init.o    romdata   0x0055e5    program   0x000000
          .romdata_test.o    romdata   0x0055e5    program   0x000000
       .idata_sprintf.o_i    romdata   0x0055e5    program   0x000000
       .romdata_sprintf.o    romdata   0x0055e5    program   0x000000
      .idata_vfprintf.o_i    romdata   0x0055e5    program   0x000000
      .idata_fxd3232u.o_i    romdata   0x0055e5    program   0x000000
      .romdata_fxd3232u.o    romdata   0x0055e5    program   0x000000
       .idata_fxm3232.o_i    romdata   0x0055e5    program   0x000000
       .romdata_fxm3232.o    romdata   0x0055e5    program   0x000000
          .idata_putc.o_i    romdata   0x0055e5    program   0x000000
          .romdata_putc.o    romdata   0x0055e5    program   0x000000
    .idata__user_putc.o_i    romdata   0x0055e5    program   0x000000
    .romdata__user_putc.o    romdata   0x0055e5    program   0x000000
        .idata_usbdsc.o_i    romdata   0x0055e5    program   0x000000
          .romdata_main.o    romdata   0x0055e5    program   0x000000
        .idata_usbgen.o_i    romdata   0x0055e5    program   0x000000
        .romdata_usbgen.o    romdata   0x0055e5    program   0x000000
          .idata_usb9.o_i    romdata   0x0055e5    program   0x000000
          .romdata_usb9.o    romdata   0x0055e5    program   0x000000
    .idata_usbctrltrf.o_i    romdata   0x0055e5    program   0x000000
    .romdata_usbctrltrf.o    romdata   0x0055e5    program   0x000000
           .idata_lcd.o_i    romdata   0x0055e5    program   0x000000
        .idata_usbdrv.o_i    romdata   0x0055e5    program   0x000000
        .romdata_usbdrv.o    romdata   0x0055e5    program   0x000000
       .idata_usbmmap.o_i    romdata   0x0055e5    program   0x000000
       .romdata_usbmmap.o    romdata   0x0055e5    program   0x000000
           .romdata_mmc.o    romdata   0x0055e5    program   0x000000
         .romdata_c018i.o    romdata   0x0055e5    program   0x000000
          .romdata_user.o    romdata   0x0055e5    program   0x000000
         .idata_c018i.o_i    romdata   0x0055e5    program   0x000000
            .code_c018i.o       code   0x0055e6    program   0x000000
           .code_usbdsc.o       code   0x0055e6    program   0x000000
          .code_usbmmap.o       code   0x0055e6    program   0x000000
                    .code       code   0x0055e6    program   0x00000e
       .code__user_putc.o       code   0x0055f4    program   0x000002
           .code___init.o       code   0x0055f6    program   0x000002
          .idata_user.o_i    romdata   0x0055f8    program   0x00004e
          .idata_test.o_i    romdata   0x005646    program   0x00000e
           .idata_mmc.o_i    romdata   0x005654    program   0x000080
          .idata_main.o_i    romdata   0x0056d4    program   0x0000dd
     .config_1fff8_main.o    romdata   0x01fff8    program   0x000001
     .config_1fff9_main.o    romdata   0x01fff9    program   0x000001
     .config_1fffa_main.o    romdata   0x01fffa    program   0x000001
     .config_1fffb_main.o    romdata   0x01fffb    program   0x000001
     .config_1fffd_main.o    romdata   0x01fffd    program   0x000001
                MATH_DATA      udata   0x000000       data   0x000014
                 .tmpdata      udata   0x000014       data   0x000007
             .udata_lcd.o      udata   0x000060       data   0x0000a0
            .udata_main.o      udata   0x000100       data   0x0000a4
            .udata_test.o      udata   0x0001a4       data   0x00005a
          .udata_usbgen.o      udata   0x0001fe       data   0x000001
          .idata_usbdrv.o      idata   0x0001ff       data   0x000000
         .udata_fxm3232.o      udata   0x0001ff       data   0x000000
         .idata_usbmmap.o      idata   0x0001ff       data   0x000000
        .idata_fxd3232u.o      idata   0x0001ff       data   0x000000
        .udata_fxd3232u.o      udata   0x0001ff       data   0x000000
        .idata_vfprintf.o      idata   0x0001ff       data   0x000000
        .udata_vfprintf.o      udata   0x0001ff       data   0x000000
         .idata_sprintf.o      idata   0x0001ff       data   0x000000
         .udata_sprintf.o      udata   0x0001ff       data   0x000000
        .udata_fxd1616u.o      udata   0x0001ff       data   0x000000
        .idata_fxd1616u.o      idata   0x0001ff       data   0x000000
          .udata___init.o      udata   0x0001ff       data   0x000000
          .idata___init.o      idata   0x0001ff       data   0x000000
         .idata_fxm3232.o      idata   0x0001ff       data   0x000000
      .idata_usbctrltrf.o      idata   0x0001ff       data   0x000000
            .udata_putc.o      udata   0x0001ff       data   0x000000
            .idata_usb9.o      idata   0x0001ff       data   0x000000
            .udata_usb9.o      udata   0x0001ff       data   0x000000
          .idata_usbgen.o      idata   0x0001ff       data   0x000000
          .idata_usbdsc.o      idata   0x0001ff       data   0x000000
          .udata_usbdsc.o      udata   0x0001ff       data   0x000000
            .idata_putc.o      idata   0x0001ff       data   0x000000
             .idata_lcd.o      idata   0x0001ff       data   0x000000
      .udata__user_putc.o      udata   0x0001ff       data   0x000000
             .udata_mmc.o      udata   0x0001ff       data   0x000000
           .idata_c018i.o      idata   0x0001ff       data   0x000000
      .idata__user_putc.o      idata   0x0001ff       data   0x000000
            .udata_user.o      udata   0x000200       data   0x000088
         .udata_usbmmap.o      udata   0x000288       data   0x000004
          .udata_usbdrv.o      udata   0x00028c       data   0x000003
             .idata_mmc.o      idata   0x000300       data   0x000080
                  usbram4      udata   0x000400       data   0x0000a8
            .idata_user.o      idata   0x0004a8       data   0x00004e
           .udata_c018i.o      udata   0x0004f6       data   0x00000a
                   .stack      udata   0x000d00       data   0x000100
            .idata_main.o      idata   0x000e00       data   0x0000dd
            .idata_test.o      idata   0x000edd       data   0x00000e
      .udata_usbctrltrf.o      udata   0x000eeb       data   0x000009
              SFR_BANKED0      udata   0x000f40       data   0x000020
            SFR_UNBANKED0      udata   0x000f60       data   0x0000a0



                              Program Memory Usage 
                               Start         End      
                           ---------   ---------      
                            0x000000    0x000005      
                            0x000008    0x00000d      
                            0x00002a    0x0055e4      
                            0x0055e6    0x0057b0      
                            0x01fff8    0x01fffb      
                            0x01fffd    0x01fffd      
            22423 out of 131072 program addresses used, program memory utilization is 17%



                              Symbols - Sorted by Name
                     Name    Address   Location    Storage File                     
                ---------  ---------  ---------  --------- ---------                
               AllAsInput   0x001804    program     extern C:\Documents and Settings\user\Desktop\PIC-LCD3310_test\Software\PIC-LCD3310_TEST_DEMO\test.c
           AllUEXTAsInput   0x0023ea    program     extern C:\Documents and Settings\user\Desktop\PIC-LCD3310_test\Software\PIC-LCD3310_TEST_DEMO\test.c
           BlinkUSBStatus   0x0048b0    program     extern C:\Documents and Settings\user\Desktop\PIC-LCD3310_test\Software\PIC-LCD3310_TEST_DEMO\user\user.c
               ClearArray   0x004bac    program     extern C:\Documents and Settings\user\Desktop\PIC-LCD3310_test\Software\PIC-LCD3310_TEST_DEMO\system\usb\usbdrv\usbdrv.c
                    Delay   0x003c54    program     extern C:\Documents and Settings\user\Desktop\PIC-LCD3310_test\Software\PIC-LCD3310_TEST_DEMO\lcd.c
                   Delayc   0x003c9e    program     extern C:\Documents and Settings\user\Desktop\PIC-LCD3310_test\Software\PIC-LCD3310_TEST_DEMO\lcd.c
                 FXD1616U   0x00554c    program     extern C:\MCC18\src\traditional\math\fxd1616u.c
                 FXD3232U   0x005504    program     extern C:\MCC18\src\traditional\math\fxd3232u.c
                 FXM1616S   0x00537a    program     extern C:\MCC18\src\traditional\math\fxm1616s.asm
                 FXM1616U   0x0053d4    program     extern C:\MCC18\src\traditional\math\fxm1616u.asm
                  FXM3232   0x005494    program     extern C:\MCC18\src\traditional\math\fxm3232.c
               FontLookup   0x004bd6    program     extern C:\Documents and Settings\user\Desktop\PIC-LCD3310_test\Software\PIC-LCD3310_TEST_DEMO\lcd.c
      GetJoystickPosition   0x0011e6    program     extern C:\Documents and Settings\user\Desktop\PIC-LCD3310_test\Software\PIC-LCD3310_TEST_DEMO\main.c
                 InitLED1   0x0000f4    program     extern C:\Documents and Settings\user\Desktop\PIC-LCD3310_test\Software\PIC-LCD3310_TEST_DEMO\main.c
                 InitLED2   0x000102    program     extern C:\Documents and Settings\user\Desktop\PIC-LCD3310_test\Software\PIC-LCD3310_TEST_DEMO\main.c
         InitializeSystem   0x000ff0    program     static C:\Documents and Settings\user\Desktop\PIC-LCD3310_test\Software\PIC-LCD3310_TEST_DEMO\main.c
       InterruptTimerHigh   0x000008    program     extern C:\Documents and Settings\user\Desktop\PIC-LCD3310_test\Software\PIC-LCD3310_TEST_DEMO\main.c
                 LCDChrXY   0x003eca    program     extern C:\Documents and Settings\user\Desktop\PIC-LCD3310_test\Software\PIC-LCD3310_TEST_DEMO\lcd.c
          LCDChrXYInverse   0x003f7e    program     extern C:\Documents and Settings\user\Desktop\PIC-LCD3310_test\Software\PIC-LCD3310_TEST_DEMO\lcd.c
                 LCDClear   0x003e32    program     extern C:\Documents and Settings\user\Desktop\PIC-LCD3310_test\Software\PIC-LCD3310_TEST_DEMO\lcd.c
              LCDContrast   0x00407e    program     extern C:\Documents and Settings\user\Desktop\PIC-LCD3310_test\Software\PIC-LCD3310_TEST_DEMO\lcd.c
                  LCDInit   0x003cba    program     extern C:\Documents and Settings\user\Desktop\PIC-LCD3310_test\Software\PIC-LCD3310_TEST_DEMO\lcd.c
                 LCDProba   0x003e8a    program     extern C:\Documents and Settings\user\Desktop\PIC-LCD3310_test\Software\PIC-LCD3310_TEST_DEMO\lcd.c
                  LCDSend   0x003e06    program     extern C:\Documents and Settings\user\Desktop\PIC-LCD3310_test\Software\PIC-LCD3310_TEST_DEMO\lcd.c
                   LCDStr   0x0040b6    program     extern C:\Documents and Settings\user\Desktop\PIC-LCD3310_test\Software\PIC-LCD3310_TEST_DEMO\lcd.c
                LCDUpdate   0x003d56    program     extern C:\Documents and Settings\user\Desktop\PIC-LCD3310_test\Software\PIC-LCD3310_TEST_DEMO\lcd.c
 PICDEMFSUSBDemoBoardTest   0x0049fc    program     extern C:\Documents and Settings\user\Desktop\PIC-LCD3310_test\Software\PIC-LCD3310_TEST_DEMO\user\user.c
      PinAsOutputLowPortB   0x0018d2    program     extern C:\Documents and Settings\user\Desktop\PIC-LCD3310_test\Software\PIC-LCD3310_TEST_DEMO\test.c
      PinAsOutputLowPortC   0x001968    program     extern C:\Documents and Settings\user\Desktop\PIC-LCD3310_test\Software\PIC-LCD3310_TEST_DEMO\test.c
      PinAsOutputLowPortD   0x001a94    program     extern C:\Documents and Settings\user\Desktop\PIC-LCD3310_test\Software\PIC-LCD3310_TEST_DEMO\test.c
      PinAsOutputLowPortE   0x0019fe    program     extern C:\Documents and Settings\user\Desktop\PIC-LCD3310_test\Software\PIC-LCD3310_TEST_DEMO\test.c
      PinAsOutputLowPortF   0x001b2a    program     extern C:\Documents and Settings\user\Desktop\PIC-LCD3310_test\Software\PIC-LCD3310_TEST_DEMO\test.c
      PinAsOutputLowPortG   0x00184e    program     extern C:\Documents and Settings\user\Desktop\PIC-LCD3310_test\Software\PIC-LCD3310_TEST_DEMO\test.c
                ProcessIO   0x0047c6    program     extern C:\Documents and Settings\user\Desktop\PIC-LCD3310_test\Software\PIC-LCD3310_TEST_DEMO\user\user.c
              PullUp1High   0x001bc0    program     extern C:\Documents and Settings\user\Desktop\PIC-LCD3310_test\Software\PIC-LCD3310_TEST_DEMO\test.c
               PullUp1Low   0x001bc8    program     extern C:\Documents and Settings\user\Desktop\PIC-LCD3310_test\Software\PIC-LCD3310_TEST_DEMO\test.c
              PullUp2High   0x001bd0    program     extern C:\Documents and Settings\user\Desktop\PIC-LCD3310_test\Software\PIC-LCD3310_TEST_DEMO\test.c
               PullUp2Low   0x001bd8    program     extern C:\Documents and Settings\user\Desktop\PIC-LCD3310_test\Software\PIC-LCD3310_TEST_DEMO\test.c
           PullUpUEXTHigh   0x002400    program     extern C:\Documents and Settings\user\Desktop\PIC-LCD3310_test\Software\PIC-LCD3310_TEST_DEMO\test.c
            PullUpUEXTLow   0x00240c    program     extern C:\Documents and Settings\user\Desktop\PIC-LCD3310_test\Software\PIC-LCD3310_TEST_DEMO\test.c
          ServiceRequests   0x0047dc    program     extern C:\Documents and Settings\user\Desktop\PIC-LCD3310_test\Software\PIC-LCD3310_TEST_DEMO\user\user.c
               TSIGN1616A   0x0053c6    program     static C:\MCC18\src\traditional\math\fxm1616s.asm
                 TestExt1   0x001be0    program     extern C:\Documents and Settings\user\Desktop\PIC-LCD3310_test\Software\PIC-LCD3310_TEST_DEMO\test.c
                 TestUEXT   0x002418    program     extern C:\Documents and Settings\user\Desktop\PIC-LCD3310_test\Software\PIC-LCD3310_TEST_DEMO\test.c
            Timer1ISRHigh   0x00005c    program     extern C:\Documents and Settings\user\Desktop\PIC-LCD3310_test\Software\PIC-LCD3310_TEST_DEMO\main.c
               ToggleLED2   0x000110    program     extern C:\Documents and Settings\user\Desktop\PIC-LCD3310_test\Software\PIC-LCD3310_TEST_DEMO\main.c
        USBCheckBusStatus   0x0049fe    program     extern C:\Documents and Settings\user\Desktop\PIC-LCD3310_test\Software\PIC-LCD3310_TEST_DEMO\system\usb\usbdrv\usbdrv.c
       USBCheckStdRequest   0x0044ba    program     extern C:\Documents and Settings\user\Desktop\PIC-LCD3310_test\Software\PIC-LCD3310_TEST_DEMO\system\usb\usb9\usb9.c
         USBCtrlEPService   0x004156    program     extern C:\Documents and Settings\user\Desktop\PIC-LCD3310_test\Software\PIC-LCD3310_TEST_DEMO\system\usb\usbctrltrf\usbctrltrf.c
 USBCtrlEPServiceComplete   0x00438c    program     extern C:\Documents and Settings\user\Desktop\PIC-LCD3310_test\Software\PIC-LCD3310_TEST_DEMO\system\usb\usbctrltrf\usbctrltrf.c
      USBCtrlTrfInHandler   0x0041d4    program     extern C:\Documents and Settings\user\Desktop\PIC-LCD3310_test\Software\PIC-LCD3310_TEST_DEMO\system\usb\usbctrltrf\usbctrltrf.c
     USBCtrlTrfOutHandler   0x0041b4    program     extern C:\Documents and Settings\user\Desktop\PIC-LCD3310_test\Software\PIC-LCD3310_TEST_DEMO\system\usb\usbctrltrf\usbctrltrf.c
      USBCtrlTrfRxService   0x004312    program     extern C:\Documents and Settings\user\Desktop\PIC-LCD3310_test\Software\PIC-LCD3310_TEST_DEMO\system\usb\usbctrltrf\usbctrltrf.c
   USBCtrlTrfSetupHandler   0x004188    program     extern C:\Documents and Settings\user\Desktop\PIC-LCD3310_test\Software\PIC-LCD3310_TEST_DEMO\system\usb\usbctrltrf\usbctrltrf.c
      USBCtrlTrfTxService   0x004224    program     extern C:\Documents and Settings\user\Desktop\PIC-LCD3310_test\Software\PIC-LCD3310_TEST_DEMO\system\usb\usbctrltrf\usbctrltrf.c
         USBDriverService   0x004a48    program     extern C:\Documents and Settings\user\Desktop\PIC-LCD3310_test\Software\PIC-LCD3310_TEST_DEMO\system\usb\usbdrv\usbdrv.c
          USBErrorHandler   0x004b50    program     extern C:\Documents and Settings\user\Desktop\PIC-LCD3310_test\Software\PIC-LCD3310_TEST_DEMO\system\usb\usbdrv\usbdrv.c
             USBGenInitEP   0x004f68    program     extern C:\Documents and Settings\user\Desktop\PIC-LCD3310_test\Software\PIC-LCD3310_TEST_DEMO\system\usb\class\generic\usbgen.c
               USBGenRead   0x005008    program     extern C:\Documents and Settings\user\Desktop\PIC-LCD3310_test\Software\PIC-LCD3310_TEST_DEMO\system\usb\class\generic\usbgen.c
              USBGenWrite   0x004f94    program     extern C:\Documents and Settings\user\Desktop\PIC-LCD3310_test\Software\PIC-LCD3310_TEST_DEMO\system\usb\class\generic\usbgen.c
         USBModuleDisable   0x004a38    program     extern C:\Documents and Settings\user\Desktop\PIC-LCD3310_test\Software\PIC-LCD3310_TEST_DEMO\system\usb\usbdrv\usbdrv.c
          USBModuleEnable   0x004a28    program     extern C:\Documents and Settings\user\Desktop\PIC-LCD3310_test\Software\PIC-LCD3310_TEST_DEMO\system\usb\usbdrv\usbdrv.c
USBPrepareForNextSetupTrf   0x004418    program     extern C:\Documents and Settings\user\Desktop\PIC-LCD3310_test\Software\PIC-LCD3310_TEST_DEMO\system\usb\usbctrltrf\usbctrltrf.c
  USBProtocolResetHandler   0x004b54    program     extern C:\Documents and Settings\user\Desktop\PIC-LCD3310_test\Software\PIC-LCD3310_TEST_DEMO\system\usb\usbdrv\usbdrv.c
          USBRemoteWakeup   0x004b04    program     extern C:\Documents and Settings\user\Desktop\PIC-LCD3310_test\Software\PIC-LCD3310_TEST_DEMO\system\usb\usbdrv\usbdrv.c
            USBSoftDetach   0x004a44    program     extern C:\Documents and Settings\user\Desktop\PIC-LCD3310_test\Software\PIC-LCD3310_TEST_DEMO\system\usb\usbdrv\usbdrv.c
          USBStallHandler   0x004b2c    program     extern C:\Documents and Settings\user\Desktop\PIC-LCD3310_test\Software\PIC-LCD3310_TEST_DEMO\system\usb\usbdrv\usbdrv.c
  USBStdFeatureReqHandler   0x004722    program     extern C:\Documents and Settings\user\Desktop\PIC-LCD3310_test\Software\PIC-LCD3310_TEST_DEMO\system\usb\usb9\usb9.c
      USBStdGetDscHandler   0x00457c    program     extern C:\Documents and Settings\user\Desktop\PIC-LCD3310_test\Software\PIC-LCD3310_TEST_DEMO\system\usb\usb9\usb9.c
   USBStdGetStatusHandler   0x004684    program     extern C:\Documents and Settings\user\Desktop\PIC-LCD3310_test\Software\PIC-LCD3310_TEST_DEMO\system\usb\usb9\usb9.c
      USBStdSetCfgHandler   0x004634    program     extern C:\Documents and Settings\user\Desktop\PIC-LCD3310_test\Software\PIC-LCD3310_TEST_DEMO\system\usb\usb9\usb9.c
               USBSuspend   0x004aea    program     extern C:\Documents and Settings\user\Desktop\PIC-LCD3310_test\Software\PIC-LCD3310_TEST_DEMO\system\usb\usbdrv\usbdrv.c
                 USBTasks   0x001052    program     extern C:\Documents and Settings\user\Desktop\PIC-LCD3310_test\Software\PIC-LCD3310_TEST_DEMO\main.c
       USBWakeFromSuspend   0x004af4    program     extern C:\Documents and Settings\user\Desktop\PIC-LCD3310_test\Software\PIC-LCD3310_TEST_DEMO\system\usb\usbdrv\usbdrv.c
               USB_CD_Ptr   0x005226    program     extern C:\Documents and Settings\user\Desktop\PIC-LCD3310_test\Software\PIC-LCD3310_TEST_DEMO\autofiles\usbdsc.c
               USB_SD_Ptr   0x00522a    program     extern C:\Documents and Settings\user\Desktop\PIC-LCD3310_test\Software\PIC-LCD3310_TEST_DEMO\autofiles\usbdsc.c
          USB_SOF_Handler   0x004b28    program     extern C:\Documents and Settings\user\Desktop\PIC-LCD3310_test\Software\PIC-LCD3310_TEST_DEMO\system\usb\usbdrv\usbdrv.c
               UpdateMenu   0x001062    program     extern C:\Documents and Settings\user\Desktop\PIC-LCD3310_test\Software\PIC-LCD3310_TEST_DEMO\main.c
                 UserInit   0x0047c4    program     extern C:\Documents and Settings\user\Desktop\PIC-LCD3310_test\Software\PIC-LCD3310_TEST_DEMO\user\user.c
              _2jContinue   0x0050a8    program     static C:\MCC18\src\traditional\stdclib\memset.asm
                   _2jEnd   0x005162    program     static C:\MCC18\src\traditional\stdclib\slenpgm.asm
                   _3jEnd   0x0050b2    program     static C:\MCC18\src\traditional\stdclib\memset.asm
              _4jContinue   0x0050e8    program     static C:\MCC18\src\traditional\stdclib\strncmp.asm
                   _5jEnd   0x0050f2    program     static C:\MCC18\src\traditional\stdclib\strncmp.asm
      ___case_-1_lbl00020   0x00487e    program     static                          
       ___case_0_lbl00006   0x00481a    program     static                          
      ___case_49_lbl00007   0x00482e    program     static                          
      ___case_50_lbl00019   0x00485e    program     static                          
      ___default_lbl00021   0x004882    program     static                          
         ___else_lbl00009   0x004858    program     static                          
         ___else_lbl00011   0x00484e    program     static                          
         ___else_lbl00013   0x004844    program     static                          
         ___else_lbl00015   0x00483c    program     static                          
         ___else_lbl00018   0x00486e    program     static                          
           ___if_lbl00008   0x00485c    program     static                          
           ___if_lbl00010   0x00485c    program     static                          
           ___if_lbl00012   0x00485c    program     static                          
           ___if_lbl00014   0x00485c    program     static                          
           ___if_lbl00016   0x00487c    program     static                          
           ___if_lbl00017   0x00487c    program     static                          
           ___if_lbl00022   0x0048a6    program     static                          
           ___if_lbl00023   0x0048a6    program     static                          
           ___if_lbl00024   0x0048a6    program     static                          
       ___return_lbl00000   0x005576    program     static                          
       ___return_lbl00000   0x00000c    program     static                          
       ___return_lbl00000   0x005502    program     static                          
       ___return_lbl00000   0x000004    program     static                          
       ___return_lbl00000   0x00554a    program     static                          
       ___return_lbl00001   0x0055b6    program     static                          
       ___return_lbl00002   0x005378    program     static                          
       ___return_lbl00004   0x0048a6    program     static                          
       ___return_lbl00048   0x004baa    program     static                          
       ___return_lbl00051   0x004bce    program     static                          
   ___switchexit_lbl00005   0x004884    program     static                          
        ___while_lbl00049   0x004b82    program     static                          
        ___while_lbl00050   0x004b96    program     static                          
        ___while_lbl00052   0x004bc0    program     static                          
        ___while_lbl00053   0x004bce    program     static                          
               __config_0   0x01fff8    program     static C:\Documents and Settings\user\Desktop\PIC-LCD3310_test\Software\PIC-LCD3310_TEST_DEMO\main.c
               __config_1   0x01fff9    program     static C:\Documents and Settings\user\Desktop\PIC-LCD3310_test\Software\PIC-LCD3310_TEST_DEMO\main.c
               __config_2   0x01fffa    program     static C:\Documents and Settings\user\Desktop\PIC-LCD3310_test\Software\PIC-LCD3310_TEST_DEMO\main.c
               __config_3   0x01fffb    program     static C:\Documents and Settings\user\Desktop\PIC-LCD3310_test\Software\PIC-LCD3310_TEST_DEMO\main.c
               __config_4   0x01fffd    program     static C:\Documents and Settings\user\Desktop\PIC-LCD3310_test\Software\PIC-LCD3310_TEST_DEMO\main.c
                   __init   0x0055f6    program     extern C:\MCC18\src\traditional\stdclib\__init.c
                   __pa_0   0x0031e2    program     static C:\MCC18\src\traditional\stdclib\vfprintf.c
                   __pa_1   0x0031ea    program     static C:\MCC18\src\traditional\stdclib\vfprintf.c
                  __pa_10   0x00329e    program     static C:\MCC18\src\traditional\stdclib\vfprintf.c
                  __pa_11   0x0032ac    program     static C:\MCC18\src\traditional\stdclib\vfprintf.c
                  __pa_12   0x0032c2    program     static C:\MCC18\src\traditional\stdclib\vfprintf.c
                  __pa_13   0x0032dc    program     static C:\MCC18\src\traditional\stdclib\vfprintf.c
                  __pa_14   0x0032f4    program     static C:\MCC18\src\traditional\stdclib\vfprintf.c
                  __pa_15   0x003304    program     static C:\MCC18\src\traditional\stdclib\vfprintf.c
                  __pa_16   0x00331a    program     static C:\MCC18\src\traditional\stdclib\vfprintf.c
                  __pa_17   0x00332c    program     static C:\MCC18\src\traditional\stdclib\vfprintf.c
                  __pa_18   0x00333e    program     static C:\MCC18\src\traditional\stdclib\vfprintf.c
                  __pa_19   0x003348    program     static C:\MCC18\src\traditional\stdclib\vfprintf.c
                   __pa_2   0x0031f4    program     static C:\MCC18\src\traditional\stdclib\vfprintf.c
                  __pa_20   0x003358    program     static C:\MCC18\src\traditional\stdclib\vfprintf.c
                  __pa_21   0x003368    program     static C:\MCC18\src\traditional\stdclib\vfprintf.c
                  __pa_22   0x003378    program     static C:\MCC18\src\traditional\stdclib\vfprintf.c
                  __pa_23   0x003384    program     static C:\MCC18\src\traditional\stdclib\vfprintf.c
                  __pa_24   0x003392    program     static C:\MCC18\src\traditional\stdclib\vfprintf.c
                  __pa_25   0x00339a    program     static C:\MCC18\src\traditional\stdclib\vfprintf.c
                  __pa_26   0x0033a4    program     static C:\MCC18\src\traditional\stdclib\vfprintf.c
                  __pa_27   0x0033ae    program     static C:\MCC18\src\traditional\stdclib\vfprintf.c
                  __pa_28   0x0033b6    program     static C:\MCC18\src\traditional\stdclib\vfprintf.c
                  __pa_29   0x0033c4    program     static C:\MCC18\src\traditional\stdclib\vfprintf.c
                   __pa_3   0x0031fe    program     static C:\MCC18\src\traditional\stdclib\vfprintf.c
                  __pa_30   0x0033e0    program     static C:\MCC18\src\traditional\stdclib\vfprintf.c
                  __pa_31   0x0033fa    program     static C:\MCC18\src\traditional\stdclib\vfprintf.c
                  __pa_32   0x003414    program     static C:\MCC18\src\traditional\stdclib\vfprintf.c
                  __pa_33   0x00342c    program     static C:\MCC18\src\traditional\stdclib\vfprintf.c
                  __pa_34   0x003436    program     static C:\MCC18\src\traditional\stdclib\vfprintf.c
                  __pa_35   0x003444    program     static C:\MCC18\src\traditional\stdclib\vfprintf.c
                  __pa_36   0x00344c    program     static C:\MCC18\src\traditional\stdclib\vfprintf.c
                  __pa_37   0x003456    program     static C:\MCC18\src\traditional\stdclib\vfprintf.c
                  __pa_38   0x003466    program     static C:\MCC18\src\traditional\stdclib\vfprintf.c
                  __pa_39   0x003474    program     static C:\MCC18\src\traditional\stdclib\vfprintf.c
                   __pa_4   0x003216    program     static C:\MCC18\src\traditional\stdclib\vfprintf.c
                  __pa_40   0x003480    program     static C:\MCC18\src\traditional\stdclib\vfprintf.c
                  __pa_41   0x00348c    program     static C:\MCC18\src\traditional\stdclib\vfprintf.c
                  __pa_42   0x003494    program     static C:\MCC18\src\traditional\stdclib\vfprintf.c
                  __pa_43   0x00349e    program     static C:\MCC18\src\traditional\stdclib\vfprintf.c
                  __pa_44   0x0034a4    program     static C:\MCC18\src\traditional\stdclib\vfprintf.c
                  __pa_45   0x0034ae    program     static C:\MCC18\src\traditional\stdclib\vfprintf.c
                  __pa_46   0x0034ba    program     static C:\MCC18\src\traditional\stdclib\vfprintf.c
                   __pa_5   0x00322a    program     static C:\MCC18\src\traditional\stdclib\vfprintf.c
                   __pa_6   0x003246    program     static C:\MCC18\src\traditional\stdclib\vfprintf.c
                   __pa_7   0x003250    program     static C:\MCC18\src\traditional\stdclib\vfprintf.c
                   __pa_8   0x00325c    program     static C:\MCC18\src\traditional\stdclib\vfprintf.c
                   __pa_9   0x00327e    program     static C:\MCC18\src\traditional\stdclib\vfprintf.c
               __string_0   0x004f5a    program     static C:\Documents and Settings\user\Desktop\PIC-LCD3310_test\Software\PIC-LCD3310_TEST_DEMO\test.c
               __string_1   0x004f4c    program     static C:\Documents and Settings\user\Desktop\PIC-LCD3310_test\Software\PIC-LCD3310_TEST_DEMO\test.c
              __string_10   0x004ef2    program     static C:\Documents and Settings\user\Desktop\PIC-LCD3310_test\Software\PIC-LCD3310_TEST_DEMO\test.c
              __string_11   0x004ee8    program     static C:\Documents and Settings\user\Desktop\PIC-LCD3310_test\Software\PIC-LCD3310_TEST_DEMO\test.c
              __string_12   0x004edc    program     static C:\Documents and Settings\user\Desktop\PIC-LCD3310_test\Software\PIC-LCD3310_TEST_DEMO\test.c
              __string_13   0x004ed0    program     static C:\Documents and Settings\user\Desktop\PIC-LCD3310_test\Software\PIC-LCD3310_TEST_DEMO\test.c
              __string_14   0x004db6    program     static C:\Documents and Settings\user\Desktop\PIC-LCD3310_test\Software\PIC-LCD3310_TEST_DEMO\main.c
              __string_14   0x004ec4    program     static C:\Documents and Settings\user\Desktop\PIC-LCD3310_test\Software\PIC-LCD3310_TEST_DEMO\test.c
              __string_15   0x004db1    program     static C:\Documents and Settings\user\Desktop\PIC-LCD3310_test\Software\PIC-LCD3310_TEST_DEMO\main.c
              __string_15   0x004eb8    program     static C:\Documents and Settings\user\Desktop\PIC-LCD3310_test\Software\PIC-LCD3310_TEST_DEMO\test.c
              __string_16   0x004dac    program     static C:\Documents and Settings\user\Desktop\PIC-LCD3310_test\Software\PIC-LCD3310_TEST_DEMO\main.c
              __string_16   0x004eac    program     static C:\Documents and Settings\user\Desktop\PIC-LCD3310_test\Software\PIC-LCD3310_TEST_DEMO\test.c
              __string_17   0x004ea0    program     static C:\Documents and Settings\user\Desktop\PIC-LCD3310_test\Software\PIC-LCD3310_TEST_DEMO\test.c
              __string_18   0x004e94    program     static C:\Documents and Settings\user\Desktop\PIC-LCD3310_test\Software\PIC-LCD3310_TEST_DEMO\test.c
              __string_19   0x004e88    program     static C:\Documents and Settings\user\Desktop\PIC-LCD3310_test\Software\PIC-LCD3310_TEST_DEMO\test.c
               __string_2   0x004f42    program     static C:\Documents and Settings\user\Desktop\PIC-LCD3310_test\Software\PIC-LCD3310_TEST_DEMO\test.c
              __string_20   0x004e7c    program     static C:\Documents and Settings\user\Desktop\PIC-LCD3310_test\Software\PIC-LCD3310_TEST_DEMO\test.c
              __string_21   0x004e70    program     static C:\Documents and Settings\user\Desktop\PIC-LCD3310_test\Software\PIC-LCD3310_TEST_DEMO\test.c
              __string_22   0x004e64    program     static C:\Documents and Settings\user\Desktop\PIC-LCD3310_test\Software\PIC-LCD3310_TEST_DEMO\test.c
              __string_23   0x004e58    program     static C:\Documents and Settings\user\Desktop\PIC-LCD3310_test\Software\PIC-LCD3310_TEST_DEMO\test.c
              __string_24   0x004e4c    program     static C:\Documents and Settings\user\Desktop\PIC-LCD3310_test\Software\PIC-LCD3310_TEST_DEMO\test.c
              __string_25   0x004e40    program     static C:\Documents and Settings\user\Desktop\PIC-LCD3310_test\Software\PIC-LCD3310_TEST_DEMO\test.c
              __string_26   0x004e34    program     static C:\Documents and Settings\user\Desktop\PIC-LCD3310_test\Software\PIC-LCD3310_TEST_DEMO\test.c
              __string_27   0x004e28    program     static C:\Documents and Settings\user\Desktop\PIC-LCD3310_test\Software\PIC-LCD3310_TEST_DEMO\test.c
              __string_28   0x004e1c    program     static C:\Documents and Settings\user\Desktop\PIC-LCD3310_test\Software\PIC-LCD3310_TEST_DEMO\test.c
              __string_29   0x004e10    program     static C:\Documents and Settings\user\Desktop\PIC-LCD3310_test\Software\PIC-LCD3310_TEST_DEMO\test.c
               __string_3   0x004f38    program     static C:\Documents and Settings\user\Desktop\PIC-LCD3310_test\Software\PIC-LCD3310_TEST_DEMO\test.c
              __string_30   0x004e04    program     static C:\Documents and Settings\user\Desktop\PIC-LCD3310_test\Software\PIC-LCD3310_TEST_DEMO\test.c
              __string_31   0x004df8    program     static C:\Documents and Settings\user\Desktop\PIC-LCD3310_test\Software\PIC-LCD3310_TEST_DEMO\test.c
              __string_32   0x004dec    program     static C:\Documents and Settings\user\Desktop\PIC-LCD3310_test\Software\PIC-LCD3310_TEST_DEMO\test.c
              __string_33   0x004de0    program     static C:\Documents and Settings\user\Desktop\PIC-LCD3310_test\Software\PIC-LCD3310_TEST_DEMO\test.c
              __string_34   0x004dd4    program     static C:\Documents and Settings\user\Desktop\PIC-LCD3310_test\Software\PIC-LCD3310_TEST_DEMO\test.c
              __string_35   0x004dc8    program     static C:\Documents and Settings\user\Desktop\PIC-LCD3310_test\Software\PIC-LCD3310_TEST_DEMO\test.c
              __string_36   0x004dbb    program     static C:\Documents and Settings\user\Desktop\PIC-LCD3310_test\Software\PIC-LCD3310_TEST_DEMO\test.c
               __string_4   0x004f2e    program     static C:\Documents and Settings\user\Desktop\PIC-LCD3310_test\Software\PIC-LCD3310_TEST_DEMO\test.c
               __string_5   0x004f24    program     static C:\Documents and Settings\user\Desktop\PIC-LCD3310_test\Software\PIC-LCD3310_TEST_DEMO\test.c
               __string_6   0x004f1a    program     static C:\Documents and Settings\user\Desktop\PIC-LCD3310_test\Software\PIC-LCD3310_TEST_DEMO\test.c
               __string_7   0x004f10    program     static C:\Documents and Settings\user\Desktop\PIC-LCD3310_test\Software\PIC-LCD3310_TEST_DEMO\test.c
               __string_8   0x004f06    program     static C:\Documents and Settings\user\Desktop\PIC-LCD3310_test\Software\PIC-LCD3310_TEST_DEMO\test.c
               __string_9   0x004efc    program     static C:\Documents and Settings\user\Desktop\PIC-LCD3310_test\Software\PIC-LCD3310_TEST_DEMO\test.c
              __tmplbl_42   0x003378    program     static                          
              __tmplbl_43   0x0031c0    program     static                          
              __tmplbl_44   0x0031a6    program     static                          
              __tmplbl_85   0x0028f8    program     static                          
            __zero_memory   0x0055e6    program     extern C:\MCC18\src\traditional\proc\p18F67J50.asm
                _do_cinit   0x0052dc    program     extern C:\MCC18\src\traditional\startup\c018i.c
                   _entry   0x000000    program     extern C:\MCC18\src\traditional\startup\c018i.c
                   _false   0x005546    program     static                          
                 _startup   0x00559c    program     extern C:\MCC18\src\traditional\startup\c018i.c
              _usart_putc   0x0055b8    program     extern C:\MCC18\src\pmc_common\USART\_usartpc.asm
               _user_putc   0x0055f4    program     extern C:\MCC18\src\traditional\stdclib\_user_putc.c
                    cfg01   0x00518a    program     extern C:\Documents and Settings\user\Desktop\PIC-LCD3310_test\Software\PIC-LCD3310_TEST_DEMO\autofiles\usbdsc.c
          check_bat_sense   0x0049ac    program     extern C:\Documents and Settings\user\Desktop\PIC-LCD3310_test\Software\PIC-LCD3310_TEST_DEMO\user\user.c
               clear_loop   0x0055ec    program     static C:\MCC18\src\traditional\proc\p18F67J50.asm
                copy_loop   0x00534e    program     static                          
            copy_one_byte   0x005354    program     static                          
               device_dsc   0x005178    program     extern C:\Documents and Settings\user\Desktop\PIC-LCD3310_test\Software\PIC-LCD3310_TEST_DEMO\autofiles\usbdsc.c
                     done   0x005378    program     static                          
             done_copying   0x005362    program     static                          
                  endloop   0x005572    program     static                          
                  initMMC   0x0034dc    program     extern C:\Documents and Settings\user\Desktop\PIC-LCD3310_test\Software\PIC-LCD3310_TEST_DEMO\mmc.c
                  initSPI   0x0034c4    program     extern C:\Documents and Settings\user\Desktop\PIC-LCD3310_test\Software\PIC-LCD3310_TEST_DEMO\mmc.c
                  isdigit   0x005578    program     extern C:\MCC18\src\traditional\stdclib\isdigit.asm
                     jEnd   0x005164    program     static C:\MCC18\src\traditional\stdclib\slenpgm.asm
                     jEnd   0x0050fc    program     static C:\MCC18\src\traditional\stdclib\strncmp.asm
                     jEnd   0x00512c    program     static C:\MCC18\src\traditional\stdclib\strlen.asm
                     jEnd   0x0050ba    program     static C:\MCC18\src\traditional\stdclib\memset.asm
                    jLoop   0x00514c    program     static C:\MCC18\src\traditional\stdclib\slenpgm.asm
                    jLoop   0x0050dc    program     static C:\MCC18\src\traditional\stdclib\strncmp.asm
                    jLoop   0x00509c    program     static C:\MCC18\src\traditional\stdclib\memset.asm
                    jLoop   0x005122    program     static C:\MCC18\src\traditional\stdclib\strlen.asm
                   jMatch   0x005598    program     static C:\MCC18\src\traditional\stdclib\isdigit.asm
                 jNoMatch   0x00559a    program     static C:\MCC18\src\traditional\stdclib\isdigit.asm
            joystick_down   0x0000de    program     extern C:\Documents and Settings\user\Desktop\PIC-LCD3310_test\Software\PIC-LCD3310_TEST_DEMO\main.c
            joystick_left   0x00009c    program     extern C:\Documents and Settings\user\Desktop\PIC-LCD3310_test\Software\PIC-LCD3310_TEST_DEMO\main.c
           joystick_right   0x000086    program     extern C:\Documents and Settings\user\Desktop\PIC-LCD3310_test\Software\PIC-LCD3310_TEST_DEMO\main.c
          joystick_select   0x0000b2    program     extern C:\Documents and Settings\user\Desktop\PIC-LCD3310_test\Software\PIC-LCD3310_TEST_DEMO\main.c
              joystick_up   0x0000c8    program     extern C:\Documents and Settings\user\Desktop\PIC-LCD3310_test\Software\PIC-LCD3310_TEST_DEMO\main.c
                     loop   0x005512    program     static                          
                     loop   0x0055ac    program     static                          
                     loop   0x005556    program     static                          
                     loop   0x0055c8    program     static C:\MCC18\src\pmc_common\USART\_usartpc.asm
                     main   0x0012ea    program     extern C:\Documents and Settings\user\Desktop\PIC-LCD3310_test\Software\PIC-LCD3310_TEST_DEMO\main.c
                   memset   0x005088    program     extern C:\MCC18\src\traditional\stdclib\memset.asm
             mmcCheckBusy   0x00367c    program     extern C:\Documents and Settings\user\Desktop\PIC-LCD3310_test\Software\PIC-LCD3310_TEST_DEMO\mmc.c
           mmcGetResponse   0x0035a6    program     extern C:\Documents and Settings\user\Desktop\PIC-LCD3310_test\Software\PIC-LCD3310_TEST_DEMO\mmc.c
         mmcGetXXResponse   0x003610    program     extern C:\Documents and Settings\user\Desktop\PIC-LCD3310_test\Software\PIC-LCD3310_TEST_DEMO\mmc.c
             mmcReadBlock   0x00372c    program     extern C:\Documents and Settings\user\Desktop\PIC-LCD3310_test\Software\PIC-LCD3310_TEST_DEMO\mmc.c
          mmcReadRegister   0x003b80    program     extern C:\Documents and Settings\user\Desktop\PIC-LCD3310_test\Software\PIC-LCD3310_TEST_DEMO\mmc.c
               mmcSendCmd   0x0039d6    program     extern C:\Documents and Settings\user\Desktop\PIC-LCD3310_test\Software\PIC-LCD3310_TEST_DEMO\mmc.c
        mmcSetBlockLength   0x003b08    program     extern C:\Documents and Settings\user\Desktop\PIC-LCD3310_test\Software\PIC-LCD3310_TEST_DEMO\mmc.c
            mmcWriteBlock   0x003892    program     extern C:\Documents and Settings\user\Desktop\PIC-LCD3310_test\Software\PIC-LCD3310_TEST_DEMO\mmc.c
               printdigit   0x00037a    program     extern C:\Documents and Settings\user\Desktop\PIC-LCD3310_test\Software\PIC-LCD3310_TEST_DEMO\main.c
                     putc   0x005410    program     extern C:\MCC18\src\traditional\stdclib\putc.c
                 s_digits   0x0055d4    program     static C:\MCC18\src\traditional\stdclib\vfprintf.c
            s_put_n_chars   0x0028a2    program     static C:\MCC18\src\traditional\stdclib\vfprintf.c
                    sd000   0x0051aa    program     extern C:\Documents and Settings\user\Desktop\PIC-LCD3310_test\Software\PIC-LCD3310_TEST_DEMO\autofiles\usbdsc.c
                    sd001   0x0051ae    program     extern C:\Documents and Settings\user\Desktop\PIC-LCD3310_test\Software\PIC-LCD3310_TEST_DEMO\autofiles\usbdsc.c
                    sd002   0x0051e2    program     extern C:\Documents and Settings\user\Desktop\PIC-LCD3310_test\Software\PIC-LCD3310_TEST_DEMO\autofiles\usbdsc.c
              spiSendByte   0x003b58    program     extern C:\Documents and Settings\user\Desktop\PIC-LCD3310_test\Software\PIC-LCD3310_TEST_DEMO\mmc.c
                  sprintf   0x005230    program     extern C:\MCC18\src\traditional\stdclib\sprintf.c
                   strlen   0x005112    program     extern C:\MCC18\src\traditional\stdclib\strlen.asm
                strlenpgm   0x00512e    program     extern C:\MCC18\src\traditional\stdclib\slenpgm.asm
                  strncmp   0x0050bc    program     extern C:\MCC18\src\traditional\stdclib\strncmp.asm
                     test   0x0052f6    program     static                          
                 test_MMA   0x000518    program     extern C:\Documents and Settings\user\Desktop\PIC-LCD3310_test\Software\PIC-LCD3310_TEST_DEMO\main.c
            test_joystick   0x000d4c    program     extern C:\Documents and Settings\user\Desktop\PIC-LCD3310_test\Software\PIC-LCD3310_TEST_DEMO\main.c
                 test_mmc   0x000116    program     extern C:\Documents and Settings\user\Desktop\PIC-LCD3310_test\Software\PIC-LCD3310_TEST_DEMO\main.c
                 vfprintf   0x0028ce    program     extern C:\MCC18\src\traditional\stdclib\vfprintf.c
                   ADCON0   0x000fc2       data     extern C:\MCC18\src\traditional\proc\p18F67J50.asm
               ADCON0bits   0x000fc2       data     extern C:\MCC18\src\traditional\proc\p18F67J50.asm
                   ADCON1   0x000fc1       data     extern C:\MCC18\src\traditional\proc\p18F67J50.asm
               ADCON1bits   0x000fc1       data     extern C:\MCC18\src\traditional\proc\p18F67J50.asm
                    ADRES   0x000fc3       data     extern C:\MCC18\src\traditional\proc\p18F67J50.asm
                   ADRESH   0x000fc4       data     extern C:\MCC18\src\traditional\proc\p18F67J50.asm
                   ADRESL   0x000fc3       data     extern C:\MCC18\src\traditional\proc\p18F67J50.asm
                   ANCON0   0x000fc1       data     extern C:\MCC18\src\traditional\proc\p18F67J50.asm
               ANCON0bits   0x000fc1       data     extern C:\MCC18\src\traditional\proc\p18F67J50.asm
                   ANCON1   0x000fc2       data     extern C:\MCC18\src\traditional\proc\p18F67J50.asm
               ANCON1bits   0x000fc2       data     extern C:\MCC18\src\traditional\proc\p18F67J50.asm
                  BAT_Off   0x0004cc       data     extern C:\Documents and Settings\user\Desktop\PIC-LCD3310_test\Software\PIC-LCD3310_TEST_DEMO\user\user.c
                   BAT_On   0x0004c0       data     extern C:\Documents and Settings\user\Desktop\PIC-LCD3310_test\Software\PIC-LCD3310_TEST_DEMO\user\user.c
                  BAUDCON   0x000f7e       data     extern C:\MCC18\src\traditional\proc\p18F67J50.asm
                 BAUDCON1   0x000f7e       data     extern C:\MCC18\src\traditional\proc\p18F67J50.asm
             BAUDCON1bits   0x000f7e       data     extern C:\MCC18\src\traditional\proc\p18F67J50.asm
                 BAUDCON2   0x000f7c       data     extern C:\MCC18\src\traditional\proc\p18F67J50.asm
             BAUDCON2bits   0x000f7c       data     extern C:\MCC18\src\traditional\proc\p18F67J50.asm
              BAUDCONbits   0x000f7e       data     extern C:\MCC18\src\traditional\proc\p18F67J50.asm
                      BSR   0x000fe0       data     extern C:\MCC18\src\traditional\proc\p18F67J50.asm
                  CCP1CON   0x000fbb       data     extern C:\MCC18\src\traditional\proc\p18F67J50.asm
              CCP1CONbits   0x000fbb       data     extern C:\MCC18\src\traditional\proc\p18F67J50.asm
                  CCP2CON   0x000fb6       data     extern C:\MCC18\src\traditional\proc\p18F67J50.asm
              CCP2CONbits   0x000fb6       data     extern C:\MCC18\src\traditional\proc\p18F67J50.asm
                  CCP3CON   0x000fb1       data     extern C:\MCC18\src\traditional\proc\p18F67J50.asm
              CCP3CONbits   0x000fb1       data     extern C:\MCC18\src\traditional\proc\p18F67J50.asm
                  CCP4CON   0x000f73       data     extern C:\MCC18\src\traditional\proc\p18F67J50.asm
              CCP4CONbits   0x000f73       data     extern C:\MCC18\src\traditional\proc\p18F67J50.asm
                  CCP5CON   0x000f70       data     extern C:\MCC18\src\traditional\proc\p18F67J50.asm
              CCP5CONbits   0x000f70       data     extern C:\MCC18\src\traditional\proc\p18F67J50.asm
                    CCPR1   0x000fbc       data     extern C:\MCC18\src\traditional\proc\p18F67J50.asm
                   CCPR1H   0x000fbd       data     extern C:\MCC18\src\traditional\proc\p18F67J50.asm
                   CCPR1L   0x000fbc       data     extern C:\MCC18\src\traditional\proc\p18F67J50.asm
                    CCPR2   0x000fb7       data     extern C:\MCC18\src\traditional\proc\p18F67J50.asm
                   CCPR2H   0x000fb8       data     extern C:\MCC18\src\traditional\proc\p18F67J50.asm
                   CCPR2L   0x000fb7       data     extern C:\MCC18\src\traditional\proc\p18F67J50.asm
                    CCPR3   0x000fb2       data     extern C:\MCC18\src\traditional\proc\p18F67J50.asm
                   CCPR3H   0x000fb3       data     extern C:\MCC18\src\traditional\proc\p18F67J50.asm
                   CCPR3L   0x000fb2       data     extern C:\MCC18\src\traditional\proc\p18F67J50.asm
                    CCPR4   0x000f74       data     extern C:\MCC18\src\traditional\proc\p18F67J50.asm
                   CCPR4H   0x000f75       data     extern C:\MCC18\src\traditional\proc\p18F67J50.asm
                   CCPR4L   0x000f74       data     extern C:\MCC18\src\traditional\proc\p18F67J50.asm
                    CCPR5   0x000f71       data     extern C:\MCC18\src\traditional\proc\p18F67J50.asm
                   CCPR5H   0x000f72       data     extern C:\MCC18\src\traditional\proc\p18F67J50.asm
                   CCPR5L   0x000f71       data     extern C:\MCC18\src\traditional\proc\p18F67J50.asm
                   CM1CON   0x000fd2       data     extern C:\MCC18\src\traditional\proc\p18F67J50.asm
                  CM1CON1   0x000fd2       data     extern C:\MCC18\src\traditional\proc\p18F67J50.asm
              CM1CON1bits   0x000fd2       data     extern C:\MCC18\src\traditional\proc\p18F67J50.asm
               CM1CONbits   0x000fd2       data     extern C:\MCC18\src\traditional\proc\p18F67J50.asm
                   CM2CON   0x000fd1       data     extern C:\MCC18\src\traditional\proc\p18F67J50.asm
                  CM2CON1   0x000fd1       data     extern C:\MCC18\src\traditional\proc\p18F67J50.asm
              CM2CON1bits   0x000fd1       data     extern C:\MCC18\src\traditional\proc\p18F67J50.asm
               CM2CONbits   0x000fd1       data     extern C:\MCC18\src\traditional\proc\p18F67J50.asm
                   CMSTAT   0x000f6a       data     extern C:\MCC18\src\traditional\proc\p18F67J50.asm
                 CMSTATUS   0x000f6a       data     extern C:\MCC18\src\traditional\proc\p18F67J50.asm
             CMSTATUSbits   0x000f6a       data     extern C:\MCC18\src\traditional\proc\p18F67J50.asm
               CMSTATbits   0x000f6a       data     extern C:\MCC18\src\traditional\proc\p18F67J50.asm
                       CP   0x000e87       data     extern C:\Documents and Settings\user\Desktop\PIC-LCD3310_test\Software\PIC-LCD3310_TEST_DEMO\main.c
                   CVRCON   0x000f77       data     extern C:\MCC18\src\traditional\proc\p18F67J50.asm
               CVRCONbits   0x000f77       data     extern C:\MCC18\src\traditional\proc\p18F67J50.asm
              CtrlTrfData   0x000420       data     extern C:\Documents and Settings\user\Desktop\PIC-LCD3310_test\Software\PIC-LCD3310_TEST_DEMO\system\usb\usbmmap.c
                     DDRA   0x000f92       data     extern C:\MCC18\src\traditional\proc\p18F67J50.asm
                 DDRAbits   0x000f92       data     extern C:\MCC18\src\traditional\proc\p18F67J50.asm
                     DDRB   0x000f93       data     extern C:\MCC18\src\traditional\proc\p18F67J50.asm
                 DDRBbits   0x000f93       data     extern C:\MCC18\src\traditional\proc\p18F67J50.asm
                     DDRC   0x000f94       data     extern C:\MCC18\src\traditional\proc\p18F67J50.asm
                 DDRCbits   0x000f94       data     extern C:\MCC18\src\traditional\proc\p18F67J50.asm
                     DDRD   0x000f95       data     extern C:\MCC18\src\traditional\proc\p18F67J50.asm
                 DDRDbits   0x000f95       data     extern C:\MCC18\src\traditional\proc\p18F67J50.asm
                     DDRE   0x000f96       data     extern C:\MCC18\src\traditional\proc\p18F67J50.asm
                 DDREbits   0x000f96       data     extern C:\MCC18\src\traditional\proc\p18F67J50.asm
                     DDRF   0x000f97       data     extern C:\MCC18\src\traditional\proc\p18F67J50.asm
                 DDRFbits   0x000f97       data     extern C:\MCC18\src\traditional\proc\p18F67J50.asm
                     DDRG   0x000f98       data     extern C:\MCC18\src\traditional\proc\p18F67J50.asm
                 DDRGbits   0x000f98       data     extern C:\MCC18\src\traditional\proc\p18F67J50.asm
                  ECCP1AS   0x000fbf       data     extern C:\MCC18\src\traditional\proc\p18F67J50.asm
              ECCP1ASbits   0x000fbf       data     extern C:\MCC18\src\traditional\proc\p18F67J50.asm
                 ECCP1CON   0x000fbb       data     extern C:\MCC18\src\traditional\proc\p18F67J50.asm
             ECCP1CONbits   0x000fbb       data     extern C:\MCC18\src\traditional\proc\p18F67J50.asm
                 ECCP1DEL   0x000fbe       data     extern C:\MCC18\src\traditional\proc\p18F67J50.asm
             ECCP1DELbits   0x000fbe       data     extern C:\MCC18\src\traditional\proc\p18F67J50.asm
                  ECCP2AS   0x000fba       data     extern C:\MCC18\src\traditional\proc\p18F67J50.asm
              ECCP2ASbits   0x000fba       data     extern C:\MCC18\src\traditional\proc\p18F67J50.asm
                 ECCP2CON   0x000fb6       data     extern C:\MCC18\src\traditional\proc\p18F67J50.asm
             ECCP2CONbits   0x000fb6       data     extern C:\MCC18\src\traditional\proc\p18F67J50.asm
                 ECCP2DEL   0x000fb9       data     extern C:\MCC18\src\traditional\proc\p18F67J50.asm
             ECCP2DELbits   0x000fb9       data     extern C:\MCC18\src\traditional\proc\p18F67J50.asm
                  ECCP3AS   0x000fb5       data     extern C:\MCC18\src\traditional\proc\p18F67J50.asm
              ECCP3ASbits   0x000fb5       data     extern C:\MCC18\src\traditional\proc\p18F67J50.asm
                 ECCP3CON   0x000fb1       data     extern C:\MCC18\src\traditional\proc\p18F67J50.asm
             ECCP3CONbits   0x000fb1       data     extern C:\MCC18\src\traditional\proc\p18F67J50.asm
                 ECCP3DEL   0x000fb4       data     extern C:\MCC18\src\traditional\proc\p18F67J50.asm
             ECCP3DELbits   0x000fb4       data     extern C:\MCC18\src\traditional\proc\p18F67J50.asm
                   EECON1   0x000fa6       data     extern C:\MCC18\src\traditional\proc\p18F67J50.asm
               EECON1bits   0x000fa6       data     extern C:\MCC18\src\traditional\proc\p18F67J50.asm
                   EECON2   0x000fa7       data     extern C:\MCC18\src\traditional\proc\p18F67J50.asm
                     Exit   0x000e6b       data     extern C:\Documents and Settings\user\Desktop\PIC-LCD3310_test\Software\PIC-LCD3310_TEST_DEMO\main.c
                     FSR0   0x000fe9       data     extern C:\MCC18\src\traditional\proc\p18F67J50.asm
                    FSR0H   0x000fea       data     extern C:\MCC18\src\traditional\proc\p18F67J50.asm
                    FSR0L   0x000fe9       data     extern C:\MCC18\src\traditional\proc\p18F67J50.asm
                     FSR1   0x000fe1       data     extern C:\MCC18\src\traditional\proc\p18F67J50.asm
                    FSR1H   0x000fe2       data     extern C:\MCC18\src\traditional\proc\p18F67J50.asm
                    FSR1L   0x000fe1       data     extern C:\MCC18\src\traditional\proc\p18F67J50.asm
                     FSR2   0x000fd9       data     extern C:\MCC18\src\traditional\proc\p18F67J50.asm
                    FSR2H   0x000fda       data     extern C:\MCC18\src\traditional\proc\p18F67J50.asm
                    FSR2L   0x000fd9       data     extern C:\MCC18\src\traditional\proc\p18F67J50.asm
           GND_test_state   0x0001b3       data     extern C:\Documents and Settings\user\Desktop\PIC-LCD3310_test\Software\PIC-LCD3310_TEST_DEMO\test.c
                    INDF0   0x000fef       data     extern C:\MCC18\src\traditional\proc\p18F67J50.asm
                    INDF1   0x000fe7       data     extern C:\MCC18\src\traditional\proc\p18F67J50.asm
                    INDF2   0x000fdf       data     extern C:\MCC18\src\traditional\proc\p18F67J50.asm
                   INTCON   0x000ff2       data     extern C:\MCC18\src\traditional\proc\p18F67J50.asm
                  INTCON2   0x000ff1       data     extern C:\MCC18\src\traditional\proc\p18F67J50.asm
              INTCON2bits   0x000ff1       data     extern C:\MCC18\src\traditional\proc\p18F67J50.asm
                  INTCON3   0x000ff0       data     extern C:\MCC18\src\traditional\proc\p18F67J50.asm
              INTCON3bits   0x000ff0       data     extern C:\MCC18\src\traditional\proc\p18F67J50.asm
               INTCONbits   0x000ff2       data     extern C:\MCC18\src\traditional\proc\p18F67J50.asm
                     IPR1   0x000f9f       data     extern C:\MCC18\src\traditional\proc\p18F67J50.asm
                 IPR1bits   0x000f9f       data     extern C:\MCC18\src\traditional\proc\p18F67J50.asm
                     IPR2   0x000fa2       data     extern C:\MCC18\src\traditional\proc\p18F67J50.asm
                 IPR2bits   0x000fa2       data     extern C:\MCC18\src\traditional\proc\p18F67J50.asm
                     IPR3   0x000fa5       data     extern C:\MCC18\src\traditional\proc\p18F67J50.asm
                 IPR3bits   0x000fa5       data     extern C:\MCC18\src\traditional\proc\p18F67J50.asm
                Inversion   0x000e5a       data     extern C:\Documents and Settings\user\Desktop\PIC-LCD3310_test\Software\PIC-LCD3310_TEST_DEMO\main.c
                   JoyPos   0x0001a2       data     extern C:\Documents and Settings\user\Desktop\PIC-LCD3310_test\Software\PIC-LCD3310_TEST_DEMO\main.c
                      Key   0x000204       data     extern C:\Documents and Settings\user\Desktop\PIC-LCD3310_test\Software\PIC-LCD3310_TEST_DEMO\user\user.c
                     LATA   0x000f89       data     extern C:\MCC18\src\traditional\proc\p18F67J50.asm
                 LATAbits   0x000f89       data     extern C:\MCC18\src\traditional\proc\p18F67J50.asm
                     LATB   0x000f8a       data     extern C:\MCC18\src\traditional\proc\p18F67J50.asm
                 LATBbits   0x000f8a       data     extern C:\MCC18\src\traditional\proc\p18F67J50.asm
                     LATC   0x000f8b       data     extern C:\MCC18\src\traditional\proc\p18F67J50.asm
                 LATCbits   0x000f8b       data     extern C:\MCC18\src\traditional\proc\p18F67J50.asm
                     LATD   0x000f8c       data     extern C:\MCC18\src\traditional\proc\p18F67J50.asm
                 LATDbits   0x000f8c       data     extern C:\MCC18\src\traditional\proc\p18F67J50.asm
                     LATE   0x000f8d       data     extern C:\MCC18\src\traditional\proc\p18F67J50.asm
                 LATEbits   0x000f8d       data     extern C:\MCC18\src\traditional\proc\p18F67J50.asm
                     LATF   0x000f8e       data     extern C:\MCC18\src\traditional\proc\p18F67J50.asm
                 LATFbits   0x000f8e       data     extern C:\MCC18\src\traditional\proc\p18F67J50.asm
                     LATG   0x000f8f       data     extern C:\MCC18\src\traditional\proc\p18F67J50.asm
                 LATGbits   0x000f8f       data     extern C:\MCC18\src\traditional\proc\p18F67J50.asm
                LcdMemIdx   0x000060       data     extern C:\Documents and Settings\user\Desktop\PIC-LCD3310_test\Software\PIC-LCD3310_TEST_DEMO\lcd.c
                LcdMemory   0x000062       data     extern C:\Documents and Settings\user\Desktop\PIC-LCD3310_test\Software\PIC-LCD3310_TEST_DEMO\lcd.c
                    MMA_D   0x000ec9       data     extern C:\Documents and Settings\user\Desktop\PIC-LCD3310_test\Software\PIC-LCD3310_TEST_DEMO\main.c
                     Menu   0x000e00       data     extern C:\Documents and Settings\user\Desktop\PIC-LCD3310_test\Software\PIC-LCD3310_TEST_DEMO\main.c
                  MenuPos   0x0001a3       data     extern C:\Documents and Settings\user\Desktop\PIC-LCD3310_test\Software\PIC-LCD3310_TEST_DEMO\main.c
                   ODCON1   0x000fcf       data     extern C:\MCC18\src\traditional\proc\p18F67J50.asm
               ODCON1bits   0x000fcf       data     extern C:\MCC18\src\traditional\proc\p18F67J50.asm
                   ODCON2   0x000fce       data     extern C:\MCC18\src\traditional\proc\p18F67J50.asm
               ODCON2bits   0x000fce       data     extern C:\MCC18\src\traditional\proc\p18F67J50.asm
                   ODCON3   0x000fcd       data     extern C:\MCC18\src\traditional\proc\p18F67J50.asm
               ODCON3bits   0x000fcd       data     extern C:\MCC18\src\traditional\proc\p18F67J50.asm
                   OSCCON   0x000fd3       data     extern C:\MCC18\src\traditional\proc\p18F67J50.asm
               OSCCONbits   0x000fd3       data     extern C:\MCC18\src\traditional\proc\p18F67J50.asm
                  OSCTUNE   0x000f9b       data     extern C:\MCC18\src\traditional\proc\p18F67J50.asm
              OSCTUNEbits   0x000f9b       data     extern C:\MCC18\src\traditional\proc\p18F67J50.asm
                  PADCFG1   0x000fcc       data     extern C:\MCC18\src\traditional\proc\p18F67J50.asm
              PADCFG1bits   0x000fcc       data     extern C:\MCC18\src\traditional\proc\p18F67J50.asm
                       PC   0x000ff9       data     extern C:\MCC18\src\traditional\proc\p18F67J50.asm
                      PCL   0x000ff9       data     extern C:\MCC18\src\traditional\proc\p18F67J50.asm
                   PCLATH   0x000ffa       data     extern C:\MCC18\src\traditional\proc\p18F67J50.asm
                   PCLATU   0x000ffb       data     extern C:\MCC18\src\traditional\proc\p18F67J50.asm
                     PIE1   0x000f9d       data     extern C:\MCC18\src\traditional\proc\p18F67J50.asm
                 PIE1bits   0x000f9d       data     extern C:\MCC18\src\traditional\proc\p18F67J50.asm
                     PIE2   0x000fa0       data     extern C:\MCC18\src\traditional\proc\p18F67J50.asm
                 PIE2bits   0x000fa0       data     extern C:\MCC18\src\traditional\proc\p18F67J50.asm
                     PIE3   0x000fa3       data     extern C:\MCC18\src\traditional\proc\p18F67J50.asm
                 PIE3bits   0x000fa3       data     extern C:\MCC18\src\traditional\proc\p18F67J50.asm
                     PIR1   0x000f9e       data     extern C:\MCC18\src\traditional\proc\p18F67J50.asm
                 PIR1bits   0x000f9e       data     extern C:\MCC18\src\traditional\proc\p18F67J50.asm
                     PIR2   0x000fa1       data     extern C:\MCC18\src\traditional\proc\p18F67J50.asm
                 PIR2bits   0x000fa1       data     extern C:\MCC18\src\traditional\proc\p18F67J50.asm
                     PIR3   0x000fa4       data     extern C:\MCC18\src\traditional\proc\p18F67J50.asm
                 PIR3bits   0x000fa4       data     extern C:\MCC18\src\traditional\proc\p18F67J50.asm
                   PLUSW0   0x000feb       data     extern C:\MCC18\src\traditional\proc\p18F67J50.asm
                   PLUSW1   0x000fe3       data     extern C:\MCC18\src\traditional\proc\p18F67J50.asm
                   PLUSW2   0x000fdb       data     extern C:\MCC18\src\traditional\proc\p18F67J50.asm
                   PMADDR   0x000f68       data     extern C:\MCC18\src\traditional\proc\p18F67J50.asm
                  PMADDRH   0x000f69       data     extern C:\MCC18\src\traditional\proc\p18F67J50.asm
              PMADDRHbits   0x000f69       data     extern C:\MCC18\src\traditional\proc\p18F67J50.asm
                  PMADDRL   0x000f68       data     extern C:\MCC18\src\traditional\proc\p18F67J50.asm
                    PMCON   0x000f4a       data     extern C:\MCC18\src\traditional\proc\p18F67J50.asm
                   PMCONH   0x000f4b       data     extern C:\MCC18\src\traditional\proc\p18F67J50.asm
               PMCONHbits   0x000f4b       data     extern C:\MCC18\src\traditional\proc\p18F67J50.asm
                   PMCONL   0x000f4a       data     extern C:\MCC18\src\traditional\proc\p18F67J50.asm
               PMCONLbits   0x000f4a       data     extern C:\MCC18\src\traditional\proc\p18F67J50.asm
                   PMDIN1   0x000f66       data     extern C:\MCC18\src\traditional\proc\p18F67J50.asm
                  PMDIN1H   0x000f67       data     extern C:\MCC18\src\traditional\proc\p18F67J50.asm
                  PMDIN1L   0x000f66       data     extern C:\MCC18\src\traditional\proc\p18F67J50.asm
                   PMDIN2   0x000f44       data     extern C:\MCC18\src\traditional\proc\p18F67J50.asm
                  PMDIN2H   0x000f45       data     extern C:\MCC18\src\traditional\proc\p18F67J50.asm
                  PMDIN2L   0x000f44       data     extern C:\MCC18\src\traditional\proc\p18F67J50.asm
                  PMDOUT1   0x000f68       data     extern C:\MCC18\src\traditional\proc\p18F67J50.asm
                 PMDOUT1H   0x000f69       data     extern C:\MCC18\src\traditional\proc\p18F67J50.asm
                 PMDOUT1L   0x000f68       data     extern C:\MCC18\src\traditional\proc\p18F67J50.asm
                  PMDOUT2   0x000f46       data     extern C:\MCC18\src\traditional\proc\p18F67J50.asm
                 PMDOUT2H   0x000f47       data     extern C:\MCC18\src\traditional\proc\p18F67J50.asm
                 PMDOUT2L   0x000f46       data     extern C:\MCC18\src\traditional\proc\p18F67J50.asm
                     PMEH   0x000f43       data     extern C:\MCC18\src\traditional\proc\p18F67J50.asm
                 PMEHbits   0x000f43       data     extern C:\MCC18\src\traditional\proc\p18F67J50.asm
                     PMEL   0x000f42       data     extern C:\MCC18\src\traditional\proc\p18F67J50.asm
                 PMELbits   0x000f42       data     extern C:\MCC18\src\traditional\proc\p18F67J50.asm
                     PMEN   0x000f42       data     extern C:\MCC18\src\traditional\proc\p18F67J50.asm
                   PMMODE   0x000f48       data     extern C:\MCC18\src\traditional\proc\p18F67J50.asm
                  PMMODEH   0x000f49       data     extern C:\MCC18\src\traditional\proc\p18F67J50.asm
              PMMODEHbits   0x000f49       data     extern C:\MCC18\src\traditional\proc\p18F67J50.asm
                  PMMODEL   0x000f48       data     extern C:\MCC18\src\traditional\proc\p18F67J50.asm
              PMMODELbits   0x000f48       data     extern C:\MCC18\src\traditional\proc\p18F67J50.asm
                   PMSTAT   0x000f40       data     extern C:\MCC18\src\traditional\proc\p18F67J50.asm
                  PMSTATH   0x000f41       data     extern C:\MCC18\src\traditional\proc\p18F67J50.asm
              PMSTATHbits   0x000f41       data     extern C:\MCC18\src\traditional\proc\p18F67J50.asm
                  PMSTATL   0x000f40       data     extern C:\MCC18\src\traditional\proc\p18F67J50.asm
              PMSTATLbits   0x000f40       data     extern C:\MCC18\src\traditional\proc\p18F67J50.asm
                    PORTA   0x000f80       data     extern C:\MCC18\src\traditional\proc\p18F67J50.asm
                PORTAbits   0x000f80       data     extern C:\MCC18\src\traditional\proc\p18F67J50.asm
                    PORTB   0x000f81       data     extern C:\MCC18\src\traditional\proc\p18F67J50.asm
                PORTBbits   0x000f81       data     extern C:\MCC18\src\traditional\proc\p18F67J50.asm
                    PORTC   0x000f82       data     extern C:\MCC18\src\traditional\proc\p18F67J50.asm
                PORTCbits   0x000f82       data     extern C:\MCC18\src\traditional\proc\p18F67J50.asm
                    PORTD   0x000f83       data     extern C:\MCC18\src\traditional\proc\p18F67J50.asm
                PORTDbits   0x000f83       data     extern C:\MCC18\src\traditional\proc\p18F67J50.asm
                    PORTE   0x000f84       data     extern C:\MCC18\src\traditional\proc\p18F67J50.asm
                PORTEbits   0x000f84       data     extern C:\MCC18\src\traditional\proc\p18F67J50.asm
                    PORTF   0x000f85       data     extern C:\MCC18\src\traditional\proc\p18F67J50.asm
                PORTFbits   0x000f85       data     extern C:\MCC18\src\traditional\proc\p18F67J50.asm
                    PORTG   0x000f86       data     extern C:\MCC18\src\traditional\proc\p18F67J50.asm
                PORTGbits   0x000f86       data     extern C:\MCC18\src\traditional\proc\p18F67J50.asm
                 POSTDEC0   0x000fed       data     extern C:\MCC18\src\traditional\proc\p18F67J50.asm
                 POSTDEC1   0x000fe5       data     extern C:\MCC18\src\traditional\proc\p18F67J50.asm
                 POSTDEC2   0x000fdd       data     extern C:\MCC18\src\traditional\proc\p18F67J50.asm
                 POSTINC0   0x000fee       data     extern C:\MCC18\src\traditional\proc\p18F67J50.asm
                 POSTINC1   0x000fe6       data     extern C:\MCC18\src\traditional\proc\p18F67J50.asm
                 POSTINC2   0x000fde       data     extern C:\MCC18\src\traditional\proc\p18F67J50.asm
                      PR2   0x000fcb       data     extern C:\MCC18\src\traditional\proc\p18F67J50.asm
                      PR4   0x000f77       data     extern C:\MCC18\src\traditional\proc\p18F67J50.asm
                  PREINC0   0x000fec       data     extern C:\MCC18\src\traditional\proc\p18F67J50.asm
                  PREINC1   0x000fe4       data     extern C:\MCC18\src\traditional\proc\p18F67J50.asm
                  PREINC2   0x000fdc       data     extern C:\MCC18\src\traditional\proc\p18F67J50.asm
                     PROD   0x000ff3       data     extern C:\MCC18\src\traditional\proc\p18F67J50.asm
                    PRODH   0x000ff4       data     extern C:\MCC18\src\traditional\proc\p18F67J50.asm
                    PRODL   0x000ff3       data     extern C:\MCC18\src\traditional\proc\p18F67J50.asm
                     RCON   0x000fd0       data     extern C:\MCC18\src\traditional\proc\p18F67J50.asm
                 RCONbits   0x000fd0       data     extern C:\MCC18\src\traditional\proc\p18F67J50.asm
                    RCREG   0x000faf       data     extern C:\MCC18\src\traditional\proc\p18F67J50.asm
                   RCREG1   0x000faf       data     extern C:\MCC18\src\traditional\proc\p18F67J50.asm
                   RCREG2   0x000faa       data     extern C:\MCC18\src\traditional\proc\p18F67J50.asm
                    RCSTA   0x000fac       data     extern C:\MCC18\src\traditional\proc\p18F67J50.asm
                   RCSTA1   0x000fac       data     extern C:\MCC18\src\traditional\proc\p18F67J50.asm
               RCSTA1bits   0x000fac       data     extern C:\MCC18\src\traditional\proc\p18F67J50.asm
                   RCSTA2   0x000f9c       data     extern C:\MCC18\src\traditional\proc\p18F67J50.asm
               RCSTA2bits   0x000f9c       data     extern C:\MCC18\src\traditional\proc\p18F67J50.asm
                RCSTAbits   0x000fac       data     extern C:\MCC18\src\traditional\proc\p18F67J50.asm
                  REFOCON   0x000fd3       data     extern C:\MCC18\src\traditional\proc\p18F67J50.asm
              REFOCONbits   0x000fd3       data     extern C:\MCC18\src\traditional\proc\p18F67J50.asm
                     SIGN   0x000000       data     extern C:\MCC18\src\traditional\math\cmath18.asm
                    SPBRG   0x000fb0       data     extern C:\MCC18\src\traditional\proc\p18F67J50.asm
                   SPBRG1   0x000fb0       data     extern C:\MCC18\src\traditional\proc\p18F67J50.asm
                   SPBRG2   0x000fab       data     extern C:\MCC18\src\traditional\proc\p18F67J50.asm
                  SPBRGH1   0x000f7f       data     extern C:\MCC18\src\traditional\proc\p18F67J50.asm
                  SPBRGH2   0x000f7d       data     extern C:\MCC18\src\traditional\proc\p18F67J50.asm
                  SSP1ADD   0x000fc8       data     extern C:\MCC18\src\traditional\proc\p18F67J50.asm
                  SSP1BUF   0x000fc9       data     extern C:\MCC18\src\traditional\proc\p18F67J50.asm
                 SSP1CON1   0x000fc6       data     extern C:\MCC18\src\traditional\proc\p18F67J50.asm
             SSP1CON1bits   0x000fc6       data     extern C:\MCC18\src\traditional\proc\p18F67J50.asm
                 SSP1CON2   0x000fc5       data     extern C:\MCC18\src\traditional\proc\p18F67J50.asm
             SSP1CON2bits   0x000fc5       data     extern C:\MCC18\src\traditional\proc\p18F67J50.asm
                  SSP1MSK   0x000fc8       data     extern C:\MCC18\src\traditional\proc\p18F67J50.asm
                 SSP1STAT   0x000fc7       data     extern C:\MCC18\src\traditional\proc\p18F67J50.asm
             SSP1STATbits   0x000fc7       data     extern C:\MCC18\src\traditional\proc\p18F67J50.asm
                  SSP2ADD   0x000f6e       data     extern C:\MCC18\src\traditional\proc\p18F67J50.asm
                  SSP2BUF   0x000f6f       data     extern C:\MCC18\src\traditional\proc\p18F67J50.asm
                 SSP2CON1   0x000f6c       data     extern C:\MCC18\src\traditional\proc\p18F67J50.asm
             SSP2CON1bits   0x000f6c       data     extern C:\MCC18\src\traditional\proc\p18F67J50.asm
                 SSP2CON2   0x000f6b       data     extern C:\MCC18\src\traditional\proc\p18F67J50.asm
             SSP2CON2bits   0x000f6b       data     extern C:\MCC18\src\traditional\proc\p18F67J50.asm
                  SSP2MSK   0x000f6e       data     extern C:\MCC18\src\traditional\proc\p18F67J50.asm
              SSP2MSKbits   0x000f6e       data     extern C:\MCC18\src\traditional\proc\p18F67J50.asm
                 SSP2STAT   0x000f6d       data     extern C:\MCC18\src\traditional\proc\p18F67J50.asm
             SSP2STATbits   0x000f6d       data     extern C:\MCC18\src\traditional\proc\p18F67J50.asm
                   SSPADD   0x000fc8       data     extern C:\MCC18\src\traditional\proc\p18F67J50.asm
                   SSPBUF   0x000fc9       data     extern C:\MCC18\src\traditional\proc\p18F67J50.asm
                  SSPCON1   0x000fc6       data     extern C:\MCC18\src\traditional\proc\p18F67J50.asm
              SSPCON1bits   0x000fc6       data     extern C:\MCC18\src\traditional\proc\p18F67J50.asm
                  SSPCON2   0x000fc5       data     extern C:\MCC18\src\traditional\proc\p18F67J50.asm
              SSPCON2bits   0x000fc5       data     extern C:\MCC18\src\traditional\proc\p18F67J50.asm
                  SSPSTAT   0x000fc7       data     extern C:\MCC18\src\traditional\proc\p18F67J50.asm
              SSPSTATbits   0x000fc7       data     extern C:\MCC18\src\traditional\proc\p18F67J50.asm
                   STATUS   0x000fd8       data     extern C:\MCC18\src\traditional\proc\p18F67J50.asm
               STATUSbits   0x000fd8       data     extern C:\MCC18\src\traditional\proc\p18F67J50.asm
                   STKPTR   0x000ffc       data     extern C:\MCC18\src\traditional\proc\p18F67J50.asm
               STKPTRbits   0x000ffc       data     extern C:\MCC18\src\traditional\proc\p18F67J50.asm
                 SetupPkt   0x000418       data     extern C:\Documents and Settings\user\Desktop\PIC-LCD3310_test\Software\PIC-LCD3310_TEST_DEMO\system\usb\usbmmap.c
                    T0CON   0x000fd5       data     extern C:\MCC18\src\traditional\proc\p18F67J50.asm
                T0CONbits   0x000fd5       data     extern C:\MCC18\src\traditional\proc\p18F67J50.asm
                    T1CON   0x000fcd       data     extern C:\MCC18\src\traditional\proc\p18F67J50.asm
                T1CONbits   0x000fcd       data     extern C:\MCC18\src\traditional\proc\p18F67J50.asm
                    T2CON   0x000fca       data     extern C:\MCC18\src\traditional\proc\p18F67J50.asm
                T2CONbits   0x000fca       data     extern C:\MCC18\src\traditional\proc\p18F67J50.asm
                    T3CON   0x000f79       data     extern C:\MCC18\src\traditional\proc\p18F67J50.asm
                T3CONbits   0x000f79       data     extern C:\MCC18\src\traditional\proc\p18F67J50.asm
                    T4CON   0x000f76       data     extern C:\MCC18\src\traditional\proc\p18F67J50.asm
                T4CONbits   0x000f76       data     extern C:\MCC18\src\traditional\proc\p18F67J50.asm
                   TABLAT   0x000ff5       data     extern C:\MCC18\src\traditional\proc\p18F67J50.asm
                   TBLPTR   0x000ff6       data     extern C:\MCC18\src\traditional\proc\p18F67J50.asm
                  TBLPTRH   0x000ff7       data     extern C:\MCC18\src\traditional\proc\p18F67J50.asm
                  TBLPTRL   0x000ff6       data     extern C:\MCC18\src\traditional\proc\p18F67J50.asm
                  TBLPTRU   0x000ff8       data     extern C:\MCC18\src\traditional\proc\p18F67J50.asm
                    TMR0H   0x000fd7       data     extern C:\MCC18\src\traditional\proc\p18F67J50.asm
                    TMR0L   0x000fd6       data     extern C:\MCC18\src\traditional\proc\p18F67J50.asm
                    TMR1H   0x000fcf       data     extern C:\MCC18\src\traditional\proc\p18F67J50.asm
                    TMR1L   0x000fce       data     extern C:\MCC18\src\traditional\proc\p18F67J50.asm
                     TMR2   0x000fcc       data     extern C:\MCC18\src\traditional\proc\p18F67J50.asm
                    TMR3H   0x000f7b       data     extern C:\MCC18\src\traditional\proc\p18F67J50.asm
                    TMR3L   0x000f7a       data     extern C:\MCC18\src\traditional\proc\p18F67J50.asm
                     TMR4   0x000f78       data     extern C:\MCC18\src\traditional\proc\p18F67J50.asm
                      TOS   0x000ffd       data     extern C:\MCC18\src\traditional\proc\p18F67J50.asm
                     TOSH   0x000ffe       data     extern C:\MCC18\src\traditional\proc\p18F67J50.asm
                     TOSL   0x000ffd       data     extern C:\MCC18\src\traditional\proc\p18F67J50.asm
                     TOSU   0x000fff       data     extern C:\MCC18\src\traditional\proc\p18F67J50.asm
                    TRISA   0x000f92       data     extern C:\MCC18\src\traditional\proc\p18F67J50.asm
                TRISAbits   0x000f92       data     extern C:\MCC18\src\traditional\proc\p18F67J50.asm
                    TRISB   0x000f93       data     extern C:\MCC18\src\traditional\proc\p18F67J50.asm
                TRISBbits   0x000f93       data     extern C:\MCC18\src\traditional\proc\p18F67J50.asm
                    TRISC   0x000f94       data     extern C:\MCC18\src\traditional\proc\p18F67J50.asm
                TRISCbits   0x000f94       data     extern C:\MCC18\src\traditional\proc\p18F67J50.asm
                    TRISD   0x000f95       data     extern C:\MCC18\src\traditional\proc\p18F67J50.asm
                TRISDbits   0x000f95       data     extern C:\MCC18\src\traditional\proc\p18F67J50.asm
                    TRISE   0x000f96       data     extern C:\MCC18\src\traditional\proc\p18F67J50.asm
                TRISEbits   0x000f96       data     extern C:\MCC18\src\traditional\proc\p18F67J50.asm
                    TRISF   0x000f97       data     extern C:\MCC18\src\traditional\proc\p18F67J50.asm
                TRISFbits   0x000f97       data     extern C:\MCC18\src\traditional\proc\p18F67J50.asm
                    TRISG   0x000f98       data     extern C:\MCC18\src\traditional\proc\p18F67J50.asm
                TRISGbits   0x000f98       data     extern C:\MCC18\src\traditional\proc\p18F67J50.asm
                    TXREG   0x000fae       data     extern C:\MCC18\src\traditional\proc\p18F67J50.asm
                   TXREG1   0x000fae       data     extern C:\MCC18\src\traditional\proc\p18F67J50.asm
                   TXREG2   0x000fa9       data     extern C:\MCC18\src\traditional\proc\p18F67J50.asm
                    TXSTA   0x000fad       data     extern C:\MCC18\src\traditional\proc\p18F67J50.asm
                   TXSTA1   0x000fad       data     extern C:\MCC18\src\traditional\proc\p18F67J50.asm
               TXSTA1bits   0x000fad       data     extern C:\MCC18\src\traditional\proc\p18F67J50.asm
                   TXSTA2   0x000fa8       data     extern C:\MCC18\src\traditional\proc\p18F67J50.asm
               TXSTA2bits   0x000fa8       data     extern C:\MCC18\src\traditional\proc\p18F67J50.asm
                TXSTAbits   0x000fad       data     extern C:\MCC18\src\traditional\proc\p18F67J50.asm
                TestMMC_e   0x000e60       data     extern C:\Documents and Settings\user\Desktop\PIC-LCD3310_test\Software\PIC-LCD3310_TEST_DEMO\main.c
                TestMMC_s   0x000e7a       data     extern C:\Documents and Settings\user\Desktop\PIC-LCD3310_test\Software\PIC-LCD3310_TEST_DEMO\main.c
                TestUSB_e   0x0004a8       data     extern C:\Documents and Settings\user\Desktop\PIC-LCD3310_test\Software\PIC-LCD3310_TEST_DEMO\user\user.c
                TestUSB_s   0x0004b3       data     extern C:\Documents and Settings\user\Desktop\PIC-LCD3310_test\Software\PIC-LCD3310_TEST_DEMO\user\user.c
                    UADDR   0x000f5e       data     extern C:\MCC18\src\traditional\proc\p18F67J50.asm
                UADDRbits   0x000f5e       data     extern C:\MCC18\src\traditional\proc\p18F67J50.asm
                     UCFG   0x000f5f       data     extern C:\MCC18\src\traditional\proc\p18F67J50.asm
                 UCFGbits   0x000f5f       data     extern C:\MCC18\src\traditional\proc\p18F67J50.asm
                     UCON   0x000f65       data     extern C:\MCC18\src\traditional\proc\p18F67J50.asm
                 UCONbits   0x000f65       data     extern C:\MCC18\src\traditional\proc\p18F67J50.asm
                     UEIE   0x000f5d       data     extern C:\MCC18\src\traditional\proc\p18F67J50.asm
                 UEIEbits   0x000f5d       data     extern C:\MCC18\src\traditional\proc\p18F67J50.asm
                     UEIR   0x000f63       data     extern C:\MCC18\src\traditional\proc\p18F67J50.asm
                 UEIRbits   0x000f63       data     extern C:\MCC18\src\traditional\proc\p18F67J50.asm
                     UEP0   0x000f4c       data     extern C:\MCC18\src\traditional\proc\p18F67J50.asm
                 UEP0bits   0x000f4c       data     extern C:\MCC18\src\traditional\proc\p18F67J50.asm
                     UEP1   0x000f4d       data     extern C:\MCC18\src\traditional\proc\p18F67J50.asm
                    UEP10   0x000f56       data     extern C:\MCC18\src\traditional\proc\p18F67J50.asm
                UEP10bits   0x000f56       data     extern C:\MCC18\src\traditional\proc\p18F67J50.asm
                    UEP11   0x000f57       data     extern C:\MCC18\src\traditional\proc\p18F67J50.asm
                UEP11bits   0x000f57       data     extern C:\MCC18\src\traditional\proc\p18F67J50.asm
                    UEP12   0x000f58       data     extern C:\MCC18\src\traditional\proc\p18F67J50.asm
                UEP12bits   0x000f58       data     extern C:\MCC18\src\traditional\proc\p18F67J50.asm
                    UEP13   0x000f59       data     extern C:\MCC18\src\traditional\proc\p18F67J50.asm
                UEP13bits   0x000f59       data     extern C:\MCC18\src\traditional\proc\p18F67J50.asm
                    UEP14   0x000f5a       data     extern C:\MCC18\src\traditional\proc\p18F67J50.asm
                UEP14bits   0x000f5a       data     extern C:\MCC18\src\traditional\proc\p18F67J50.asm
                    UEP15   0x000f5b       data     extern C:\MCC18\src\traditional\proc\p18F67J50.asm
                UEP15bits   0x000f5b       data     extern C:\MCC18\src\traditional\proc\p18F67J50.asm
                 UEP1bits   0x000f4d       data     extern C:\MCC18\src\traditional\proc\p18F67J50.asm
                     UEP2   0x000f4e       data     extern C:\MCC18\src\traditional\proc\p18F67J50.asm
                 UEP2bits   0x000f4e       data     extern C:\MCC18\src\traditional\proc\p18F67J50.asm
                     UEP3   0x000f4f       data     extern C:\MCC18\src\traditional\proc\p18F67J50.asm
                 UEP3bits   0x000f4f       data     extern C:\MCC18\src\traditional\proc\p18F67J50.asm
                     UEP4   0x000f50       data     extern C:\MCC18\src\traditional\proc\p18F67J50.asm
                 UEP4bits   0x000f50       data     extern C:\MCC18\src\traditional\proc\p18F67J50.asm
                     UEP5   0x000f51       data     extern C:\MCC18\src\traditional\proc\p18F67J50.asm
                 UEP5bits   0x000f51       data     extern C:\MCC18\src\traditional\proc\p18F67J50.asm
                     UEP6   0x000f52       data     extern C:\MCC18\src\traditional\proc\p18F67J50.asm
                 UEP6bits   0x000f52       data     extern C:\MCC18\src\traditional\proc\p18F67J50.asm
                     UEP7   0x000f53       data     extern C:\MCC18\src\traditional\proc\p18F67J50.asm
                 UEP7bits   0x000f53       data     extern C:\MCC18\src\traditional\proc\p18F67J50.asm
                     UEP8   0x000f54       data     extern C:\MCC18\src\traditional\proc\p18F67J50.asm
                 UEP8bits   0x000f54       data     extern C:\MCC18\src\traditional\proc\p18F67J50.asm
                     UEP9   0x000f55       data     extern C:\MCC18\src\traditional\proc\p18F67J50.asm
                 UEP9bits   0x000f55       data     extern C:\MCC18\src\traditional\proc\p18F67J50.asm
                     UFRM   0x000f60       data     extern C:\MCC18\src\traditional\proc\p18F67J50.asm
                    UFRMH   0x000f61       data     extern C:\MCC18\src\traditional\proc\p18F67J50.asm
                UFRMHbits   0x000f61       data     extern C:\MCC18\src\traditional\proc\p18F67J50.asm
                    UFRML   0x000f60       data     extern C:\MCC18\src\traditional\proc\p18F67J50.asm
                UFRMLbits   0x000f60       data     extern C:\MCC18\src\traditional\proc\p18F67J50.asm
                      UIE   0x000f5c       data     extern C:\MCC18\src\traditional\proc\p18F67J50.asm
                  UIEbits   0x000f5c       data     extern C:\MCC18\src\traditional\proc\p18F67J50.asm
                      UIR   0x000f62       data     extern C:\MCC18\src\traditional\proc\p18F67J50.asm
                  UIRbits   0x000f62       data     extern C:\MCC18\src\traditional\proc\p18F67J50.asm
                    USB_C   0x000eaa       data     extern C:\Documents and Settings\user\Desktop\PIC-LCD3310_test\Software\PIC-LCD3310_TEST_DEMO\main.c
                   USB_NC   0x000eb9       data     extern C:\Documents and Settings\user\Desktop\PIC-LCD3310_test\Software\PIC-LCD3310_TEST_DEMO\main.c
                    USTAT   0x000f64       data     extern C:\MCC18\src\traditional\proc\p18F67J50.asm
                USTATbits   0x000f64       data     extern C:\MCC18\src\traditional\proc\p18F67J50.asm
           VCC_test_state   0x0001a4       data     extern C:\Documents and Settings\user\Desktop\PIC-LCD3310_test\Software\PIC-LCD3310_TEST_DEMO\test.c
                   WDTCON   0x000fc0       data     extern C:\MCC18\src\traditional\proc\p18F67J50.asm
               WDTCONbits   0x000fc0       data     extern C:\MCC18\src\traditional\proc\p18F67J50.asm
                       WP   0x000e97       data     extern C:\Documents and Settings\user\Desktop\PIC-LCD3310_test\Software\PIC-LCD3310_TEST_DEMO\main.c
                     WREG   0x000fe8       data     extern C:\MCC18\src\traditional\proc\p18F67J50.asm
                 __AARGB0   0x000009       data     extern C:\MCC18\src\traditional\math\aarg.asm
                 __AARGB1   0x000008       data     extern C:\MCC18\src\traditional\math\aarg.asm
                 __AARGB2   0x000007       data     extern C:\MCC18\src\traditional\math\aarg.asm
                 __AARGB3   0x000006       data     extern C:\MCC18\src\traditional\math\aarg.asm
                 __AARGB4   0x000005       data     extern C:\MCC18\src\traditional\math\aarg.asm
                 __AARGB5   0x000004       data     extern C:\MCC18\src\traditional\math\aarg.asm
                 __AARGB6   0x000003       data     extern C:\MCC18\src\traditional\math\aarg.asm
                 __AARGB7   0x000002       data     extern C:\MCC18\src\traditional\math\aarg.asm
                   __AEXP   0x00000a       data     extern C:\MCC18\src\traditional\math\aarg.asm
                 __BARGB0   0x00000e       data     extern C:\MCC18\src\traditional\math\barg.asm
                 __BARGB1   0x00000d       data     extern C:\MCC18\src\traditional\math\barg.asm
                 __BARGB2   0x00000c       data     extern C:\MCC18\src\traditional\math\barg.asm
                 __BARGB3   0x00000b       data     extern C:\MCC18\src\traditional\math\barg.asm
                   __BEXP   0x00000f       data     extern C:\MCC18\src\traditional\math\barg.asm
                __FPFLAGS   0x000001       data     extern C:\MCC18\src\traditional\math\cmath18.asm
            __FPFLAGSbits   0x000001       data     extern C:\MCC18\src\traditional\math\cmath18.asm
                  __REMB0   0x000005       data     extern C:\MCC18\src\traditional\math\aarg.asm
                  __REMB1   0x000004       data     extern C:\MCC18\src\traditional\math\aarg.asm
                  __REMB2   0x000003       data     extern C:\MCC18\src\traditional\math\aarg.asm
                  __REMB3   0x000002       data     extern C:\MCC18\src\traditional\math\aarg.asm
                   __TEMP   0x000013       data     extern C:\MCC18\src\traditional\math\temparg.asm
                 __TEMPB0   0x000013       data     extern C:\MCC18\src\traditional\math\temparg.asm
                 __TEMPB1   0x000012       data     extern C:\MCC18\src\traditional\math\temparg.asm
                 __TEMPB2   0x000011       data     extern C:\MCC18\src\traditional\math\temparg.asm
                 __TEMPB3   0x000010       data     extern C:\MCC18\src\traditional\math\temparg.asm
                  __tmp_0   0x000014       data     static C:\MCC18\src\traditional\stdclib\sprintf.c
                  __tmp_0   0x000014       data     static C:\MCC18\src\traditional\stdclib\vfprintf.c
                  __tmp_0   0x000014       data     static C:\MCC18\src\traditional\stdclib\putc.c
                  __tmp_0   0x000014       data     static C:\Documents and Settings\user\Desktop\PIC-LCD3310_test\Software\PIC-LCD3310_TEST_DEMO\main.c
                  __tmp_0   0x000014       data     static C:\Documents and Settings\user\Desktop\PIC-LCD3310_test\Software\PIC-LCD3310_TEST_DEMO\system\usb\class\generic\usbgen.c
                  __tmp_0   0x000014       data     static C:\Documents and Settings\user\Desktop\PIC-LCD3310_test\Software\PIC-LCD3310_TEST_DEMO\system\usb\usb9\usb9.c
                  __tmp_0   0x000014       data     static C:\Documents and Settings\user\Desktop\PIC-LCD3310_test\Software\PIC-LCD3310_TEST_DEMO\system\usb\usbctrltrf\usbctrltrf.c
                  __tmp_0   0x000014       data     static C:\Documents and Settings\user\Desktop\PIC-LCD3310_test\Software\PIC-LCD3310_TEST_DEMO\lcd.c
                  __tmp_0   0x000014       data     static C:\Documents and Settings\user\Desktop\PIC-LCD3310_test\Software\PIC-LCD3310_TEST_DEMO\mmc.c
                  __tmp_0   0x000014       data     static C:\Documents and Settings\user\Desktop\PIC-LCD3310_test\Software\PIC-LCD3310_TEST_DEMO\user\user.c
                  __tmp_0   0x000014       data     static C:\Documents and Settings\user\Desktop\PIC-LCD3310_test\Software\PIC-LCD3310_TEST_DEMO\test.c
            and_press_BUT   0x0004e7       data     extern C:\Documents and Settings\user\Desktop\PIC-LCD3310_test\Software\PIC-LCD3310_TEST_DEMO\user\user.c
              bTRNIFCount   0x00028c       data     extern C:\Documents and Settings\user\Desktop\PIC-LCD3310_test\Software\PIC-LCD3310_TEST_DEMO\system\usb\usbdrv\usbdrv.c
                bat_sense   0x000202       data     extern C:\Documents and Settings\user\Desktop\PIC-LCD3310_test\Software\PIC-LCD3310_TEST_DEMO\user\user.c
                      buf   0x000100       data     extern C:\Documents and Settings\user\Desktop\PIC-LCD3310_test\Software\PIC-LCD3310_TEST_DEMO\main.c
                  counter   0x000207       data     extern C:\Documents and Settings\user\Desktop\PIC-LCD3310_test\Software\PIC-LCD3310_TEST_DEMO\user\user.c
   ctrl_trf_session_owner   0x000eec       data     extern C:\Documents and Settings\user\Desktop\PIC-LCD3310_test\Software\PIC-LCD3310_TEST_DEMO\system\usb\usbctrltrf\usbctrltrf.c
           ctrl_trf_state   0x000eeb       data     extern C:\Documents and Settings\user\Desktop\PIC-LCD3310_test\Software\PIC-LCD3310_TEST_DEMO\system\usb\usbctrltrf\usbctrltrf.c
                  cur_pos   0x000edb       data     extern C:\Documents and Settings\user\Desktop\PIC-LCD3310_test\Software\PIC-LCD3310_TEST_DEMO\main.c
                curr_byte   0x0004f9       data     static C:\MCC18\src\traditional\startup\c018i.c
               curr_entry   0x0004fb       data     static C:\MCC18\src\traditional\startup\c018i.c
               dataPacket   0x00020a       data     extern C:\Documents and Settings\user\Desktop\PIC-LCD3310_test\Software\PIC-LCD3310_TEST_DEMO\user\user.c
                 data_ptr   0x0004fd       data     static C:\MCC18\src\traditional\startup\c018i.c
              delay_count   0x00028d       data     static C:\Documents and Settings\user\Desktop\PIC-LCD3310_test\Software\PIC-LCD3310_TEST_DEMO\system\usb\usbdrv\usbdrv.c
                      dly   0x00019e       data     extern C:\Documents and Settings\user\Desktop\PIC-LCD3310_test\Software\PIC-LCD3310_TEST_DEMO\main.c
                    ep0Bi   0x000404       data     extern C:\Documents and Settings\user\Desktop\PIC-LCD3310_test\Software\PIC-LCD3310_TEST_DEMO\system\usb\usbmmap.c
                    ep0Bo   0x000400       data     extern C:\Documents and Settings\user\Desktop\PIC-LCD3310_test\Software\PIC-LCD3310_TEST_DEMO\system\usb\usbmmap.c
                    ep1Bi   0x00040c       data     extern C:\Documents and Settings\user\Desktop\PIC-LCD3310_test\Software\PIC-LCD3310_TEST_DEMO\system\usb\usbmmap.c
                    ep1Bo   0x000408       data     extern C:\Documents and Settings\user\Desktop\PIC-LCD3310_test\Software\PIC-LCD3310_TEST_DEMO\system\usb\usbmmap.c
                    ep2Bi   0x000414       data     extern C:\Documents and Settings\user\Desktop\PIC-LCD3310_test\Software\PIC-LCD3310_TEST_DEMO\system\usb\usbmmap.c
                    ep2Bo   0x000410       data     extern C:\Documents and Settings\user\Desktop\PIC-LCD3310_test\Software\PIC-LCD3310_TEST_DEMO\system\usb\usbmmap.c
           ext_test_state   0x0001c2       data     extern C:\Documents and Settings\user\Desktop\PIC-LCD3310_test\Software\PIC-LCD3310_TEST_DEMO\test.c
          ext_test_state2   0x0001ea       data     extern C:\Documents and Settings\user\Desktop\PIC-LCD3310_test\Software\PIC-LCD3310_TEST_DEMO\test.c
                gnd_state   0x000ee7       data     extern C:\Documents and Settings\user\Desktop\PIC-LCD3310_test\Software\PIC-LCD3310_TEST_DEMO\test.c
                        i   0x00010a       data     extern C:\Documents and Settings\user\Desktop\PIC-LCD3310_test\Software\PIC-LCD3310_TEST_DEMO\main.c
                        j   0x00010c       data     extern C:\Documents and Settings\user\Desktop\PIC-LCD3310_test\Software\PIC-LCD3310_TEST_DEMO\main.c
                        k   0x0000fe       data     extern C:\Documents and Settings\user\Desktop\PIC-LCD3310_test\Software\PIC-LCD3310_TEST_DEMO\lcd.c
              mask_port_a   0x000edd       data     extern C:\Documents and Settings\user\Desktop\PIC-LCD3310_test\Software\PIC-LCD3310_TEST_DEMO\test.c
              mask_port_b   0x000ede       data     extern C:\Documents and Settings\user\Desktop\PIC-LCD3310_test\Software\PIC-LCD3310_TEST_DEMO\test.c
              mask_port_c   0x000ee0       data     extern C:\Documents and Settings\user\Desktop\PIC-LCD3310_test\Software\PIC-LCD3310_TEST_DEMO\test.c
         mask_port_c_uext   0x000ee8       data     extern C:\Documents and Settings\user\Desktop\PIC-LCD3310_test\Software\PIC-LCD3310_TEST_DEMO\test.c
         mask_port_d_uext   0x000ee9       data     extern C:\Documents and Settings\user\Desktop\PIC-LCD3310_test\Software\PIC-LCD3310_TEST_DEMO\test.c
              mask_port_e   0x000ee1       data     extern C:\Documents and Settings\user\Desktop\PIC-LCD3310_test\Software\PIC-LCD3310_TEST_DEMO\test.c
         mask_port_e_uext   0x000eea       data     extern C:\Documents and Settings\user\Desktop\PIC-LCD3310_test\Software\PIC-LCD3310_TEST_DEMO\test.c
              mask_port_f   0x000ee2       data     extern C:\Documents and Settings\user\Desktop\PIC-LCD3310_test\Software\PIC-LCD3310_TEST_DEMO\test.c
              mask_port_g   0x000ee3       data     extern C:\Documents and Settings\user\Desktop\PIC-LCD3310_test\Software\PIC-LCD3310_TEST_DEMO\test.c
                menu_flag   0x000ed9       data     extern C:\Documents and Settings\user\Desktop\PIC-LCD3310_test\Software\PIC-LCD3310_TEST_DEMO\main.c
               mmc_buffer   0x000300       data     extern C:\Documents and Settings\user\Desktop\PIC-LCD3310_test\Software\PIC-LCD3310_TEST_DEMO\mmc.c
        mmc_buffer_test_1   0x00011e       data     extern C:\Documents and Settings\user\Desktop\PIC-LCD3310_test\Software\PIC-LCD3310_TEST_DEMO\main.c
                  new_pos   0x000eda       data     extern C:\Documents and Settings\user\Desktop\PIC-LCD3310_test\Software\PIC-LCD3310_TEST_DEMO\main.c
                   offset   0x000ed8       data     extern C:\Documents and Settings\user\Desktop\PIC-LCD3310_test\Software\PIC-LCD3310_TEST_DEMO\main.c
                  old_sw2   0x000205       data     extern C:\Documents and Settings\user\Desktop\PIC-LCD3310_test\Software\PIC-LCD3310_TEST_DEMO\user\user.c
                  old_sw3   0x000206       data     extern C:\Documents and Settings\user\Desktop\PIC-LCD3310_test\Software\PIC-LCD3310_TEST_DEMO\user\user.c
                     pDst   0x000eef       data     extern C:\Documents and Settings\user\Desktop\PIC-LCD3310_test\Software\PIC-LCD3310_TEST_DEMO\system\usb\usbctrltrf\usbctrltrf.c
                     pSrc   0x000eed       data     extern C:\Documents and Settings\user\Desktop\PIC-LCD3310_test\Software\PIC-LCD3310_TEST_DEMO\system\usb\usbctrltrf\usbctrltrf.c
                    pTemp   0x00024a       data     extern C:\Documents and Settings\user\Desktop\PIC-LCD3310_test\Software\PIC-LCD3310_TEST_DEMO\user\user.c
                     prom   0x0004f6       data     static C:\MCC18\src\traditional\startup\c018i.c
                  put_BAT   0x0004d9       data     extern C:\Documents and Settings\user\Desktop\PIC-LCD3310_test\Software\PIC-LCD3310_TEST_DEMO\user\user.c
                res_sense   0x000200       data     extern C:\Documents and Settings\user\Desktop\PIC-LCD3310_test\Software\PIC-LCD3310_TEST_DEMO\user\user.c
                     resl   0x00010e       data     extern C:\Documents and Settings\user\Desktop\PIC-LCD3310_test\Software\PIC-LCD3310_TEST_DEMO\main.c
                     resx   0x000110       data     extern C:\Documents and Settings\user\Desktop\PIC-LCD3310_test\Software\PIC-LCD3310_TEST_DEMO\main.c
                     resy   0x000112       data     extern C:\Documents and Settings\user\Desktop\PIC-LCD3310_test\Software\PIC-LCD3310_TEST_DEMO\main.c
                     resz   0x000114       data     extern C:\Documents and Settings\user\Desktop\PIC-LCD3310_test\Software\PIC-LCD3310_TEST_DEMO\main.c
                      row   0x0000fc       data     extern C:\Documents and Settings\user\Desktop\PIC-LCD3310_test\Software\PIC-LCD3310_TEST_DEMO\lcd.c
         short_pkt_status   0x000ef3       data     extern C:\Documents and Settings\user\Desktop\PIC-LCD3310_test\Software\PIC-LCD3310_TEST_DEMO\system\usb\usbctrltrf\usbctrltrf.c
                state_mmc   0x000ed7       data     extern C:\Documents and Settings\user\Desktop\PIC-LCD3310_test\Software\PIC-LCD3310_TEST_DEMO\main.c
                      sym   0x00011c       data     extern C:\Documents and Settings\user\Desktop\PIC-LCD3310_test\Software\PIC-LCD3310_TEST_DEMO\main.c
                temp_data   0x00024c       data     extern C:\Documents and Settings\user\Desktop\PIC-LCD3310_test\Software\PIC-LCD3310_TEST_DEMO\user\user.c
                temp_mode   0x000209       data     extern C:\Documents and Settings\user\Desktop\PIC-LCD3310_test\Software\PIC-LCD3310_TEST_DEMO\user\user.c
                     test   0x000ee4       data     extern C:\Documents and Settings\user\Desktop\PIC-LCD3310_test\Software\PIC-LCD3310_TEST_DEMO\test.c
               test_state   0x000edc       data     extern C:\Documents and Settings\user\Desktop\PIC-LCD3310_test\Software\PIC-LCD3310_TEST_DEMO\main.c
                trf_state   0x000208       data     extern C:\Documents and Settings\user\Desktop\PIC-LCD3310_test\Software\PIC-LCD3310_TEST_DEMO\user\user.c
          uext_test_state   0x0001d6       data     extern C:\Documents and Settings\user\Desktop\PIC-LCD3310_test\Software\PIC-LCD3310_TEST_DEMO\test.c
           usb_active_cfg   0x00028a       data     extern C:\Documents and Settings\user\Desktop\PIC-LCD3310_test\Software\PIC-LCD3310_TEST_DEMO\system\usb\usbmmap.c
             usb_alt_intf   0x00028b       data     extern C:\Documents and Settings\user\Desktop\PIC-LCD3310_test\Software\PIC-LCD3310_TEST_DEMO\system\usb\usbmmap.c
         usb_device_state   0x000288       data     extern C:\Documents and Settings\user\Desktop\PIC-LCD3310_test\Software\PIC-LCD3310_TEST_DEMO\system\usb\usbmmap.c
                 usb_stat   0x000289       data     extern C:\Documents and Settings\user\Desktop\PIC-LCD3310_test\Software\PIC-LCD3310_TEST_DEMO\system\usb\usbmmap.c
                usbgen_in   0x000468       data     extern C:\Documents and Settings\user\Desktop\PIC-LCD3310_test\Software\PIC-LCD3310_TEST_DEMO\system\usb\usbmmap.c
               usbgen_out   0x000428       data     extern C:\Documents and Settings\user\Desktop\PIC-LCD3310_test\Software\PIC-LCD3310_TEST_DEMO\system\usb\usbmmap.c
            usbgen_rx_len   0x0001fe       data     extern C:\Documents and Settings\user\Desktop\PIC-LCD3310_test\Software\PIC-LCD3310_TEST_DEMO\system\usb\class\generic\usbgen.c
               valid_temp   0x00024b       data     extern C:\Documents and Settings\user\Desktop\PIC-LCD3310_test\Software\PIC-LCD3310_TEST_DEMO\user\user.c
                vcc_state   0x000ee6       data     extern C:\Documents and Settings\user\Desktop\PIC-LCD3310_test\Software\PIC-LCD3310_TEST_DEMO\test.c
                   wCount   0x000ef1       data     extern C:\Documents and Settings\user\Desktop\PIC-LCD3310_test\Software\PIC-LCD3310_TEST_DEMO\system\usb\usbctrltrf\usbctrltrf.c
                        x   0x000116       data     extern C:\Documents and Settings\user\Desktop\PIC-LCD3310_test\Software\PIC-LCD3310_TEST_DEMO\main.c
                        y   0x000118       data     extern C:\Documents and Settings\user\Desktop\PIC-LCD3310_test\Software\PIC-LCD3310_TEST_DEMO\main.c
                        z   0x00011a       data     extern C:\Documents and Settings\user\Desktop\PIC-LCD3310_test\Software\PIC-LCD3310_TEST_DEMO\main.c



                              Symbols - Sorted by Address
                     Name    Address   Location    Storage File                     
                ---------  ---------  ---------  --------- ---------                
                   _entry   0x000000    program     extern C:\MCC18\src\traditional\startup\c018i.c
       ___return_lbl00000   0x000004    program     static                          
       InterruptTimerHigh   0x000008    program     extern C:\Documents and Settings\user\Desktop\PIC-LCD3310_test\Software\PIC-LCD3310_TEST_DEMO\main.c
       ___return_lbl00000   0x00000c    program     static                          
            Timer1ISRHigh   0x00005c    program     extern C:\Documents and Settings\user\Desktop\PIC-LCD3310_test\Software\PIC-LCD3310_TEST_DEMO\main.c
           joystick_right   0x000086    program     extern C:\Documents and Settings\user\Desktop\PIC-LCD3310_test\Software\PIC-LCD3310_TEST_DEMO\main.c
            joystick_left   0x00009c    program     extern C:\Documents and Settings\user\Desktop\PIC-LCD3310_test\Software\PIC-LCD3310_TEST_DEMO\main.c
          joystick_select   0x0000b2    program     extern C:\Documents and Settings\user\Desktop\PIC-LCD3310_test\Software\PIC-LCD3310_TEST_DEMO\main.c
              joystick_up   0x0000c8    program     extern C:\Documents and Settings\user\Desktop\PIC-LCD3310_test\Software\PIC-LCD3310_TEST_DEMO\main.c
            joystick_down   0x0000de    program     extern C:\Documents and Settings\user\Desktop\PIC-LCD3310_test\Software\PIC-LCD3310_TEST_DEMO\main.c
                 InitLED1   0x0000f4    program     extern C:\Documents and Settings\user\Desktop\PIC-LCD3310_test\Software\PIC-LCD3310_TEST_DEMO\main.c
                 InitLED2   0x000102    program     extern C:\Documents and Settings\user\Desktop\PIC-LCD3310_test\Software\PIC-LCD3310_TEST_DEMO\main.c
               ToggleLED2   0x000110    program     extern C:\Documents and Settings\user\Desktop\PIC-LCD3310_test\Software\PIC-LCD3310_TEST_DEMO\main.c
                 test_mmc   0x000116    program     extern C:\Documents and Settings\user\Desktop\PIC-LCD3310_test\Software\PIC-LCD3310_TEST_DEMO\main.c
               printdigit   0x00037a    program     extern C:\Documents and Settings\user\Desktop\PIC-LCD3310_test\Software\PIC-LCD3310_TEST_DEMO\main.c
                 test_MMA   0x000518    program     extern C:\Documents and Settings\user\Desktop\PIC-LCD3310_test\Software\PIC-LCD3310_TEST_DEMO\main.c
            test_joystick   0x000d4c    program     extern C:\Documents and Settings\user\Desktop\PIC-LCD3310_test\Software\PIC-LCD3310_TEST_DEMO\main.c
         InitializeSystem   0x000ff0    program     static C:\Documents and Settings\user\Desktop\PIC-LCD3310_test\Software\PIC-LCD3310_TEST_DEMO\main.c
                 USBTasks   0x001052    program     extern C:\Documents and Settings\user\Desktop\PIC-LCD3310_test\Software\PIC-LCD3310_TEST_DEMO\main.c
               UpdateMenu   0x001062    program     extern C:\Documents and Settings\user\Desktop\PIC-LCD3310_test\Software\PIC-LCD3310_TEST_DEMO\main.c
      GetJoystickPosition   0x0011e6    program     extern C:\Documents and Settings\user\Desktop\PIC-LCD3310_test\Software\PIC-LCD3310_TEST_DEMO\main.c
                     main   0x0012ea    program     extern C:\Documents and Settings\user\Desktop\PIC-LCD3310_test\Software\PIC-LCD3310_TEST_DEMO\main.c
               AllAsInput   0x001804    program     extern C:\Documents and Settings\user\Desktop\PIC-LCD3310_test\Software\PIC-LCD3310_TEST_DEMO\test.c
      PinAsOutputLowPortG   0x00184e    program     extern C:\Documents and Settings\user\Desktop\PIC-LCD3310_test\Software\PIC-LCD3310_TEST_DEMO\test.c
      PinAsOutputLowPortB   0x0018d2    program     extern C:\Documents and Settings\user\Desktop\PIC-LCD3310_test\Software\PIC-LCD3310_TEST_DEMO\test.c
      PinAsOutputLowPortC   0x001968    program     extern C:\Documents and Settings\user\Desktop\PIC-LCD3310_test\Software\PIC-LCD3310_TEST_DEMO\test.c
      PinAsOutputLowPortE   0x0019fe    program     extern C:\Documents and Settings\user\Desktop\PIC-LCD3310_test\Software\PIC-LCD3310_TEST_DEMO\test.c
      PinAsOutputLowPortD   0x001a94    program     extern C:\Documents and Settings\user\Desktop\PIC-LCD3310_test\Software\PIC-LCD3310_TEST_DEMO\test.c
      PinAsOutputLowPortF   0x001b2a    program     extern C:\Documents and Settings\user\Desktop\PIC-LCD3310_test\Software\PIC-LCD3310_TEST_DEMO\test.c
              PullUp1High   0x001bc0    program     extern C:\Documents and Settings\user\Desktop\PIC-LCD3310_test\Software\PIC-LCD3310_TEST_DEMO\test.c
               PullUp1Low   0x001bc8    program     extern C:\Documents and Settings\user\Desktop\PIC-LCD3310_test\Software\PIC-LCD3310_TEST_DEMO\test.c
              PullUp2High   0x001bd0    program     extern C:\Documents and Settings\user\Desktop\PIC-LCD3310_test\Software\PIC-LCD3310_TEST_DEMO\test.c
               PullUp2Low   0x001bd8    program     extern C:\Documents and Settings\user\Desktop\PIC-LCD3310_test\Software\PIC-LCD3310_TEST_DEMO\test.c
                 TestExt1   0x001be0    program     extern C:\Documents and Settings\user\Desktop\PIC-LCD3310_test\Software\PIC-LCD3310_TEST_DEMO\test.c
           AllUEXTAsInput   0x0023ea    program     extern C:\Documents and Settings\user\Desktop\PIC-LCD3310_test\Software\PIC-LCD3310_TEST_DEMO\test.c
           PullUpUEXTHigh   0x002400    program     extern C:\Documents and Settings\user\Desktop\PIC-LCD3310_test\Software\PIC-LCD3310_TEST_DEMO\test.c
            PullUpUEXTLow   0x00240c    program     extern C:\Documents and Settings\user\Desktop\PIC-LCD3310_test\Software\PIC-LCD3310_TEST_DEMO\test.c
                 TestUEXT   0x002418    program     extern C:\Documents and Settings\user\Desktop\PIC-LCD3310_test\Software\PIC-LCD3310_TEST_DEMO\test.c
            s_put_n_chars   0x0028a2    program     static C:\MCC18\src\traditional\stdclib\vfprintf.c
                 vfprintf   0x0028ce    program     extern C:\MCC18\src\traditional\stdclib\vfprintf.c
              __tmplbl_85   0x0028f8    program     static                          
              __tmplbl_44   0x0031a6    program     static                          
              __tmplbl_43   0x0031c0    program     static                          
                   __pa_0   0x0031e2    program     static C:\MCC18\src\traditional\stdclib\vfprintf.c
                   __pa_1   0x0031ea    program     static C:\MCC18\src\traditional\stdclib\vfprintf.c
                   __pa_2   0x0031f4    program     static C:\MCC18\src\traditional\stdclib\vfprintf.c
                   __pa_3   0x0031fe    program     static C:\MCC18\src\traditional\stdclib\vfprintf.c
                   __pa_4   0x003216    program     static C:\MCC18\src\traditional\stdclib\vfprintf.c
                   __pa_5   0x00322a    program     static C:\MCC18\src\traditional\stdclib\vfprintf.c
                   __pa_6   0x003246    program     static C:\MCC18\src\traditional\stdclib\vfprintf.c
                   __pa_7   0x003250    program     static C:\MCC18\src\traditional\stdclib\vfprintf.c
                   __pa_8   0x00325c    program     static C:\MCC18\src\traditional\stdclib\vfprintf.c
                   __pa_9   0x00327e    program     static C:\MCC18\src\traditional\stdclib\vfprintf.c
                  __pa_10   0x00329e    program     static C:\MCC18\src\traditional\stdclib\vfprintf.c
                  __pa_11   0x0032ac    program     static C:\MCC18\src\traditional\stdclib\vfprintf.c
                  __pa_12   0x0032c2    program     static C:\MCC18\src\traditional\stdclib\vfprintf.c
                  __pa_13   0x0032dc    program     static C:\MCC18\src\traditional\stdclib\vfprintf.c
                  __pa_14   0x0032f4    program     static C:\MCC18\src\traditional\stdclib\vfprintf.c
                  __pa_15   0x003304    program     static C:\MCC18\src\traditional\stdclib\vfprintf.c
                  __pa_16   0x00331a    program     static C:\MCC18\src\traditional\stdclib\vfprintf.c
                  __pa_17   0x00332c    program     static C:\MCC18\src\traditional\stdclib\vfprintf.c
                  __pa_18   0x00333e    program     static C:\MCC18\src\traditional\stdclib\vfprintf.c
                  __pa_19   0x003348    program     static C:\MCC18\src\traditional\stdclib\vfprintf.c
                  __pa_20   0x003358    program     static C:\MCC18\src\traditional\stdclib\vfprintf.c
                  __pa_21   0x003368    program     static C:\MCC18\src\traditional\stdclib\vfprintf.c
              __tmplbl_42   0x003378    program     static                          
                  __pa_22   0x003378    program     static C:\MCC18\src\traditional\stdclib\vfprintf.c
                  __pa_23   0x003384    program     static C:\MCC18\src\traditional\stdclib\vfprintf.c
                  __pa_24   0x003392    program     static C:\MCC18\src\traditional\stdclib\vfprintf.c
                  __pa_25   0x00339a    program     static C:\MCC18\src\traditional\stdclib\vfprintf.c
                  __pa_26   0x0033a4    program     static C:\MCC18\src\traditional\stdclib\vfprintf.c
                  __pa_27   0x0033ae    program     static C:\MCC18\src\traditional\stdclib\vfprintf.c
                  __pa_28   0x0033b6    program     static C:\MCC18\src\traditional\stdclib\vfprintf.c
                  __pa_29   0x0033c4    program     static C:\MCC18\src\traditional\stdclib\vfprintf.c
                  __pa_30   0x0033e0    program     static C:\MCC18\src\traditional\stdclib\vfprintf.c
                  __pa_31   0x0033fa    program     static C:\MCC18\src\traditional\stdclib\vfprintf.c
                  __pa_32   0x003414    program     static C:\MCC18\src\traditional\stdclib\vfprintf.c
                  __pa_33   0x00342c    program     static C:\MCC18\src\traditional\stdclib\vfprintf.c
                  __pa_34   0x003436    program     static C:\MCC18\src\traditional\stdclib\vfprintf.c
                  __pa_35   0x003444    program     static C:\MCC18\src\traditional\stdclib\vfprintf.c
                  __pa_36   0x00344c    program     static C:\MCC18\src\traditional\stdclib\vfprintf.c
                  __pa_37   0x003456    program     static C:\MCC18\src\traditional\stdclib\vfprintf.c
                  __pa_38   0x003466    program     static C:\MCC18\src\traditional\stdclib\vfprintf.c
                  __pa_39   0x003474    program     static C:\MCC18\src\traditional\stdclib\vfprintf.c
                  __pa_40   0x003480    program     static C:\MCC18\src\traditional\stdclib\vfprintf.c
                  __pa_41   0x00348c    program     static C:\MCC18\src\traditional\stdclib\vfprintf.c
                  __pa_42   0x003494    program     static C:\MCC18\src\traditional\stdclib\vfprintf.c
                  __pa_43   0x00349e    program     static C:\MCC18\src\traditional\stdclib\vfprintf.c
                  __pa_44   0x0034a4    program     static C:\MCC18\src\traditional\stdclib\vfprintf.c
                  __pa_45   0x0034ae    program     static C:\MCC18\src\traditional\stdclib\vfprintf.c
                  __pa_46   0x0034ba    program     static C:\MCC18\src\traditional\stdclib\vfprintf.c
                  initSPI   0x0034c4    program     extern C:\Documents and Settings\user\Desktop\PIC-LCD3310_test\Software\PIC-LCD3310_TEST_DEMO\mmc.c
                  initMMC   0x0034dc    program     extern C:\Documents and Settings\user\Desktop\PIC-LCD3310_test\Software\PIC-LCD3310_TEST_DEMO\mmc.c
           mmcGetResponse   0x0035a6    program     extern C:\Documents and Settings\user\Desktop\PIC-LCD3310_test\Software\PIC-LCD3310_TEST_DEMO\mmc.c
         mmcGetXXResponse   0x003610    program     extern C:\Documents and Settings\user\Desktop\PIC-LCD3310_test\Software\PIC-LCD3310_TEST_DEMO\mmc.c
             mmcCheckBusy   0x00367c    program     extern C:\Documents and Settings\user\Desktop\PIC-LCD3310_test\Software\PIC-LCD3310_TEST_DEMO\mmc.c
             mmcReadBlock   0x00372c    program     extern C:\Documents and Settings\user\Desktop\PIC-LCD3310_test\Software\PIC-LCD3310_TEST_DEMO\mmc.c
            mmcWriteBlock   0x003892    program     extern C:\Documents and Settings\user\Desktop\PIC-LCD3310_test\Software\PIC-LCD3310_TEST_DEMO\mmc.c
               mmcSendCmd   0x0039d6    program     extern C:\Documents and Settings\user\Desktop\PIC-LCD3310_test\Software\PIC-LCD3310_TEST_DEMO\mmc.c
        mmcSetBlockLength   0x003b08    program     extern C:\Documents and Settings\user\Desktop\PIC-LCD3310_test\Software\PIC-LCD3310_TEST_DEMO\mmc.c
              spiSendByte   0x003b58    program     extern C:\Documents and Settings\user\Desktop\PIC-LCD3310_test\Software\PIC-LCD3310_TEST_DEMO\mmc.c
          mmcReadRegister   0x003b80    program     extern C:\Documents and Settings\user\Desktop\PIC-LCD3310_test\Software\PIC-LCD3310_TEST_DEMO\mmc.c
                    Delay   0x003c54    program     extern C:\Documents and Settings\user\Desktop\PIC-LCD3310_test\Software\PIC-LCD3310_TEST_DEMO\lcd.c
                   Delayc   0x003c9e    program     extern C:\Documents and Settings\user\Desktop\PIC-LCD3310_test\Software\PIC-LCD3310_TEST_DEMO\lcd.c
                  LCDInit   0x003cba    program     extern C:\Documents and Settings\user\Desktop\PIC-LCD3310_test\Software\PIC-LCD3310_TEST_DEMO\lcd.c
                LCDUpdate   0x003d56    program     extern C:\Documents and Settings\user\Desktop\PIC-LCD3310_test\Software\PIC-LCD3310_TEST_DEMO\lcd.c
                  LCDSend   0x003e06    program     extern C:\Documents and Settings\user\Desktop\PIC-LCD3310_test\Software\PIC-LCD3310_TEST_DEMO\lcd.c
                 LCDClear   0x003e32    program     extern C:\Documents and Settings\user\Desktop\PIC-LCD3310_test\Software\PIC-LCD3310_TEST_DEMO\lcd.c
                 LCDProba   0x003e8a    program     extern C:\Documents and Settings\user\Desktop\PIC-LCD3310_test\Software\PIC-LCD3310_TEST_DEMO\lcd.c
                 LCDChrXY   0x003eca    program     extern C:\Documents and Settings\user\Desktop\PIC-LCD3310_test\Software\PIC-LCD3310_TEST_DEMO\lcd.c
          LCDChrXYInverse   0x003f7e    program     extern C:\Documents and Settings\user\Desktop\PIC-LCD3310_test\Software\PIC-LCD3310_TEST_DEMO\lcd.c
              LCDContrast   0x00407e    program     extern C:\Documents and Settings\user\Desktop\PIC-LCD3310_test\Software\PIC-LCD3310_TEST_DEMO\lcd.c
                   LCDStr   0x0040b6    program     extern C:\Documents and Settings\user\Desktop\PIC-LCD3310_test\Software\PIC-LCD3310_TEST_DEMO\lcd.c
         USBCtrlEPService   0x004156    program     extern C:\Documents and Settings\user\Desktop\PIC-LCD3310_test\Software\PIC-LCD3310_TEST_DEMO\system\usb\usbctrltrf\usbctrltrf.c
   USBCtrlTrfSetupHandler   0x004188    program     extern C:\Documents and Settings\user\Desktop\PIC-LCD3310_test\Software\PIC-LCD3310_TEST_DEMO\system\usb\usbctrltrf\usbctrltrf.c
     USBCtrlTrfOutHandler   0x0041b4    program     extern C:\Documents and Settings\user\Desktop\PIC-LCD3310_test\Software\PIC-LCD3310_TEST_DEMO\system\usb\usbctrltrf\usbctrltrf.c
      USBCtrlTrfInHandler   0x0041d4    program     extern C:\Documents and Settings\user\Desktop\PIC-LCD3310_test\Software\PIC-LCD3310_TEST_DEMO\system\usb\usbctrltrf\usbctrltrf.c
      USBCtrlTrfTxService   0x004224    program     extern C:\Documents and Settings\user\Desktop\PIC-LCD3310_test\Software\PIC-LCD3310_TEST_DEMO\system\usb\usbctrltrf\usbctrltrf.c
      USBCtrlTrfRxService   0x004312    program     extern C:\Documents and Settings\user\Desktop\PIC-LCD3310_test\Software\PIC-LCD3310_TEST_DEMO\system\usb\usbctrltrf\usbctrltrf.c
 USBCtrlEPServiceComplete   0x00438c    program     extern C:\Documents and Settings\user\Desktop\PIC-LCD3310_test\Software\PIC-LCD3310_TEST_DEMO\system\usb\usbctrltrf\usbctrltrf.c
USBPrepareForNextSetupTrf   0x004418    program     extern C:\Documents and Settings\user\Desktop\PIC-LCD3310_test\Software\PIC-LCD3310_TEST_DEMO\system\usb\usbctrltrf\usbctrltrf.c
       USBCheckStdRequest   0x0044ba    program     extern C:\Documents and Settings\user\Desktop\PIC-LCD3310_test\Software\PIC-LCD3310_TEST_DEMO\system\usb\usb9\usb9.c
      USBStdGetDscHandler   0x00457c    program     extern C:\Documents and Settings\user\Desktop\PIC-LCD3310_test\Software\PIC-LCD3310_TEST_DEMO\system\usb\usb9\usb9.c
      USBStdSetCfgHandler   0x004634    program     extern C:\Documents and Settings\user\Desktop\PIC-LCD3310_test\Software\PIC-LCD3310_TEST_DEMO\system\usb\usb9\usb9.c
   USBStdGetStatusHandler   0x004684    program     extern C:\Documents and Settings\user\Desktop\PIC-LCD3310_test\Software\PIC-LCD3310_TEST_DEMO\system\usb\usb9\usb9.c
  USBStdFeatureReqHandler   0x004722    program     extern C:\Documents and Settings\user\Desktop\PIC-LCD3310_test\Software\PIC-LCD3310_TEST_DEMO\system\usb\usb9\usb9.c
                 UserInit   0x0047c4    program     extern C:\Documents and Settings\user\Desktop\PIC-LCD3310_test\Software\PIC-LCD3310_TEST_DEMO\user\user.c
                ProcessIO   0x0047c6    program     extern C:\Documents and Settings\user\Desktop\PIC-LCD3310_test\Software\PIC-LCD3310_TEST_DEMO\user\user.c
          ServiceRequests   0x0047dc    program     extern C:\Documents and Settings\user\Desktop\PIC-LCD3310_test\Software\PIC-LCD3310_TEST_DEMO\user\user.c
       ___case_0_lbl00006   0x00481a    program     static                          
      ___case_49_lbl00007   0x00482e    program     static                          
         ___else_lbl00015   0x00483c    program     static                          
         ___else_lbl00013   0x004844    program     static                          
         ___else_lbl00011   0x00484e    program     static                          
         ___else_lbl00009   0x004858    program     static                          
           ___if_lbl00014   0x00485c    program     static                          
           ___if_lbl00008   0x00485c    program     static                          
           ___if_lbl00012   0x00485c    program     static                          
           ___if_lbl00010   0x00485c    program     static                          
      ___case_50_lbl00019   0x00485e    program     static                          
         ___else_lbl00018   0x00486e    program     static                          
           ___if_lbl00017   0x00487c    program     static                          
           ___if_lbl00016   0x00487c    program     static                          
      ___case_-1_lbl00020   0x00487e    program     static                          
      ___default_lbl00021   0x004882    program     static                          
   ___switchexit_lbl00005   0x004884    program     static                          
       ___return_lbl00004   0x0048a6    program     static                          
           ___if_lbl00024   0x0048a6    program     static                          
           ___if_lbl00023   0x0048a6    program     static                          
           ___if_lbl00022   0x0048a6    program     static                          
           BlinkUSBStatus   0x0048b0    program     extern C:\Documents and Settings\user\Desktop\PIC-LCD3310_test\Software\PIC-LCD3310_TEST_DEMO\user\user.c
          check_bat_sense   0x0049ac    program     extern C:\Documents and Settings\user\Desktop\PIC-LCD3310_test\Software\PIC-LCD3310_TEST_DEMO\user\user.c
 PICDEMFSUSBDemoBoardTest   0x0049fc    program     extern C:\Documents and Settings\user\Desktop\PIC-LCD3310_test\Software\PIC-LCD3310_TEST_DEMO\user\user.c
        USBCheckBusStatus   0x0049fe    program     extern C:\Documents and Settings\user\Desktop\PIC-LCD3310_test\Software\PIC-LCD3310_TEST_DEMO\system\usb\usbdrv\usbdrv.c
          USBModuleEnable   0x004a28    program     extern C:\Documents and Settings\user\Desktop\PIC-LCD3310_test\Software\PIC-LCD3310_TEST_DEMO\system\usb\usbdrv\usbdrv.c
         USBModuleDisable   0x004a38    program     extern C:\Documents and Settings\user\Desktop\PIC-LCD3310_test\Software\PIC-LCD3310_TEST_DEMO\system\usb\usbdrv\usbdrv.c
            USBSoftDetach   0x004a44    program     extern C:\Documents and Settings\user\Desktop\PIC-LCD3310_test\Software\PIC-LCD3310_TEST_DEMO\system\usb\usbdrv\usbdrv.c
         USBDriverService   0x004a48    program     extern C:\Documents and Settings\user\Desktop\PIC-LCD3310_test\Software\PIC-LCD3310_TEST_DEMO\system\usb\usbdrv\usbdrv.c
               USBSuspend   0x004aea    program     extern C:\Documents and Settings\user\Desktop\PIC-LCD3310_test\Software\PIC-LCD3310_TEST_DEMO\system\usb\usbdrv\usbdrv.c
       USBWakeFromSuspend   0x004af4    program     extern C:\Documents and Settings\user\Desktop\PIC-LCD3310_test\Software\PIC-LCD3310_TEST_DEMO\system\usb\usbdrv\usbdrv.c
          USBRemoteWakeup   0x004b04    program     extern C:\Documents and Settings\user\Desktop\PIC-LCD3310_test\Software\PIC-LCD3310_TEST_DEMO\system\usb\usbdrv\usbdrv.c
          USB_SOF_Handler   0x004b28    program     extern C:\Documents and Settings\user\Desktop\PIC-LCD3310_test\Software\PIC-LCD3310_TEST_DEMO\system\usb\usbdrv\usbdrv.c
          USBStallHandler   0x004b2c    program     extern C:\Documents and Settings\user\Desktop\PIC-LCD3310_test\Software\PIC-LCD3310_TEST_DEMO\system\usb\usbdrv\usbdrv.c
          USBErrorHandler   0x004b50    program     extern C:\Documents and Settings\user\Desktop\PIC-LCD3310_test\Software\PIC-LCD3310_TEST_DEMO\system\usb\usbdrv\usbdrv.c
  USBProtocolResetHandler   0x004b54    program     extern C:\Documents and Settings\user\Desktop\PIC-LCD3310_test\Software\PIC-LCD3310_TEST_DEMO\system\usb\usbdrv\usbdrv.c
        ___while_lbl00049   0x004b82    program     static                          
        ___while_lbl00050   0x004b96    program     static                          
       ___return_lbl00048   0x004baa    program     static                          
               ClearArray   0x004bac    program     extern C:\Documents and Settings\user\Desktop\PIC-LCD3310_test\Software\PIC-LCD3310_TEST_DEMO\system\usb\usbdrv\usbdrv.c
        ___while_lbl00052   0x004bc0    program     static                          
        ___while_lbl00053   0x004bce    program     static                          
       ___return_lbl00051   0x004bce    program     static                          
               FontLookup   0x004bd6    program     extern C:\Documents and Settings\user\Desktop\PIC-LCD3310_test\Software\PIC-LCD3310_TEST_DEMO\lcd.c
              __string_16   0x004dac    program     static C:\Documents and Settings\user\Desktop\PIC-LCD3310_test\Software\PIC-LCD3310_TEST_DEMO\main.c
              __string_15   0x004db1    program     static C:\Documents and Settings\user\Desktop\PIC-LCD3310_test\Software\PIC-LCD3310_TEST_DEMO\main.c
              __string_14   0x004db6    program     static C:\Documents and Settings\user\Desktop\PIC-LCD3310_test\Software\PIC-LCD3310_TEST_DEMO\main.c
              __string_36   0x004dbb    program     static C:\Documents and Settings\user\Desktop\PIC-LCD3310_test\Software\PIC-LCD3310_TEST_DEMO\test.c
              __string_35   0x004dc8    program     static C:\Documents and Settings\user\Desktop\PIC-LCD3310_test\Software\PIC-LCD3310_TEST_DEMO\test.c
              __string_34   0x004dd4    program     static C:\Documents and Settings\user\Desktop\PIC-LCD3310_test\Software\PIC-LCD3310_TEST_DEMO\test.c
              __string_33   0x004de0    program     static C:\Documents and Settings\user\Desktop\PIC-LCD3310_test\Software\PIC-LCD3310_TEST_DEMO\test.c
              __string_32   0x004dec    program     static C:\Documents and Settings\user\Desktop\PIC-LCD3310_test\Software\PIC-LCD3310_TEST_DEMO\test.c
              __string_31   0x004df8    program     static C:\Documents and Settings\user\Desktop\PIC-LCD3310_test\Software\PIC-LCD3310_TEST_DEMO\test.c
              __string_30   0x004e04    program     static C:\Documents and Settings\user\Desktop\PIC-LCD3310_test\Software\PIC-LCD3310_TEST_DEMO\test.c
              __string_29   0x004e10    program     static C:\Documents and Settings\user\Desktop\PIC-LCD3310_test\Software\PIC-LCD3310_TEST_DEMO\test.c
              __string_28   0x004e1c    program     static C:\Documents and Settings\user\Desktop\PIC-LCD3310_test\Software\PIC-LCD3310_TEST_DEMO\test.c
              __string_27   0x004e28    program     static C:\Documents and Settings\user\Desktop\PIC-LCD3310_test\Software\PIC-LCD3310_TEST_DEMO\test.c
              __string_26   0x004e34    program     static C:\Documents and Settings\user\Desktop\PIC-LCD3310_test\Software\PIC-LCD3310_TEST_DEMO\test.c
              __string_25   0x004e40    program     static C:\Documents and Settings\user\Desktop\PIC-LCD3310_test\Software\PIC-LCD3310_TEST_DEMO\test.c
              __string_24   0x004e4c    program     static C:\Documents and Settings\user\Desktop\PIC-LCD3310_test\Software\PIC-LCD3310_TEST_DEMO\test.c
              __string_23   0x004e58    program     static C:\Documents and Settings\user\Desktop\PIC-LCD3310_test\Software\PIC-LCD3310_TEST_DEMO\test.c
              __string_22   0x004e64    program     static C:\Documents and Settings\user\Desktop\PIC-LCD3310_test\Software\PIC-LCD3310_TEST_DEMO\test.c
              __string_21   0x004e70    program     static C:\Documents and Settings\user\Desktop\PIC-LCD3310_test\Software\PIC-LCD3310_TEST_DEMO\test.c
              __string_20   0x004e7c    program     static C:\Documents and Settings\user\Desktop\PIC-LCD3310_test\Software\PIC-LCD3310_TEST_DEMO\test.c
              __string_19   0x004e88    program     static C:\Documents and Settings\user\Desktop\PIC-LCD3310_test\Software\PIC-LCD3310_TEST_DEMO\test.c
              __string_18   0x004e94    program     static C:\Documents and Settings\user\Desktop\PIC-LCD3310_test\Software\PIC-LCD3310_TEST_DEMO\test.c
              __string_17   0x004ea0    program     static C:\Documents and Settings\user\Desktop\PIC-LCD3310_test\Software\PIC-LCD3310_TEST_DEMO\test.c
              __string_16   0x004eac    program     static C:\Documents and Settings\user\Desktop\PIC-LCD3310_test\Software\PIC-LCD3310_TEST_DEMO\test.c
              __string_15   0x004eb8    program     static C:\Documents and Settings\user\Desktop\PIC-LCD3310_test\Software\PIC-LCD3310_TEST_DEMO\test.c
              __string_14   0x004ec4    program     static C:\Documents and Settings\user\Desktop\PIC-LCD3310_test\Software\PIC-LCD3310_TEST_DEMO\test.c
              __string_13   0x004ed0    program     static C:\Documents and Settings\user\Desktop\PIC-LCD3310_test\Software\PIC-LCD3310_TEST_DEMO\test.c
              __string_12   0x004edc    program     static C:\Documents and Settings\user\Desktop\PIC-LCD3310_test\Software\PIC-LCD3310_TEST_DEMO\test.c
              __string_11   0x004ee8    program     static C:\Documents and Settings\user\Desktop\PIC-LCD3310_test\Software\PIC-LCD3310_TEST_DEMO\test.c
              __string_10   0x004ef2    program     static C:\Documents and Settings\user\Desktop\PIC-LCD3310_test\Software\PIC-LCD3310_TEST_DEMO\test.c
               __string_9   0x004efc    program     static C:\Documents and Settings\user\Desktop\PIC-LCD3310_test\Software\PIC-LCD3310_TEST_DEMO\test.c
               __string_8   0x004f06    program     static C:\Documents and Settings\user\Desktop\PIC-LCD3310_test\Software\PIC-LCD3310_TEST_DEMO\test.c
               __string_7   0x004f10    program     static C:\Documents and Settings\user\Desktop\PIC-LCD3310_test\Software\PIC-LCD3310_TEST_DEMO\test.c
               __string_6   0x004f1a    program     static C:\Documents and Settings\user\Desktop\PIC-LCD3310_test\Software\PIC-LCD3310_TEST_DEMO\test.c
               __string_5   0x004f24    program     static C:\Documents and Settings\user\Desktop\PIC-LCD3310_test\Software\PIC-LCD3310_TEST_DEMO\test.c
               __string_4   0x004f2e    program     static C:\Documents and Settings\user\Desktop\PIC-LCD3310_test\Software\PIC-LCD3310_TEST_DEMO\test.c
               __string_3   0x004f38    program     static C:\Documents and Settings\user\Desktop\PIC-LCD3310_test\Software\PIC-LCD3310_TEST_DEMO\test.c
               __string_2   0x004f42    program     static C:\Documents and Settings\user\Desktop\PIC-LCD3310_test\Software\PIC-LCD3310_TEST_DEMO\test.c
               __string_1   0x004f4c    program     static C:\Documents and Settings\user\Desktop\PIC-LCD3310_test\Software\PIC-LCD3310_TEST_DEMO\test.c
               __string_0   0x004f5a    program     static C:\Documents and Settings\user\Desktop\PIC-LCD3310_test\Software\PIC-LCD3310_TEST_DEMO\test.c
             USBGenInitEP   0x004f68    program     extern C:\Documents and Settings\user\Desktop\PIC-LCD3310_test\Software\PIC-LCD3310_TEST_DEMO\system\usb\class\generic\usbgen.c
              USBGenWrite   0x004f94    program     extern C:\Documents and Settings\user\Desktop\PIC-LCD3310_test\Software\PIC-LCD3310_TEST_DEMO\system\usb\class\generic\usbgen.c
               USBGenRead   0x005008    program     extern C:\Documents and Settings\user\Desktop\PIC-LCD3310_test\Software\PIC-LCD3310_TEST_DEMO\system\usb\class\generic\usbgen.c
                   memset   0x005088    program     extern C:\MCC18\src\traditional\stdclib\memset.asm
                    jLoop   0x00509c    program     static C:\MCC18\src\traditional\stdclib\memset.asm
              _2jContinue   0x0050a8    program     static C:\MCC18\src\traditional\stdclib\memset.asm
                   _3jEnd   0x0050b2    program     static C:\MCC18\src\traditional\stdclib\memset.asm
                     jEnd   0x0050ba    program     static C:\MCC18\src\traditional\stdclib\memset.asm
                  strncmp   0x0050bc    program     extern C:\MCC18\src\traditional\stdclib\strncmp.asm
                    jLoop   0x0050dc    program     static C:\MCC18\src\traditional\stdclib\strncmp.asm
              _4jContinue   0x0050e8    program     static C:\MCC18\src\traditional\stdclib\strncmp.asm
                   _5jEnd   0x0050f2    program     static C:\MCC18\src\traditional\stdclib\strncmp.asm
                     jEnd   0x0050fc    program     static C:\MCC18\src\traditional\stdclib\strncmp.asm
                   strlen   0x005112    program     extern C:\MCC18\src\traditional\stdclib\strlen.asm
                    jLoop   0x005122    program     static C:\MCC18\src\traditional\stdclib\strlen.asm
                     jEnd   0x00512c    program     static C:\MCC18\src\traditional\stdclib\strlen.asm
                strlenpgm   0x00512e    program     extern C:\MCC18\src\traditional\stdclib\slenpgm.asm
                    jLoop   0x00514c    program     static C:\MCC18\src\traditional\stdclib\slenpgm.asm
                   _2jEnd   0x005162    program     static C:\MCC18\src\traditional\stdclib\slenpgm.asm
                     jEnd   0x005164    program     static C:\MCC18\src\traditional\stdclib\slenpgm.asm
               device_dsc   0x005178    program     extern C:\Documents and Settings\user\Desktop\PIC-LCD3310_test\Software\PIC-LCD3310_TEST_DEMO\autofiles\usbdsc.c
                    cfg01   0x00518a    program     extern C:\Documents and Settings\user\Desktop\PIC-LCD3310_test\Software\PIC-LCD3310_TEST_DEMO\autofiles\usbdsc.c
                    sd000   0x0051aa    program     extern C:\Documents and Settings\user\Desktop\PIC-LCD3310_test\Software\PIC-LCD3310_TEST_DEMO\autofiles\usbdsc.c
                    sd001   0x0051ae    program     extern C:\Documents and Settings\user\Desktop\PIC-LCD3310_test\Software\PIC-LCD3310_TEST_DEMO\autofiles\usbdsc.c
                    sd002   0x0051e2    program     extern C:\Documents and Settings\user\Desktop\PIC-LCD3310_test\Software\PIC-LCD3310_TEST_DEMO\autofiles\usbdsc.c
               USB_CD_Ptr   0x005226    program     extern C:\Documents and Settings\user\Desktop\PIC-LCD3310_test\Software\PIC-LCD3310_TEST_DEMO\autofiles\usbdsc.c
               USB_SD_Ptr   0x00522a    program     extern C:\Documents and Settings\user\Desktop\PIC-LCD3310_test\Software\PIC-LCD3310_TEST_DEMO\autofiles\usbdsc.c
                  sprintf   0x005230    program     extern C:\MCC18\src\traditional\stdclib\sprintf.c
                _do_cinit   0x0052dc    program     extern C:\MCC18\src\traditional\startup\c018i.c
                     test   0x0052f6    program     static                          
                copy_loop   0x00534e    program     static                          
            copy_one_byte   0x005354    program     static                          
             done_copying   0x005362    program     static                          
       ___return_lbl00002   0x005378    program     static                          
                     done   0x005378    program     static                          
                 FXM1616S   0x00537a    program     extern C:\MCC18\src\traditional\math\fxm1616s.asm
               TSIGN1616A   0x0053c6    program     static C:\MCC18\src\traditional\math\fxm1616s.asm
                 FXM1616U   0x0053d4    program     extern C:\MCC18\src\traditional\math\fxm1616u.asm
                     putc   0x005410    program     extern C:\MCC18\src\traditional\stdclib\putc.c
                  FXM3232   0x005494    program     extern C:\MCC18\src\traditional\math\fxm3232.c
       ___return_lbl00000   0x005502    program     static                          
                 FXD3232U   0x005504    program     extern C:\MCC18\src\traditional\math\fxd3232u.c
                     loop   0x005512    program     static                          
                   _false   0x005546    program     static                          
       ___return_lbl00000   0x00554a    program     static                          
                 FXD1616U   0x00554c    program     extern C:\MCC18\src\traditional\math\fxd1616u.c
                     loop   0x005556    program     static                          
                  endloop   0x005572    program     static                          
       ___return_lbl00000   0x005576    program     static                          
                  isdigit   0x005578    program     extern C:\MCC18\src\traditional\stdclib\isdigit.asm
                   jMatch   0x005598    program     static C:\MCC18\src\traditional\stdclib\isdigit.asm
                 jNoMatch   0x00559a    program     static C:\MCC18\src\traditional\stdclib\isdigit.asm
                 _startup   0x00559c    program     extern C:\MCC18\src\traditional\startup\c018i.c
                     loop   0x0055ac    program     static                          
       ___return_lbl00001   0x0055b6    program     static                          
              _usart_putc   0x0055b8    program     extern C:\MCC18\src\pmc_common\USART\_usartpc.asm
                     loop   0x0055c8    program     static C:\MCC18\src\pmc_common\USART\_usartpc.asm
                 s_digits   0x0055d4    program     static C:\MCC18\src\traditional\stdclib\vfprintf.c
            __zero_memory   0x0055e6    program     extern C:\MCC18\src\traditional\proc\p18F67J50.asm
               clear_loop   0x0055ec    program     static C:\MCC18\src\traditional\proc\p18F67J50.asm
               _user_putc   0x0055f4    program     extern C:\MCC18\src\traditional\stdclib\_user_putc.c
                   __init   0x0055f6    program     extern C:\MCC18\src\traditional\stdclib\__init.c
               __config_0   0x01fff8    program     static C:\Documents and Settings\user\Desktop\PIC-LCD3310_test\Software\PIC-LCD3310_TEST_DEMO\main.c
               __config_1   0x01fff9    program     static C:\Documents and Settings\user\Desktop\PIC-LCD3310_test\Software\PIC-LCD3310_TEST_DEMO\main.c
               __config_2   0x01fffa    program     static C:\Documents and Settings\user\Desktop\PIC-LCD3310_test\Software\PIC-LCD3310_TEST_DEMO\main.c
               __config_3   0x01fffb    program     static C:\Documents and Settings\user\Desktop\PIC-LCD3310_test\Software\PIC-LCD3310_TEST_DEMO\main.c
               __config_4   0x01fffd    program     static C:\Documents and Settings\user\Desktop\PIC-LCD3310_test\Software\PIC-LCD3310_TEST_DEMO\main.c
                     SIGN   0x000000       data     extern C:\MCC18\src\traditional\math\cmath18.asm
            __FPFLAGSbits   0x000001       data     extern C:\MCC18\src\traditional\math\cmath18.asm
                __FPFLAGS   0x000001       data     extern C:\MCC18\src\traditional\math\cmath18.asm
                  __REMB3   0x000002       data     extern C:\MCC18\src\traditional\math\aarg.asm
                 __AARGB7   0x000002       data     extern C:\MCC18\src\traditional\math\aarg.asm
                 __AARGB6   0x000003       data     extern C:\MCC18\src\traditional\math\aarg.asm
                  __REMB2   0x000003       data     extern C:\MCC18\src\traditional\math\aarg.asm
                 __AARGB5   0x000004       data     extern C:\MCC18\src\traditional\math\aarg.asm
                  __REMB1   0x000004       data     extern C:\MCC18\src\traditional\math\aarg.asm
                 __AARGB4   0x000005       data     extern C:\MCC18\src\traditional\math\aarg.asm
                  __REMB0   0x000005       data     extern C:\MCC18\src\traditional\math\aarg.asm
                 __AARGB3   0x000006       data     extern C:\MCC18\src\traditional\math\aarg.asm
                 __AARGB2   0x000007       data     extern C:\MCC18\src\traditional\math\aarg.asm
                 __AARGB1   0x000008       data     extern C:\MCC18\src\traditional\math\aarg.asm
                 __AARGB0   0x000009       data     extern C:\MCC18\src\traditional\math\aarg.asm
                   __AEXP   0x00000a       data     extern C:\MCC18\src\traditional\math\aarg.asm
                 __BARGB3   0x00000b       data     extern C:\MCC18\src\traditional\math\barg.asm
                 __BARGB2   0x00000c       data     extern C:\MCC18\src\traditional\math\barg.asm
                 __BARGB1   0x00000d       data     extern C:\MCC18\src\traditional\math\barg.asm
                 __BARGB0   0x00000e       data     extern C:\MCC18\src\traditional\math\barg.asm
                   __BEXP   0x00000f       data     extern C:\MCC18\src\traditional\math\barg.asm
                 __TEMPB3   0x000010       data     extern C:\MCC18\src\traditional\math\temparg.asm
                 __TEMPB2   0x000011       data     extern C:\MCC18\src\traditional\math\temparg.asm
                 __TEMPB1   0x000012       data     extern C:\MCC18\src\traditional\math\temparg.asm
                 __TEMPB0   0x000013       data     extern C:\MCC18\src\traditional\math\temparg.asm
                   __TEMP   0x000013       data     extern C:\MCC18\src\traditional\math\temparg.asm
                  __tmp_0   0x000014       data     static C:\Documents and Settings\user\Desktop\PIC-LCD3310_test\Software\PIC-LCD3310_TEST_DEMO\test.c
                  __tmp_0   0x000014       data     static C:\Documents and Settings\user\Desktop\PIC-LCD3310_test\Software\PIC-LCD3310_TEST_DEMO\user\user.c
                  __tmp_0   0x000014       data     static C:\Documents and Settings\user\Desktop\PIC-LCD3310_test\Software\PIC-LCD3310_TEST_DEMO\mmc.c
                  __tmp_0   0x000014       data     static C:\Documents and Settings\user\Desktop\PIC-LCD3310_test\Software\PIC-LCD3310_TEST_DEMO\lcd.c
                  __tmp_0   0x000014       data     static C:\Documents and Settings\user\Desktop\PIC-LCD3310_test\Software\PIC-LCD3310_TEST_DEMO\system\usb\usbctrltrf\usbctrltrf.c
                  __tmp_0   0x000014       data     static C:\Documents and Settings\user\Desktop\PIC-LCD3310_test\Software\PIC-LCD3310_TEST_DEMO\system\usb\usb9\usb9.c
                  __tmp_0   0x000014       data     static C:\Documents and Settings\user\Desktop\PIC-LCD3310_test\Software\PIC-LCD3310_TEST_DEMO\system\usb\class\generic\usbgen.c
                  __tmp_0   0x000014       data     static C:\Documents and Settings\user\Desktop\PIC-LCD3310_test\Software\PIC-LCD3310_TEST_DEMO\main.c
                  __tmp_0   0x000014       data     static C:\MCC18\src\traditional\stdclib\putc.c
                  __tmp_0   0x000014       data     static C:\MCC18\src\traditional\stdclib\vfprintf.c
                  __tmp_0   0x000014       data     static C:\MCC18\src\traditional\stdclib\sprintf.c
                LcdMemIdx   0x000060       data     extern C:\Documents and Settings\user\Desktop\PIC-LCD3310_test\Software\PIC-LCD3310_TEST_DEMO\lcd.c
                LcdMemory   0x000062       data     extern C:\Documents and Settings\user\Desktop\PIC-LCD3310_test\Software\PIC-LCD3310_TEST_DEMO\lcd.c
                      row   0x0000fc       data     extern C:\Documents and Settings\user\Desktop\PIC-LCD3310_test\Software\PIC-LCD3310_TEST_DEMO\lcd.c
                        k   0x0000fe       data     extern C:\Documents and Settings\user\Desktop\PIC-LCD3310_test\Software\PIC-LCD3310_TEST_DEMO\lcd.c
                      buf   0x000100       data     extern C:\Documents and Settings\user\Desktop\PIC-LCD3310_test\Software\PIC-LCD3310_TEST_DEMO\main.c
                        i   0x00010a       data     extern C:\Documents and Settings\user\Desktop\PIC-LCD3310_test\Software\PIC-LCD3310_TEST_DEMO\main.c
                        j   0x00010c       data     extern C:\Documents and Settings\user\Desktop\PIC-LCD3310_test\Software\PIC-LCD3310_TEST_DEMO\main.c
                     resl   0x00010e       data     extern C:\Documents and Settings\user\Desktop\PIC-LCD3310_test\Software\PIC-LCD3310_TEST_DEMO\main.c
                     resx   0x000110       data     extern C:\Documents and Settings\user\Desktop\PIC-LCD3310_test\Software\PIC-LCD3310_TEST_DEMO\main.c
                     resy   0x000112       data     extern C:\Documents and Settings\user\Desktop\PIC-LCD3310_test\Software\PIC-LCD3310_TEST_DEMO\main.c
                     resz   0x000114       data     extern C:\Documents and Settings\user\Desktop\PIC-LCD3310_test\Software\PIC-LCD3310_TEST_DEMO\main.c
                        x   0x000116       data     extern C:\Documents and Settings\user\Desktop\PIC-LCD3310_test\Software\PIC-LCD3310_TEST_DEMO\main.c
                        y   0x000118       data     extern C:\Documents and Settings\user\Desktop\PIC-LCD3310_test\Software\PIC-LCD3310_TEST_DEMO\main.c
                        z   0x00011a       data     extern C:\Documents and Settings\user\Desktop\PIC-LCD3310_test\Software\PIC-LCD3310_TEST_DEMO\main.c
                      sym   0x00011c       data     extern C:\Documents and Settings\user\Desktop\PIC-LCD3310_test\Software\PIC-LCD3310_TEST_DEMO\main.c
        mmc_buffer_test_1   0x00011e       data     extern C:\Documents and Settings\user\Desktop\PIC-LCD3310_test\Software\PIC-LCD3310_TEST_DEMO\main.c
                      dly   0x00019e       data     extern C:\Documents and Settings\user\Desktop\PIC-LCD3310_test\Software\PIC-LCD3310_TEST_DEMO\main.c
                   JoyPos   0x0001a2       data     extern C:\Documents and Settings\user\Desktop\PIC-LCD3310_test\Software\PIC-LCD3310_TEST_DEMO\main.c
                  MenuPos   0x0001a3       data     extern C:\Documents and Settings\user\Desktop\PIC-LCD3310_test\Software\PIC-LCD3310_TEST_DEMO\main.c
           VCC_test_state   0x0001a4       data     extern C:\Documents and Settings\user\Desktop\PIC-LCD3310_test\Software\PIC-LCD3310_TEST_DEMO\test.c
           GND_test_state   0x0001b3       data     extern C:\Documents and Settings\user\Desktop\PIC-LCD3310_test\Software\PIC-LCD3310_TEST_DEMO\test.c
           ext_test_state   0x0001c2       data     extern C:\Documents and Settings\user\Desktop\PIC-LCD3310_test\Software\PIC-LCD3310_TEST_DEMO\test.c
          uext_test_state   0x0001d6       data     extern C:\Documents and Settings\user\Desktop\PIC-LCD3310_test\Software\PIC-LCD3310_TEST_DEMO\test.c
          ext_test_state2   0x0001ea       data     extern C:\Documents and Settings\user\Desktop\PIC-LCD3310_test\Software\PIC-LCD3310_TEST_DEMO\test.c
            usbgen_rx_len   0x0001fe       data     extern C:\Documents and Settings\user\Desktop\PIC-LCD3310_test\Software\PIC-LCD3310_TEST_DEMO\system\usb\class\generic\usbgen.c
                res_sense   0x000200       data     extern C:\Documents and Settings\user\Desktop\PIC-LCD3310_test\Software\PIC-LCD3310_TEST_DEMO\user\user.c
                bat_sense   0x000202       data     extern C:\Documents and Settings\user\Desktop\PIC-LCD3310_test\Software\PIC-LCD3310_TEST_DEMO\user\user.c
                      Key   0x000204       data     extern C:\Documents and Settings\user\Desktop\PIC-LCD3310_test\Software\PIC-LCD3310_TEST_DEMO\user\user.c
                  old_sw2   0x000205       data     extern C:\Documents and Settings\user\Desktop\PIC-LCD3310_test\Software\PIC-LCD3310_TEST_DEMO\user\user.c
                  old_sw3   0x000206       data     extern C:\Documents and Settings\user\Desktop\PIC-LCD3310_test\Software\PIC-LCD3310_TEST_DEMO\user\user.c
                  counter   0x000207       data     extern C:\Documents and Settings\user\Desktop\PIC-LCD3310_test\Software\PIC-LCD3310_TEST_DEMO\user\user.c
                trf_state   0x000208       data     extern C:\Documents and Settings\user\Desktop\PIC-LCD3310_test\Software\PIC-LCD3310_TEST_DEMO\user\user.c
                temp_mode   0x000209       data     extern C:\Documents and Settings\user\Desktop\PIC-LCD3310_test\Software\PIC-LCD3310_TEST_DEMO\user\user.c
               dataPacket   0x00020a       data     extern C:\Documents and Settings\user\Desktop\PIC-LCD3310_test\Software\PIC-LCD3310_TEST_DEMO\user\user.c
                    pTemp   0x00024a       data     extern C:\Documents and Settings\user\Desktop\PIC-LCD3310_test\Software\PIC-LCD3310_TEST_DEMO\user\user.c
               valid_temp   0x00024b       data     extern C:\Documents and Settings\user\Desktop\PIC-LCD3310_test\Software\PIC-LCD3310_TEST_DEMO\user\user.c
                temp_data   0x00024c       data     extern C:\Documents and Settings\user\Desktop\PIC-LCD3310_test\Software\PIC-LCD3310_TEST_DEMO\user\user.c
         usb_device_state   0x000288       data     extern C:\Documents and Settings\user\Desktop\PIC-LCD3310_test\Software\PIC-LCD3310_TEST_DEMO\system\usb\usbmmap.c
                 usb_stat   0x000289       data     extern C:\Documents and Settings\user\Desktop\PIC-LCD3310_test\Software\PIC-LCD3310_TEST_DEMO\system\usb\usbmmap.c
           usb_active_cfg   0x00028a       data     extern C:\Documents and Settings\user\Desktop\PIC-LCD3310_test\Software\PIC-LCD3310_TEST_DEMO\system\usb\usbmmap.c
             usb_alt_intf   0x00028b       data     extern C:\Documents and Settings\user\Desktop\PIC-LCD3310_test\Software\PIC-LCD3310_TEST_DEMO\system\usb\usbmmap.c
              bTRNIFCount   0x00028c       data     extern C:\Documents and Settings\user\Desktop\PIC-LCD3310_test\Software\PIC-LCD3310_TEST_DEMO\system\usb\usbdrv\usbdrv.c
              delay_count   0x00028d       data     static C:\Documents and Settings\user\Desktop\PIC-LCD3310_test\Software\PIC-LCD3310_TEST_DEMO\system\usb\usbdrv\usbdrv.c
               mmc_buffer   0x000300       data     extern C:\Documents and Settings\user\Desktop\PIC-LCD3310_test\Software\PIC-LCD3310_TEST_DEMO\mmc.c
                    ep0Bo   0x000400       data     extern C:\Documents and Settings\user\Desktop\PIC-LCD3310_test\Software\PIC-LCD3310_TEST_DEMO\system\usb\usbmmap.c
                    ep0Bi   0x000404       data     extern C:\Documents and Settings\user\Desktop\PIC-LCD3310_test\Software\PIC-LCD3310_TEST_DEMO\system\usb\usbmmap.c
                    ep1Bo   0x000408       data     extern C:\Documents and Settings\user\Desktop\PIC-LCD3310_test\Software\PIC-LCD3310_TEST_DEMO\system\usb\usbmmap.c
                    ep1Bi   0x00040c       data     extern C:\Documents and Settings\user\Desktop\PIC-LCD3310_test\Software\PIC-LCD3310_TEST_DEMO\system\usb\usbmmap.c
                    ep2Bo   0x000410       data     extern C:\Documents and Settings\user\Desktop\PIC-LCD3310_test\Software\PIC-LCD3310_TEST_DEMO\system\usb\usbmmap.c
                    ep2Bi   0x000414       data     extern C:\Documents and Settings\user\Desktop\PIC-LCD3310_test\Software\PIC-LCD3310_TEST_DEMO\system\usb\usbmmap.c
                 SetupPkt   0x000418       data     extern C:\Documents and Settings\user\Desktop\PIC-LCD3310_test\Software\PIC-LCD3310_TEST_DEMO\system\usb\usbmmap.c
              CtrlTrfData   0x000420       data     extern C:\Documents and Settings\user\Desktop\PIC-LCD3310_test\Software\PIC-LCD3310_TEST_DEMO\system\usb\usbmmap.c
               usbgen_out   0x000428       data     extern C:\Documents and Settings\user\Desktop\PIC-LCD3310_test\Software\PIC-LCD3310_TEST_DEMO\system\usb\usbmmap.c
                usbgen_in   0x000468       data     extern C:\Documents and Settings\user\Desktop\PIC-LCD3310_test\Software\PIC-LCD3310_TEST_DEMO\system\usb\usbmmap.c
                TestUSB_e   0x0004a8       data     extern C:\Documents and Settings\user\Desktop\PIC-LCD3310_test\Software\PIC-LCD3310_TEST_DEMO\user\user.c
                TestUSB_s   0x0004b3       data     extern C:\Documents and Settings\user\Desktop\PIC-LCD3310_test\Software\PIC-LCD3310_TEST_DEMO\user\user.c
                   BAT_On   0x0004c0       data     extern C:\Documents and Settings\user\Desktop\PIC-LCD3310_test\Software\PIC-LCD3310_TEST_DEMO\user\user.c
                  BAT_Off   0x0004cc       data     extern C:\Documents and Settings\user\Desktop\PIC-LCD3310_test\Software\PIC-LCD3310_TEST_DEMO\user\user.c
                  put_BAT   0x0004d9       data     extern C:\Documents and Settings\user\Desktop\PIC-LCD3310_test\Software\PIC-LCD3310_TEST_DEMO\user\user.c
            and_press_BUT   0x0004e7       data     extern C:\Documents and Settings\user\Desktop\PIC-LCD3310_test\Software\PIC-LCD3310_TEST_DEMO\user\user.c
                     prom   0x0004f6       data     static C:\MCC18\src\traditional\startup\c018i.c
                curr_byte   0x0004f9       data     static C:\MCC18\src\traditional\startup\c018i.c
               curr_entry   0x0004fb       data     static C:\MCC18\src\traditional\startup\c018i.c
                 data_ptr   0x0004fd       data     static C:\MCC18\src\traditional\startup\c018i.c
                     Menu   0x000e00       data     extern C:\Documents and Settings\user\Desktop\PIC-LCD3310_test\Software\PIC-LCD3310_TEST_DEMO\main.c
                Inversion   0x000e5a       data     extern C:\Documents and Settings\user\Desktop\PIC-LCD3310_test\Software\PIC-LCD3310_TEST_DEMO\main.c
                TestMMC_e   0x000e60       data     extern C:\Documents and Settings\user\Desktop\PIC-LCD3310_test\Software\PIC-LCD3310_TEST_DEMO\main.c
                     Exit   0x000e6b       data     extern C:\Documents and Settings\user\Desktop\PIC-LCD3310_test\Software\PIC-LCD3310_TEST_DEMO\main.c
                TestMMC_s   0x000e7a       data     extern C:\Documents and Settings\user\Desktop\PIC-LCD3310_test\Software\PIC-LCD3310_TEST_DEMO\main.c
                       CP   0x000e87       data     extern C:\Documents and Settings\user\Desktop\PIC-LCD3310_test\Software\PIC-LCD3310_TEST_DEMO\main.c
                       WP   0x000e97       data     extern C:\Documents and Settings\user\Desktop\PIC-LCD3310_test\Software\PIC-LCD3310_TEST_DEMO\main.c
                    USB_C   0x000eaa       data     extern C:\Documents and Settings\user\Desktop\PIC-LCD3310_test\Software\PIC-LCD3310_TEST_DEMO\main.c
                   USB_NC   0x000eb9       data     extern C:\Documents and Settings\user\Desktop\PIC-LCD3310_test\Software\PIC-LCD3310_TEST_DEMO\main.c
                    MMA_D   0x000ec9       data     extern C:\Documents and Settings\user\Desktop\PIC-LCD3310_test\Software\PIC-LCD3310_TEST_DEMO\main.c
                state_mmc   0x000ed7       data     extern C:\Documents and Settings\user\Desktop\PIC-LCD3310_test\Software\PIC-LCD3310_TEST_DEMO\main.c
                   offset   0x000ed8       data     extern C:\Documents and Settings\user\Desktop\PIC-LCD3310_test\Software\PIC-LCD3310_TEST_DEMO\main.c
                menu_flag   0x000ed9       data     extern C:\Documents and Settings\user\Desktop\PIC-LCD3310_test\Software\PIC-LCD3310_TEST_DEMO\main.c
                  new_pos   0x000eda       data     extern C:\Documents and Settings\user\Desktop\PIC-LCD3310_test\Software\PIC-LCD3310_TEST_DEMO\main.c
                  cur_pos   0x000edb       data     extern C:\Documents and Settings\user\Desktop\PIC-LCD3310_test\Software\PIC-LCD3310_TEST_DEMO\main.c
               test_state   0x000edc       data     extern C:\Documents and Settings\user\Desktop\PIC-LCD3310_test\Software\PIC-LCD3310_TEST_DEMO\main.c
              mask_port_a   0x000edd       data     extern C:\Documents and Settings\user\Desktop\PIC-LCD3310_test\Software\PIC-LCD3310_TEST_DEMO\test.c
              mask_port_b   0x000ede       data     extern C:\Documents and Settings\user\Desktop\PIC-LCD3310_test\Software\PIC-LCD3310_TEST_DEMO\test.c
              mask_port_c   0x000ee0       data     extern C:\Documents and Settings\user\Desktop\PIC-LCD3310_test\Software\PIC-LCD3310_TEST_DEMO\test.c
              mask_port_e   0x000ee1       data     extern C:\Documents and Settings\user\Desktop\PIC-LCD3310_test\Software\PIC-LCD3310_TEST_DEMO\test.c
              mask_port_f   0x000ee2       data     extern C:\Documents and Settings\user\Desktop\PIC-LCD3310_test\Software\PIC-LCD3310_TEST_DEMO\test.c
              mask_port_g   0x000ee3       data     extern C:\Documents and Settings\user\Desktop\PIC-LCD3310_test\Software\PIC-LCD3310_TEST_DEMO\test.c
                     test   0x000ee4       data     extern C:\Documents and Settings\user\Desktop\PIC-LCD3310_test\Software\PIC-LCD3310_TEST_DEMO\test.c
                vcc_state   0x000ee6       data     extern C:\Documents and Settings\user\Desktop\PIC-LCD3310_test\Software\PIC-LCD3310_TEST_DEMO\test.c
                gnd_state   0x000ee7       data     extern C:\Documents and Settings\user\Desktop\PIC-LCD3310_test\Software\PIC-LCD3310_TEST_DEMO\test.c
         mask_port_c_uext   0x000ee8       data     extern C:\Documents and Settings\user\Desktop\PIC-LCD3310_test\Software\PIC-LCD3310_TEST_DEMO\test.c
         mask_port_d_uext   0x000ee9       data     extern C:\Documents and Settings\user\Desktop\PIC-LCD3310_test\Software\PIC-LCD3310_TEST_DEMO\test.c
         mask_port_e_uext   0x000eea       data     extern C:\Documents and Settings\user\Desktop\PIC-LCD3310_test\Software\PIC-LCD3310_TEST_DEMO\test.c
           ctrl_trf_state   0x000eeb       data     extern C:\Documents and Settings\user\Desktop\PIC-LCD3310_test\Software\PIC-LCD3310_TEST_DEMO\system\usb\usbctrltrf\usbctrltrf.c
   ctrl_trf_session_owner   0x000eec       data     extern C:\Documents and Settings\user\Desktop\PIC-LCD3310_test\Software\PIC-LCD3310_TEST_DEMO\system\usb\usbctrltrf\usbctrltrf.c
                     pSrc   0x000eed       data     extern C:\Documents and Settings\user\Desktop\PIC-LCD3310_test\Software\PIC-LCD3310_TEST_DEMO\system\usb\usbctrltrf\usbctrltrf.c
                     pDst   0x000eef       data     extern C:\Documents and Settings\user\Desktop\PIC-LCD3310_test\Software\PIC-LCD3310_TEST_DEMO\system\usb\usbctrltrf\usbctrltrf.c
                   wCount   0x000ef1       data     extern C:\Documents and Settings\user\Desktop\PIC-LCD3310_test\Software\PIC-LCD3310_TEST_DEMO\system\usb\usbctrltrf\usbctrltrf.c
         short_pkt_status   0x000ef3       data     extern C:\Documents and Settings\user\Desktop\PIC-LCD3310_test\Software\PIC-LCD3310_TEST_DEMO\system\usb\usbctrltrf\usbctrltrf.c
              PMSTATLbits   0x000f40       data     extern C:\MCC18\src\traditional\proc\p18F67J50.asm
                   PMSTAT   0x000f40       data     extern C:\MCC18\src\traditional\proc\p18F67J50.asm
                  PMSTATL   0x000f40       data     extern C:\MCC18\src\traditional\proc\p18F67J50.asm
                  PMSTATH   0x000f41       data     extern C:\MCC18\src\traditional\proc\p18F67J50.asm
              PMSTATHbits   0x000f41       data     extern C:\MCC18\src\traditional\proc\p18F67J50.asm
                     PMEN   0x000f42       data     extern C:\MCC18\src\traditional\proc\p18F67J50.asm
                 PMELbits   0x000f42       data     extern C:\MCC18\src\traditional\proc\p18F67J50.asm
                     PMEL   0x000f42       data     extern C:\MCC18\src\traditional\proc\p18F67J50.asm
                 PMEHbits   0x000f43       data     extern C:\MCC18\src\traditional\proc\p18F67J50.asm
                     PMEH   0x000f43       data     extern C:\MCC18\src\traditional\proc\p18F67J50.asm
                   PMDIN2   0x000f44       data     extern C:\MCC18\src\traditional\proc\p18F67J50.asm
                  PMDIN2L   0x000f44       data     extern C:\MCC18\src\traditional\proc\p18F67J50.asm
                  PMDIN2H   0x000f45       data     extern C:\MCC18\src\traditional\proc\p18F67J50.asm
                 PMDOUT2L   0x000f46       data     extern C:\MCC18\src\traditional\proc\p18F67J50.asm
                  PMDOUT2   0x000f46       data     extern C:\MCC18\src\traditional\proc\p18F67J50.asm
                 PMDOUT2H   0x000f47       data     extern C:\MCC18\src\traditional\proc\p18F67J50.asm
              PMMODELbits   0x000f48       data     extern C:\MCC18\src\traditional\proc\p18F67J50.asm
                   PMMODE   0x000f48       data     extern C:\MCC18\src\traditional\proc\p18F67J50.asm
                  PMMODEL   0x000f48       data     extern C:\MCC18\src\traditional\proc\p18F67J50.asm
              PMMODEHbits   0x000f49       data     extern C:\MCC18\src\traditional\proc\p18F67J50.asm
                  PMMODEH   0x000f49       data     extern C:\MCC18\src\traditional\proc\p18F67J50.asm
                   PMCONL   0x000f4a       data     extern C:\MCC18\src\traditional\proc\p18F67J50.asm
                    PMCON   0x000f4a       data     extern C:\MCC18\src\traditional\proc\p18F67J50.asm
               PMCONLbits   0x000f4a       data     extern C:\MCC18\src\traditional\proc\p18F67J50.asm
               PMCONHbits   0x000f4b       data     extern C:\MCC18\src\traditional\proc\p18F67J50.asm
                   PMCONH   0x000f4b       data     extern C:\MCC18\src\traditional\proc\p18F67J50.asm
                     UEP0   0x000f4c       data     extern C:\MCC18\src\traditional\proc\p18F67J50.asm
                 UEP0bits   0x000f4c       data     extern C:\MCC18\src\traditional\proc\p18F67J50.asm
                     UEP1   0x000f4d       data     extern C:\MCC18\src\traditional\proc\p18F67J50.asm
                 UEP1bits   0x000f4d       data     extern C:\MCC18\src\traditional\proc\p18F67J50.asm
                     UEP2   0x000f4e       data     extern C:\MCC18\src\traditional\proc\p18F67J50.asm
                 UEP2bits   0x000f4e       data     extern C:\MCC18\src\traditional\proc\p18F67J50.asm
                     UEP3   0x000f4f       data     extern C:\MCC18\src\traditional\proc\p18F67J50.asm
                 UEP3bits   0x000f4f       data     extern C:\MCC18\src\traditional\proc\p18F67J50.asm
                     UEP4   0x000f50       data     extern C:\MCC18\src\traditional\proc\p18F67J50.asm
                 UEP4bits   0x000f50       data     extern C:\MCC18\src\traditional\proc\p18F67J50.asm
                     UEP5   0x000f51       data     extern C:\MCC18\src\traditional\proc\p18F67J50.asm
                 UEP5bits   0x000f51       data     extern C:\MCC18\src\traditional\proc\p18F67J50.asm
                     UEP6   0x000f52       data     extern C:\MCC18\src\traditional\proc\p18F67J50.asm
                 UEP6bits   0x000f52       data     extern C:\MCC18\src\traditional\proc\p18F67J50.asm
                     UEP7   0x000f53       data     extern C:\MCC18\src\traditional\proc\p18F67J50.asm
                 UEP7bits   0x000f53       data     extern C:\MCC18\src\traditional\proc\p18F67J50.asm
                     UEP8   0x000f54       data     extern C:\MCC18\src\traditional\proc\p18F67J50.asm
                 UEP8bits   0x000f54       data     extern C:\MCC18\src\traditional\proc\p18F67J50.asm
                     UEP9   0x000f55       data     extern C:\MCC18\src\traditional\proc\p18F67J50.asm
                 UEP9bits   0x000f55       data     extern C:\MCC18\src\traditional\proc\p18F67J50.asm
                UEP10bits   0x000f56       data     extern C:\MCC18\src\traditional\proc\p18F67J50.asm
                    UEP10   0x000f56       data     extern C:\MCC18\src\traditional\proc\p18F67J50.asm
                    UEP11   0x000f57       data     extern C:\MCC18\src\traditional\proc\p18F67J50.asm
                UEP11bits   0x000f57       data     extern C:\MCC18\src\traditional\proc\p18F67J50.asm
                UEP12bits   0x000f58       data     extern C:\MCC18\src\traditional\proc\p18F67J50.asm
                    UEP12   0x000f58       data     extern C:\MCC18\src\traditional\proc\p18F67J50.asm
                UEP13bits   0x000f59       data     extern C:\MCC18\src\traditional\proc\p18F67J50.asm
                    UEP13   0x000f59       data     extern C:\MCC18\src\traditional\proc\p18F67J50.asm
                    UEP14   0x000f5a       data     extern C:\MCC18\src\traditional\proc\p18F67J50.asm
                UEP14bits   0x000f5a       data     extern C:\MCC18\src\traditional\proc\p18F67J50.asm
                UEP15bits   0x000f5b       data     extern C:\MCC18\src\traditional\proc\p18F67J50.asm
                    UEP15   0x000f5b       data     extern C:\MCC18\src\traditional\proc\p18F67J50.asm
                  UIEbits   0x000f5c       data     extern C:\MCC18\src\traditional\proc\p18F67J50.asm
                      UIE   0x000f5c       data     extern C:\MCC18\src\traditional\proc\p18F67J50.asm
                     UEIE   0x000f5d       data     extern C:\MCC18\src\traditional\proc\p18F67J50.asm
                 UEIEbits   0x000f5d       data     extern C:\MCC18\src\traditional\proc\p18F67J50.asm
                    UADDR   0x000f5e       data     extern C:\MCC18\src\traditional\proc\p18F67J50.asm
                UADDRbits   0x000f5e       data     extern C:\MCC18\src\traditional\proc\p18F67J50.asm
                     UCFG   0x000f5f       data     extern C:\MCC18\src\traditional\proc\p18F67J50.asm
                 UCFGbits   0x000f5f       data     extern C:\MCC18\src\traditional\proc\p18F67J50.asm
                UFRMLbits   0x000f60       data     extern C:\MCC18\src\traditional\proc\p18F67J50.asm
                     UFRM   0x000f60       data     extern C:\MCC18\src\traditional\proc\p18F67J50.asm
                    UFRML   0x000f60       data     extern C:\MCC18\src\traditional\proc\p18F67J50.asm
                UFRMHbits   0x000f61       data     extern C:\MCC18\src\traditional\proc\p18F67J50.asm
                    UFRMH   0x000f61       data     extern C:\MCC18\src\traditional\proc\p18F67J50.asm
                  UIRbits   0x000f62       data     extern C:\MCC18\src\traditional\proc\p18F67J50.asm
                      UIR   0x000f62       data     extern C:\MCC18\src\traditional\proc\p18F67J50.asm
                     UEIR   0x000f63       data     extern C:\MCC18\src\traditional\proc\p18F67J50.asm
                 UEIRbits   0x000f63       data     extern C:\MCC18\src\traditional\proc\p18F67J50.asm
                USTATbits   0x000f64       data     extern C:\MCC18\src\traditional\proc\p18F67J50.asm
                    USTAT   0x000f64       data     extern C:\MCC18\src\traditional\proc\p18F67J50.asm
                 UCONbits   0x000f65       data     extern C:\MCC18\src\traditional\proc\p18F67J50.asm
                     UCON   0x000f65       data     extern C:\MCC18\src\traditional\proc\p18F67J50.asm
                   PMDIN1   0x000f66       data     extern C:\MCC18\src\traditional\proc\p18F67J50.asm
                  PMDIN1L   0x000f66       data     extern C:\MCC18\src\traditional\proc\p18F67J50.asm
                  PMDIN1H   0x000f67       data     extern C:\MCC18\src\traditional\proc\p18F67J50.asm
                 PMDOUT1L   0x000f68       data     extern C:\MCC18\src\traditional\proc\p18F67J50.asm
                  PMDOUT1   0x000f68       data     extern C:\MCC18\src\traditional\proc\p18F67J50.asm
                   PMADDR   0x000f68       data     extern C:\MCC18\src\traditional\proc\p18F67J50.asm
                  PMADDRL   0x000f68       data     extern C:\MCC18\src\traditional\proc\p18F67J50.asm
                  PMADDRH   0x000f69       data     extern C:\MCC18\src\traditional\proc\p18F67J50.asm
              PMADDRHbits   0x000f69       data     extern C:\MCC18\src\traditional\proc\p18F67J50.asm
                 PMDOUT1H   0x000f69       data     extern C:\MCC18\src\traditional\proc\p18F67J50.asm
               CMSTATbits   0x000f6a       data     extern C:\MCC18\src\traditional\proc\p18F67J50.asm
             CMSTATUSbits   0x000f6a       data     extern C:\MCC18\src\traditional\proc\p18F67J50.asm
                 CMSTATUS   0x000f6a       data     extern C:\MCC18\src\traditional\proc\p18F67J50.asm
                   CMSTAT   0x000f6a       data     extern C:\MCC18\src\traditional\proc\p18F67J50.asm
             SSP2CON2bits   0x000f6b       data     extern C:\MCC18\src\traditional\proc\p18F67J50.asm
                 SSP2CON2   0x000f6b       data     extern C:\MCC18\src\traditional\proc\p18F67J50.asm
             SSP2CON1bits   0x000f6c       data     extern C:\MCC18\src\traditional\proc\p18F67J50.asm
                 SSP2CON1   0x000f6c       data     extern C:\MCC18\src\traditional\proc\p18F67J50.asm
                 SSP2STAT   0x000f6d       data     extern C:\MCC18\src\traditional\proc\p18F67J50.asm
             SSP2STATbits   0x000f6d       data     extern C:\MCC18\src\traditional\proc\p18F67J50.asm
                  SSP2MSK   0x000f6e       data     extern C:\MCC18\src\traditional\proc\p18F67J50.asm
              SSP2MSKbits   0x000f6e       data     extern C:\MCC18\src\traditional\proc\p18F67J50.asm
                  SSP2ADD   0x000f6e       data     extern C:\MCC18\src\traditional\proc\p18F67J50.asm
                  SSP2BUF   0x000f6f       data     extern C:\MCC18\src\traditional\proc\p18F67J50.asm
                  CCP5CON   0x000f70       data     extern C:\MCC18\src\traditional\proc\p18F67J50.asm
              CCP5CONbits   0x000f70       data     extern C:\MCC18\src\traditional\proc\p18F67J50.asm
                   CCPR5L   0x000f71       data     extern C:\MCC18\src\traditional\proc\p18F67J50.asm
                    CCPR5   0x000f71       data     extern C:\MCC18\src\traditional\proc\p18F67J50.asm
                   CCPR5H   0x000f72       data     extern C:\MCC18\src\traditional\proc\p18F67J50.asm
                  CCP4CON   0x000f73       data     extern C:\MCC18\src\traditional\proc\p18F67J50.asm
              CCP4CONbits   0x000f73       data     extern C:\MCC18\src\traditional\proc\p18F67J50.asm
                    CCPR4   0x000f74       data     extern C:\MCC18\src\traditional\proc\p18F67J50.asm
                   CCPR4L   0x000f74       data     extern C:\MCC18\src\traditional\proc\p18F67J50.asm
                   CCPR4H   0x000f75       data     extern C:\MCC18\src\traditional\proc\p18F67J50.asm
                T4CONbits   0x000f76       data     extern C:\MCC18\src\traditional\proc\p18F67J50.asm
                    T4CON   0x000f76       data     extern C:\MCC18\src\traditional\proc\p18F67J50.asm
                      PR4   0x000f77       data     extern C:\MCC18\src\traditional\proc\p18F67J50.asm
                   CVRCON   0x000f77       data     extern C:\MCC18\src\traditional\proc\p18F67J50.asm
               CVRCONbits   0x000f77       data     extern C:\MCC18\src\traditional\proc\p18F67J50.asm
                     TMR4   0x000f78       data     extern C:\MCC18\src\traditional\proc\p18F67J50.asm
                    T3CON   0x000f79       data     extern C:\MCC18\src\traditional\proc\p18F67J50.asm
                T3CONbits   0x000f79       data     extern C:\MCC18\src\traditional\proc\p18F67J50.asm
                    TMR3L   0x000f7a       data     extern C:\MCC18\src\traditional\proc\p18F67J50.asm
                    TMR3H   0x000f7b       data     extern C:\MCC18\src\traditional\proc\p18F67J50.asm
             BAUDCON2bits   0x000f7c       data     extern C:\MCC18\src\traditional\proc\p18F67J50.asm
                 BAUDCON2   0x000f7c       data     extern C:\MCC18\src\traditional\proc\p18F67J50.asm
                  SPBRGH2   0x000f7d       data     extern C:\MCC18\src\traditional\proc\p18F67J50.asm
                  BAUDCON   0x000f7e       data     extern C:\MCC18\src\traditional\proc\p18F67J50.asm
                 BAUDCON1   0x000f7e       data     extern C:\MCC18\src\traditional\proc\p18F67J50.asm
             BAUDCON1bits   0x000f7e       data     extern C:\MCC18\src\traditional\proc\p18F67J50.asm
              BAUDCONbits   0x000f7e       data     extern C:\MCC18\src\traditional\proc\p18F67J50.asm
                  SPBRGH1   0x000f7f       data     extern C:\MCC18\src\traditional\proc\p18F67J50.asm
                PORTAbits   0x000f80       data     extern C:\MCC18\src\traditional\proc\p18F67J50.asm
                    PORTA   0x000f80       data     extern C:\MCC18\src\traditional\proc\p18F67J50.asm
                PORTBbits   0x000f81       data     extern C:\MCC18\src\traditional\proc\p18F67J50.asm
                    PORTB   0x000f81       data     extern C:\MCC18\src\traditional\proc\p18F67J50.asm
                PORTCbits   0x000f82       data     extern C:\MCC18\src\traditional\proc\p18F67J50.asm
                    PORTC   0x000f82       data     extern C:\MCC18\src\traditional\proc\p18F67J50.asm
                PORTDbits   0x000f83       data     extern C:\MCC18\src\traditional\proc\p18F67J50.asm
                    PORTD   0x000f83       data     extern C:\MCC18\src\traditional\proc\p18F67J50.asm
                    PORTE   0x000f84       data     extern C:\MCC18\src\traditional\proc\p18F67J50.asm
                PORTEbits   0x000f84       data     extern C:\MCC18\src\traditional\proc\p18F67J50.asm
                    PORTF   0x000f85       data     extern C:\MCC18\src\traditional\proc\p18F67J50.asm
                PORTFbits   0x000f85       data     extern C:\MCC18\src\traditional\proc\p18F67J50.asm
                    PORTG   0x000f86       data     extern C:\MCC18\src\traditional\proc\p18F67J50.asm
                PORTGbits   0x000f86       data     extern C:\MCC18\src\traditional\proc\p18F67J50.asm
                 LATAbits   0x000f89       data     extern C:\MCC18\src\traditional\proc\p18F67J50.asm
                     LATA   0x000f89       data     extern C:\MCC18\src\traditional\proc\p18F67J50.asm
                     LATB   0x000f8a       data     extern C:\MCC18\src\traditional\proc\p18F67J50.asm
                 LATBbits   0x000f8a       data     extern C:\MCC18\src\traditional\proc\p18F67J50.asm
                     LATC   0x000f8b       data     extern C:\MCC18\src\traditional\proc\p18F67J50.asm
                 LATCbits   0x000f8b       data     extern C:\MCC18\src\traditional\proc\p18F67J50.asm
                     LATD   0x000f8c       data     extern C:\MCC18\src\traditional\proc\p18F67J50.asm
                 LATDbits   0x000f8c       data     extern C:\MCC18\src\traditional\proc\p18F67J50.asm
                     LATE   0x000f8d       data     extern C:\MCC18\src\traditional\proc\p18F67J50.asm
                 LATEbits   0x000f8d       data     extern C:\MCC18\src\traditional\proc\p18F67J50.asm
                     LATF   0x000f8e       data     extern C:\MCC18\src\traditional\proc\p18F67J50.asm
                 LATFbits   0x000f8e       data     extern C:\MCC18\src\traditional\proc\p18F67J50.asm
                 LATGbits   0x000f8f       data     extern C:\MCC18\src\traditional\proc\p18F67J50.asm
                     LATG   0x000f8f       data     extern C:\MCC18\src\traditional\proc\p18F67J50.asm
                     DDRA   0x000f92       data     extern C:\MCC18\src\traditional\proc\p18F67J50.asm
                 DDRAbits   0x000f92       data     extern C:\MCC18\src\traditional\proc\p18F67J50.asm
                    TRISA   0x000f92       data     extern C:\MCC18\src\traditional\proc\p18F67J50.asm
                TRISAbits   0x000f92       data     extern C:\MCC18\src\traditional\proc\p18F67J50.asm
                    TRISB   0x000f93       data     extern C:\MCC18\src\traditional\proc\p18F67J50.asm
                TRISBbits   0x000f93       data     extern C:\MCC18\src\traditional\proc\p18F67J50.asm
                 DDRBbits   0x000f93       data     extern C:\MCC18\src\traditional\proc\p18F67J50.asm
                     DDRB   0x000f93       data     extern C:\MCC18\src\traditional\proc\p18F67J50.asm
                 DDRCbits   0x000f94       data     extern C:\MCC18\src\traditional\proc\p18F67J50.asm
                     DDRC   0x000f94       data     extern C:\MCC18\src\traditional\proc\p18F67J50.asm
                    TRISC   0x000f94       data     extern C:\MCC18\src\traditional\proc\p18F67J50.asm
                TRISCbits   0x000f94       data     extern C:\MCC18\src\traditional\proc\p18F67J50.asm
                    TRISD   0x000f95       data     extern C:\MCC18\src\traditional\proc\p18F67J50.asm
                TRISDbits   0x000f95       data     extern C:\MCC18\src\traditional\proc\p18F67J50.asm
                 DDRDbits   0x000f95       data     extern C:\MCC18\src\traditional\proc\p18F67J50.asm
                     DDRD   0x000f95       data     extern C:\MCC18\src\traditional\proc\p18F67J50.asm
                 DDREbits   0x000f96       data     extern C:\MCC18\src\traditional\proc\p18F67J50.asm
                     DDRE   0x000f96       data     extern C:\MCC18\src\traditional\proc\p18F67J50.asm
                TRISEbits   0x000f96       data     extern C:\MCC18\src\traditional\proc\p18F67J50.asm
                    TRISE   0x000f96       data     extern C:\MCC18\src\traditional\proc\p18F67J50.asm
                TRISFbits   0x000f97       data     extern C:\MCC18\src\traditional\proc\p18F67J50.asm
                     DDRF   0x000f97       data     extern C:\MCC18\src\traditional\proc\p18F67J50.asm
                    TRISF   0x000f97       data     extern C:\MCC18\src\traditional\proc\p18F67J50.asm
                 DDRFbits   0x000f97       data     extern C:\MCC18\src\traditional\proc\p18F67J50.asm
                    TRISG   0x000f98       data     extern C:\MCC18\src\traditional\proc\p18F67J50.asm
                 DDRGbits   0x000f98       data     extern C:\MCC18\src\traditional\proc\p18F67J50.asm
                     DDRG   0x000f98       data     extern C:\MCC18\src\traditional\proc\p18F67J50.asm
                TRISGbits   0x000f98       data     extern C:\MCC18\src\traditional\proc\p18F67J50.asm
                  OSCTUNE   0x000f9b       data     extern C:\MCC18\src\traditional\proc\p18F67J50.asm
              OSCTUNEbits   0x000f9b       data     extern C:\MCC18\src\traditional\proc\p18F67J50.asm
               RCSTA2bits   0x000f9c       data     extern C:\MCC18\src\traditional\proc\p18F67J50.asm
                   RCSTA2   0x000f9c       data     extern C:\MCC18\src\traditional\proc\p18F67J50.asm
                     PIE1   0x000f9d       data     extern C:\MCC18\src\traditional\proc\p18F67J50.asm
                 PIE1bits   0x000f9d       data     extern C:\MCC18\src\traditional\proc\p18F67J50.asm
                     PIR1   0x000f9e       data     extern C:\MCC18\src\traditional\proc\p18F67J50.asm
                 PIR1bits   0x000f9e       data     extern C:\MCC18\src\traditional\proc\p18F67J50.asm
                     IPR1   0x000f9f       data     extern C:\MCC18\src\traditional\proc\p18F67J50.asm
                 IPR1bits   0x000f9f       data     extern C:\MCC18\src\traditional\proc\p18F67J50.asm
                     PIE2   0x000fa0       data     extern C:\MCC18\src\traditional\proc\p18F67J50.asm
                 PIE2bits   0x000fa0       data     extern C:\MCC18\src\traditional\proc\p18F67J50.asm
                     PIR2   0x000fa1       data     extern C:\MCC18\src\traditional\proc\p18F67J50.asm
                 PIR2bits   0x000fa1       data     extern C:\MCC18\src\traditional\proc\p18F67J50.asm
                     IPR2   0x000fa2       data     extern C:\MCC18\src\traditional\proc\p18F67J50.asm
                 IPR2bits   0x000fa2       data     extern C:\MCC18\src\traditional\proc\p18F67J50.asm
                     PIE3   0x000fa3       data     extern C:\MCC18\src\traditional\proc\p18F67J50.asm
                 PIE3bits   0x000fa3       data     extern C:\MCC18\src\traditional\proc\p18F67J50.asm
                     PIR3   0x000fa4       data     extern C:\MCC18\src\traditional\proc\p18F67J50.asm
                 PIR3bits   0x000fa4       data     extern C:\MCC18\src\traditional\proc\p18F67J50.asm
                     IPR3   0x000fa5       data     extern C:\MCC18\src\traditional\proc\p18F67J50.asm
                 IPR3bits   0x000fa5       data     extern C:\MCC18\src\traditional\proc\p18F67J50.asm
               EECON1bits   0x000fa6       data     extern C:\MCC18\src\traditional\proc\p18F67J50.asm
                   EECON1   0x000fa6       data     extern C:\MCC18\src\traditional\proc\p18F67J50.asm
                   EECON2   0x000fa7       data     extern C:\MCC18\src\traditional\proc\p18F67J50.asm
                   TXSTA2   0x000fa8       data     extern C:\MCC18\src\traditional\proc\p18F67J50.asm
               TXSTA2bits   0x000fa8       data     extern C:\MCC18\src\traditional\proc\p18F67J50.asm
                   TXREG2   0x000fa9       data     extern C:\MCC18\src\traditional\proc\p18F67J50.asm
                   RCREG2   0x000faa       data     extern C:\MCC18\src\traditional\proc\p18F67J50.asm
                   SPBRG2   0x000fab       data     extern C:\MCC18\src\traditional\proc\p18F67J50.asm
                    RCSTA   0x000fac       data     extern C:\MCC18\src\traditional\proc\p18F67J50.asm
                   RCSTA1   0x000fac       data     extern C:\MCC18\src\traditional\proc\p18F67J50.asm
               RCSTA1bits   0x000fac       data     extern C:\MCC18\src\traditional\proc\p18F67J50.asm
                RCSTAbits   0x000fac       data     extern C:\MCC18\src\traditional\proc\p18F67J50.asm
                    TXSTA   0x000fad       data     extern C:\MCC18\src\traditional\proc\p18F67J50.asm
                   TXSTA1   0x000fad       data     extern C:\MCC18\src\traditional\proc\p18F67J50.asm
               TXSTA1bits   0x000fad       data     extern C:\MCC18\src\traditional\proc\p18F67J50.asm
                TXSTAbits   0x000fad       data     extern C:\MCC18\src\traditional\proc\p18F67J50.asm
                   TXREG1   0x000fae       data     extern C:\MCC18\src\traditional\proc\p18F67J50.asm
                    TXREG   0x000fae       data     extern C:\MCC18\src\traditional\proc\p18F67J50.asm
                    RCREG   0x000faf       data     extern C:\MCC18\src\traditional\proc\p18F67J50.asm
                   RCREG1   0x000faf       data     extern C:\MCC18\src\traditional\proc\p18F67J50.asm
                    SPBRG   0x000fb0       data     extern C:\MCC18\src\traditional\proc\p18F67J50.asm
                   SPBRG1   0x000fb0       data     extern C:\MCC18\src\traditional\proc\p18F67J50.asm
                  CCP3CON   0x000fb1       data     extern C:\MCC18\src\traditional\proc\p18F67J50.asm
             ECCP3CONbits   0x000fb1       data     extern C:\MCC18\src\traditional\proc\p18F67J50.asm
              CCP3CONbits   0x000fb1       data     extern C:\MCC18\src\traditional\proc\p18F67J50.asm
                 ECCP3CON   0x000fb1       data     extern C:\MCC18\src\traditional\proc\p18F67J50.asm
                   CCPR3L   0x000fb2       data     extern C:\MCC18\src\traditional\proc\p18F67J50.asm
                    CCPR3   0x000fb2       data     extern C:\MCC18\src\traditional\proc\p18F67J50.asm
                   CCPR3H   0x000fb3       data     extern C:\MCC18\src\traditional\proc\p18F67J50.asm
                 ECCP3DEL   0x000fb4       data     extern C:\MCC18\src\traditional\proc\p18F67J50.asm
             ECCP3DELbits   0x000fb4       data     extern C:\MCC18\src\traditional\proc\p18F67J50.asm
                  ECCP3AS   0x000fb5       data     extern C:\MCC18\src\traditional\proc\p18F67J50.asm
              ECCP3ASbits   0x000fb5       data     extern C:\MCC18\src\traditional\proc\p18F67J50.asm
                  CCP2CON   0x000fb6       data     extern C:\MCC18\src\traditional\proc\p18F67J50.asm
             ECCP2CONbits   0x000fb6       data     extern C:\MCC18\src\traditional\proc\p18F67J50.asm
                 ECCP2CON   0x000fb6       data     extern C:\MCC18\src\traditional\proc\p18F67J50.asm
              CCP2CONbits   0x000fb6       data     extern C:\MCC18\src\traditional\proc\p18F67J50.asm
                   CCPR2L   0x000fb7       data     extern C:\MCC18\src\traditional\proc\p18F67J50.asm
                    CCPR2   0x000fb7       data     extern C:\MCC18\src\traditional\proc\p18F67J50.asm
                   CCPR2H   0x000fb8       data     extern C:\MCC18\src\traditional\proc\p18F67J50.asm
             ECCP2DELbits   0x000fb9       data     extern C:\MCC18\src\traditional\proc\p18F67J50.asm
                 ECCP2DEL   0x000fb9       data     extern C:\MCC18\src\traditional\proc\p18F67J50.asm
              ECCP2ASbits   0x000fba       data     extern C:\MCC18\src\traditional\proc\p18F67J50.asm
                  ECCP2AS   0x000fba       data     extern C:\MCC18\src\traditional\proc\p18F67J50.asm
              CCP1CONbits   0x000fbb       data     extern C:\MCC18\src\traditional\proc\p18F67J50.asm
                  CCP1CON   0x000fbb       data     extern C:\MCC18\src\traditional\proc\p18F67J50.asm
             ECCP1CONbits   0x000fbb       data     extern C:\MCC18\src\traditional\proc\p18F67J50.asm
                 ECCP1CON   0x000fbb       data     extern C:\MCC18\src\traditional\proc\p18F67J50.asm
                    CCPR1   0x000fbc       data     extern C:\MCC18\src\traditional\proc\p18F67J50.asm
                   CCPR1L   0x000fbc       data     extern C:\MCC18\src\traditional\proc\p18F67J50.asm
                   CCPR1H   0x000fbd       data     extern C:\MCC18\src\traditional\proc\p18F67J50.asm
                 ECCP1DEL   0x000fbe       data     extern C:\MCC18\src\traditional\proc\p18F67J50.asm
             ECCP1DELbits   0x000fbe       data     extern C:\MCC18\src\traditional\proc\p18F67J50.asm
              ECCP1ASbits   0x000fbf       data     extern C:\MCC18\src\traditional\proc\p18F67J50.asm
                  ECCP1AS   0x000fbf       data     extern C:\MCC18\src\traditional\proc\p18F67J50.asm
                   WDTCON   0x000fc0       data     extern C:\MCC18\src\traditional\proc\p18F67J50.asm
               WDTCONbits   0x000fc0       data     extern C:\MCC18\src\traditional\proc\p18F67J50.asm
               ANCON0bits   0x000fc1       data     extern C:\MCC18\src\traditional\proc\p18F67J50.asm
                   ANCON0   0x000fc1       data     extern C:\MCC18\src\traditional\proc\p18F67J50.asm
                   ADCON1   0x000fc1       data     extern C:\MCC18\src\traditional\proc\p18F67J50.asm
               ADCON1bits   0x000fc1       data     extern C:\MCC18\src\traditional\proc\p18F67J50.asm
                   ADCON0   0x000fc2       data     extern C:\MCC18\src\traditional\proc\p18F67J50.asm
               ADCON0bits   0x000fc2       data     extern C:\MCC18\src\traditional\proc\p18F67J50.asm
               ANCON1bits   0x000fc2       data     extern C:\MCC18\src\traditional\proc\p18F67J50.asm
                   ANCON1   0x000fc2       data     extern C:\MCC18\src\traditional\proc\p18F67J50.asm
                   ADRESL   0x000fc3       data     extern C:\MCC18\src\traditional\proc\p18F67J50.asm
                    ADRES   0x000fc3       data     extern C:\MCC18\src\traditional\proc\p18F67J50.asm
                   ADRESH   0x000fc4       data     extern C:\MCC18\src\traditional\proc\p18F67J50.asm
              SSPCON2bits   0x000fc5       data     extern C:\MCC18\src\traditional\proc\p18F67J50.asm
                  SSPCON2   0x000fc5       data     extern C:\MCC18\src\traditional\proc\p18F67J50.asm
             SSP1CON2bits   0x000fc5       data     extern C:\MCC18\src\traditional\proc\p18F67J50.asm
                 SSP1CON2   0x000fc5       data     extern C:\MCC18\src\traditional\proc\p18F67J50.asm
              SSPCON1bits   0x000fc6       data     extern C:\MCC18\src\traditional\proc\p18F67J50.asm
                  SSPCON1   0x000fc6       data     extern C:\MCC18\src\traditional\proc\p18F67J50.asm
             SSP1CON1bits   0x000fc6       data     extern C:\MCC18\src\traditional\proc\p18F67J50.asm
                 SSP1CON1   0x000fc6       data     extern C:\MCC18\src\traditional\proc\p18F67J50.asm
              SSPSTATbits   0x000fc7       data     extern C:\MCC18\src\traditional\proc\p18F67J50.asm
                  SSPSTAT   0x000fc7       data     extern C:\MCC18\src\traditional\proc\p18F67J50.asm
                 SSP1STAT   0x000fc7       data     extern C:\MCC18\src\traditional\proc\p18F67J50.asm
             SSP1STATbits   0x000fc7       data     extern C:\MCC18\src\traditional\proc\p18F67J50.asm
                  SSP1MSK   0x000fc8       data     extern C:\MCC18\src\traditional\proc\p18F67J50.asm
                  SSP1ADD   0x000fc8       data     extern C:\MCC18\src\traditional\proc\p18F67J50.asm
                   SSPADD   0x000fc8       data     extern C:\MCC18\src\traditional\proc\p18F67J50.asm
                  SSP1BUF   0x000fc9       data     extern C:\MCC18\src\traditional\proc\p18F67J50.asm
                   SSPBUF   0x000fc9       data     extern C:\MCC18\src\traditional\proc\p18F67J50.asm
                T2CONbits   0x000fca       data     extern C:\MCC18\src\traditional\proc\p18F67J50.asm
                    T2CON   0x000fca       data     extern C:\MCC18\src\traditional\proc\p18F67J50.asm
                      PR2   0x000fcb       data     extern C:\MCC18\src\traditional\proc\p18F67J50.asm
                     TMR2   0x000fcc       data     extern C:\MCC18\src\traditional\proc\p18F67J50.asm
                  PADCFG1   0x000fcc       data     extern C:\MCC18\src\traditional\proc\p18F67J50.asm
              PADCFG1bits   0x000fcc       data     extern C:\MCC18\src\traditional\proc\p18F67J50.asm
               ODCON3bits   0x000fcd       data     extern C:\MCC18\src\traditional\proc\p18F67J50.asm
                    T1CON   0x000fcd       data     extern C:\MCC18\src\traditional\proc\p18F67J50.asm
                T1CONbits   0x000fcd       data     extern C:\MCC18\src\traditional\proc\p18F67J50.asm
                   ODCON3   0x000fcd       data     extern C:\MCC18\src\traditional\proc\p18F67J50.asm
               ODCON2bits   0x000fce       data     extern C:\MCC18\src\traditional\proc\p18F67J50.asm
                    TMR1L   0x000fce       data     extern C:\MCC18\src\traditional\proc\p18F67J50.asm
                   ODCON2   0x000fce       data     extern C:\MCC18\src\traditional\proc\p18F67J50.asm
                   ODCON1   0x000fcf       data     extern C:\MCC18\src\traditional\proc\p18F67J50.asm
               ODCON1bits   0x000fcf       data     extern C:\MCC18\src\traditional\proc\p18F67J50.asm
                    TMR1H   0x000fcf       data     extern C:\MCC18\src\traditional\proc\p18F67J50.asm
                 RCONbits   0x000fd0       data     extern C:\MCC18\src\traditional\proc\p18F67J50.asm
                     RCON   0x000fd0       data     extern C:\MCC18\src\traditional\proc\p18F67J50.asm
               CM2CONbits   0x000fd1       data     extern C:\MCC18\src\traditional\proc\p18F67J50.asm
              CM2CON1bits   0x000fd1       data     extern C:\MCC18\src\traditional\proc\p18F67J50.asm
                  CM2CON1   0x000fd1       data     extern C:\MCC18\src\traditional\proc\p18F67J50.asm
                   CM2CON   0x000fd1       data     extern C:\MCC18\src\traditional\proc\p18F67J50.asm
                   CM1CON   0x000fd2       data     extern C:\MCC18\src\traditional\proc\p18F67J50.asm
               CM1CONbits   0x000fd2       data     extern C:\MCC18\src\traditional\proc\p18F67J50.asm
              CM1CON1bits   0x000fd2       data     extern C:\MCC18\src\traditional\proc\p18F67J50.asm
                  CM1CON1   0x000fd2       data     extern C:\MCC18\src\traditional\proc\p18F67J50.asm
                  REFOCON   0x000fd3       data     extern C:\MCC18\src\traditional\proc\p18F67J50.asm
              REFOCONbits   0x000fd3       data     extern C:\MCC18\src\traditional\proc\p18F67J50.asm
                   OSCCON   0x000fd3       data     extern C:\MCC18\src\traditional\proc\p18F67J50.asm
               OSCCONbits   0x000fd3       data     extern C:\MCC18\src\traditional\proc\p18F67J50.asm
                T0CONbits   0x000fd5       data     extern C:\MCC18\src\traditional\proc\p18F67J50.asm
                    T0CON   0x000fd5       data     extern C:\MCC18\src\traditional\proc\p18F67J50.asm
                    TMR0L   0x000fd6       data     extern C:\MCC18\src\traditional\proc\p18F67J50.asm
                    TMR0H   0x000fd7       data     extern C:\MCC18\src\traditional\proc\p18F67J50.asm
               STATUSbits   0x000fd8       data     extern C:\MCC18\src\traditional\proc\p18F67J50.asm
                   STATUS   0x000fd8       data     extern C:\MCC18\src\traditional\proc\p18F67J50.asm
                    FSR2L   0x000fd9       data     extern C:\MCC18\src\traditional\proc\p18F67J50.asm
                     FSR2   0x000fd9       data     extern C:\MCC18\src\traditional\proc\p18F67J50.asm
                    FSR2H   0x000fda       data     extern C:\MCC18\src\traditional\proc\p18F67J50.asm
                   PLUSW2   0x000fdb       data     extern C:\MCC18\src\traditional\proc\p18F67J50.asm
                  PREINC2   0x000fdc       data     extern C:\MCC18\src\traditional\proc\p18F67J50.asm
                 POSTDEC2   0x000fdd       data     extern C:\MCC18\src\traditional\proc\p18F67J50.asm
                 POSTINC2   0x000fde       data     extern C:\MCC18\src\traditional\proc\p18F67J50.asm
                    INDF2   0x000fdf       data     extern C:\MCC18\src\traditional\proc\p18F67J50.asm
                      BSR   0x000fe0       data     extern C:\MCC18\src\traditional\proc\p18F67J50.asm
                     FSR1   0x000fe1       data     extern C:\MCC18\src\traditional\proc\p18F67J50.asm
                    FSR1L   0x000fe1       data     extern C:\MCC18\src\traditional\proc\p18F67J50.asm
                    FSR1H   0x000fe2       data     extern C:\MCC18\src\traditional\proc\p18F67J50.asm
                   PLUSW1   0x000fe3       data     extern C:\MCC18\src\traditional\proc\p18F67J50.asm
                  PREINC1   0x000fe4       data     extern C:\MCC18\src\traditional\proc\p18F67J50.asm
                 POSTDEC1   0x000fe5       data     extern C:\MCC18\src\traditional\proc\p18F67J50.asm
                 POSTINC1   0x000fe6       data     extern C:\MCC18\src\traditional\proc\p18F67J50.asm
                    INDF1   0x000fe7       data     extern C:\MCC18\src\traditional\proc\p18F67J50.asm
                     WREG   0x000fe8       data     extern C:\MCC18\src\traditional\proc\p18F67J50.asm
                    FSR0L   0x000fe9       data     extern C:\MCC18\src\traditional\proc\p18F67J50.asm
                     FSR0   0x000fe9       data     extern C:\MCC18\src\traditional\proc\p18F67J50.asm
                    FSR0H   0x000fea       data     extern C:\MCC18\src\traditional\proc\p18F67J50.asm
                   PLUSW0   0x000feb       data     extern C:\MCC18\src\traditional\proc\p18F67J50.asm
                  PREINC0   0x000fec       data     extern C:\MCC18\src\traditional\proc\p18F67J50.asm
                 POSTDEC0   0x000fed       data     extern C:\MCC18\src\traditional\proc\p18F67J50.asm
                 POSTINC0   0x000fee       data     extern C:\MCC18\src\traditional\proc\p18F67J50.asm
                    INDF0   0x000fef       data     extern C:\MCC18\src\traditional\proc\p18F67J50.asm
              INTCON3bits   0x000ff0       data     extern C:\MCC18\src\traditional\proc\p18F67J50.asm
                  INTCON3   0x000ff0       data     extern C:\MCC18\src\traditional\proc\p18F67J50.asm
              INTCON2bits   0x000ff1       data     extern C:\MCC18\src\traditional\proc\p18F67J50.asm
                  INTCON2   0x000ff1       data     extern C:\MCC18\src\traditional\proc\p18F67J50.asm
               INTCONbits   0x000ff2       data     extern C:\MCC18\src\traditional\proc\p18F67J50.asm
                   INTCON   0x000ff2       data     extern C:\MCC18\src\traditional\proc\p18F67J50.asm
                     PROD   0x000ff3       data     extern C:\MCC18\src\traditional\proc\p18F67J50.asm
                    PRODL   0x000ff3       data     extern C:\MCC18\src\traditional\proc\p18F67J50.asm
                    PRODH   0x000ff4       data     extern C:\MCC18\src\traditional\proc\p18F67J50.asm
                   TABLAT   0x000ff5       data     extern C:\MCC18\src\traditional\proc\p18F67J50.asm
                   TBLPTR   0x000ff6       data     extern C:\MCC18\src\traditional\proc\p18F67J50.asm
                  TBLPTRL   0x000ff6       data     extern C:\MCC18\src\traditional\proc\p18F67J50.asm
                  TBLPTRH   0x000ff7       data     extern C:\MCC18\src\traditional\proc\p18F67J50.asm
                  TBLPTRU   0x000ff8       data     extern C:\MCC18\src\traditional\proc\p18F67J50.asm
                       PC   0x000ff9       data     extern C:\MCC18\src\traditional\proc\p18F67J50.asm
                      PCL   0x000ff9       data     extern C:\MCC18\src\traditional\proc\p18F67J50.asm
                   PCLATH   0x000ffa       data     extern C:\MCC18\src\traditional\proc\p18F67J50.asm
